{
  "_format": "hh-sol-artifact-1",
  "contractName": "FluxLayerZeroOracle",
  "sourceName": "contracts/FluxLayerZeroOracle.sol",
  "abi": [
    {
      "inputs": [
        {
          "internalType": "address",
          "name": "_admin",
          "type": "address"
        },
        {
          "internalType": "address",
          "name": "_layerZero",
          "type": "address"
        },
        {
          "internalType": "address",
          "name": "_ultraLightNode",
          "type": "address"
        }
      ],
      "stateMutability": "nonpayable",
      "type": "constructor"
    },
    {
      "anonymous": false,
      "inputs": [
        {
          "indexed": false,
          "internalType": "address",
          "name": "dstNetworkAddress",
          "type": "address"
        },
        {
          "indexed": false,
          "internalType": "uint16",
          "name": "_srcChainId",
          "type": "uint16"
        },
        {
          "indexed": false,
          "internalType": "bytes32",
          "name": "_blockHash",
          "type": "bytes32"
        },
        {
          "indexed": false,
          "internalType": "uint256",
          "name": "_confirmations",
          "type": "uint256"
        },
        {
          "indexed": false,
          "internalType": "bytes32",
          "name": "_data",
          "type": "bytes32"
        }
      ],
      "name": "NotifiedLayerZero",
      "type": "event"
    },
    {
      "anonymous": false,
      "inputs": [
        {
          "indexed": false,
          "internalType": "uint16",
          "name": "chainId",
          "type": "uint16"
        },
        {
          "indexed": false,
          "internalType": "uint16",
          "name": "outboundProofType",
          "type": "uint16"
        },
        {
          "indexed": false,
          "internalType": "bytes32",
          "name": "layerZeroContract",
          "type": "bytes32"
        },
        {
          "indexed": false,
          "internalType": "uint256",
          "name": "requiredBlockConfirmations",
          "type": "uint256"
        },
        {
          "indexed": false,
          "internalType": "bytes32",
          "name": "payloadHash",
          "type": "bytes32"
        },
        {
          "indexed": false,
          "internalType": "uint256",
          "name": "requestedAtBlock",
          "type": "uint256"
        }
      ],
      "name": "NotifiedOracle",
      "type": "event"
    },
    {
      "anonymous": false,
      "inputs": [
        {
          "indexed": true,
          "internalType": "bytes32",
          "name": "role",
          "type": "bytes32"
        },
        {
          "indexed": true,
          "internalType": "bytes32",
          "name": "previousAdminRole",
          "type": "bytes32"
        },
        {
          "indexed": true,
          "internalType": "bytes32",
          "name": "newAdminRole",
          "type": "bytes32"
        }
      ],
      "name": "RoleAdminChanged",
      "type": "event"
    },
    {
      "anonymous": false,
      "inputs": [
        {
          "indexed": true,
          "internalType": "bytes32",
          "name": "role",
          "type": "bytes32"
        },
        {
          "indexed": true,
          "internalType": "address",
          "name": "account",
          "type": "address"
        },
        {
          "indexed": true,
          "internalType": "address",
          "name": "sender",
          "type": "address"
        }
      ],
      "name": "RoleGranted",
      "type": "event"
    },
    {
      "anonymous": false,
      "inputs": [
        {
          "indexed": true,
          "internalType": "bytes32",
          "name": "role",
          "type": "bytes32"
        },
        {
          "indexed": true,
          "internalType": "address",
          "name": "account",
          "type": "address"
        },
        {
          "indexed": true,
          "internalType": "address",
          "name": "sender",
          "type": "address"
        }
      ],
      "name": "RoleRevoked",
      "type": "event"
    },
    {
      "anonymous": false,
      "inputs": [
        {
          "indexed": false,
          "internalType": "address",
          "name": "to",
          "type": "address"
        },
        {
          "indexed": false,
          "internalType": "uint256",
          "name": "amount",
          "type": "uint256"
        }
      ],
      "name": "Withdraw",
      "type": "event"
    },
    {
      "anonymous": false,
      "inputs": [
        {
          "indexed": false,
          "internalType": "address",
          "name": "token",
          "type": "address"
        },
        {
          "indexed": false,
          "internalType": "address",
          "name": "to",
          "type": "address"
        },
        {
          "indexed": false,
          "internalType": "uint256",
          "name": "amount",
          "type": "uint256"
        }
      ],
      "name": "WithdrawTokens",
      "type": "event"
    },
    {
      "anonymous": false,
      "inputs": [
        {
          "indexed": false,
          "internalType": "address",
          "name": "admin",
          "type": "address"
        },
        {
          "indexed": false,
          "internalType": "address",
          "name": "lz",
          "type": "address"
        }
      ],
      "name": "deployed",
      "type": "event"
    },
    {
      "stateMutability": "payable",
      "type": "fallback"
    },
    {
      "inputs": [],
      "name": "ADMIN_ROLE",
      "outputs": [
        {
          "internalType": "bytes32",
          "name": "",
          "type": "bytes32"
        }
      ],
      "stateMutability": "view",
      "type": "function"
    },
    {
      "inputs": [],
      "name": "DEFAULT_ADMIN_ROLE",
      "outputs": [
        {
          "internalType": "bytes32",
          "name": "",
          "type": "bytes32"
        }
      ],
      "stateMutability": "view",
      "type": "function"
    },
    {
      "inputs": [],
      "name": "LAYERZERO_ROLE",
      "outputs": [
        {
          "internalType": "bytes32",
          "name": "",
          "type": "bytes32"
        }
      ],
      "stateMutability": "view",
      "type": "function"
    },
    {
      "inputs": [
        {
          "internalType": "address",
          "name": "_newLayerZero",
          "type": "address"
        }
      ],
      "name": "addLayerZero",
      "outputs": [],
      "stateMutability": "nonpayable",
      "type": "function"
    },
    {
      "inputs": [
        {
          "internalType": "address",
          "name": "_token",
          "type": "address"
        },
        {
          "internalType": "address",
          "name": "_spender",
          "type": "address"
        },
        {
          "internalType": "uint256",
          "name": "_amount",
          "type": "uint256"
        }
      ],
      "name": "approveToken",
      "outputs": [],
      "stateMutability": "nonpayable",
      "type": "function"
    },
    {
      "inputs": [
        {
          "internalType": "uint16",
          "name": "",
          "type": "uint16"
        }
      ],
      "name": "chainPriceLookup",
      "outputs": [
        {
          "internalType": "uint256",
          "name": "",
          "type": "uint256"
        }
      ],
      "stateMutability": "view",
      "type": "function"
    },
    {
      "inputs": [
        {
          "internalType": "uint16",
          "name": "dstChainId",
          "type": "uint16"
        },
        {
          "internalType": "uint16",
          "name": "_outboundProofType",
          "type": "uint16"
        }
      ],
      "name": "getPrice",
      "outputs": [
        {
          "internalType": "uint256",
          "name": "priceInWei",
          "type": "uint256"
        }
      ],
      "stateMutability": "view",
      "type": "function"
    },
    {
      "inputs": [
        {
          "internalType": "bytes32",
          "name": "role",
          "type": "bytes32"
        }
      ],
      "name": "getRoleAdmin",
      "outputs": [
        {
          "internalType": "bytes32",
          "name": "",
          "type": "bytes32"
        }
      ],
      "stateMutability": "view",
      "type": "function"
    },
    {
      "inputs": [
        {
          "internalType": "bytes32",
          "name": "role",
          "type": "bytes32"
        },
        {
          "internalType": "address",
          "name": "account",
          "type": "address"
        }
      ],
      "name": "grantRole",
      "outputs": [],
      "stateMutability": "nonpayable",
      "type": "function"
    },
    {
      "inputs": [
        {
          "internalType": "bytes32",
          "name": "role",
          "type": "bytes32"
        },
        {
          "internalType": "address",
          "name": "account",
          "type": "address"
        }
      ],
      "name": "hasRole",
      "outputs": [
        {
          "internalType": "bool",
          "name": "",
          "type": "bool"
        }
      ],
      "stateMutability": "view",
      "type": "function"
    },
    {
      "inputs": [
        {
          "internalType": "address",
          "name": "oracleAddress",
          "type": "address"
        }
      ],
      "name": "isApproved",
      "outputs": [
        {
          "internalType": "bool",
          "name": "approved",
          "type": "bool"
        }
      ],
      "stateMutability": "view",
      "type": "function"
    },
    {
      "inputs": [
        {
          "internalType": "uint16",
          "name": "_dstChainId",
          "type": "uint16"
        },
        {
          "internalType": "uint16",
          "name": "_outboundProofType",
          "type": "uint16"
        },
        {
          "internalType": "bytes32",
          "name": "_remoteUlnAddress",
          "type": "bytes32"
        },
        {
          "internalType": "uint64",
          "name": "_outboundBlockConfirmations",
          "type": "uint64"
        },
        {
          "internalType": "bytes32",
          "name": "_payloadHash",
          "type": "bytes32"
        }
      ],
      "name": "notifyOracle",
      "outputs": [],
      "stateMutability": "nonpayable",
      "type": "function"
    },
    {
      "inputs": [
        {
          "internalType": "bytes32",
          "name": "role",
          "type": "bytes32"
        },
        {
          "internalType": "address",
          "name": "account",
          "type": "address"
        }
      ],
      "name": "renounceRole",
      "outputs": [],
      "stateMutability": "nonpayable",
      "type": "function"
    },
    {
      "inputs": [
        {
          "internalType": "address",
          "name": "_newLayerZero",
          "type": "address"
        }
      ],
      "name": "revokeLayerZero",
      "outputs": [],
      "stateMutability": "nonpayable",
      "type": "function"
    },
    {
      "inputs": [
        {
          "internalType": "bytes32",
          "name": "role",
          "type": "bytes32"
        },
        {
          "internalType": "address",
          "name": "account",
          "type": "address"
        }
      ],
      "name": "revokeRole",
      "outputs": [],
      "stateMutability": "nonpayable",
      "type": "function"
    },
    {
      "inputs": [
        {
          "internalType": "uint16",
          "name": "_destinationChainId",
          "type": "uint16"
        },
        {
          "internalType": "uint256",
          "name": "price",
          "type": "uint256"
        }
      ],
      "name": "setPrice",
      "outputs": [],
      "stateMutability": "nonpayable",
      "type": "function"
    },
    {
      "inputs": [
        {
          "internalType": "bytes4",
          "name": "interfaceId",
          "type": "bytes4"
        }
      ],
      "name": "supportsInterface",
      "outputs": [
        {
          "internalType": "bool",
          "name": "",
          "type": "bool"
        }
      ],
      "stateMutability": "view",
      "type": "function"
    },
    {
      "inputs": [],
      "name": "ultraLightNode",
      "outputs": [
        {
          "internalType": "address",
          "name": "",
          "type": "address"
        }
      ],
      "stateMutability": "view",
      "type": "function"
    },
    {
      "inputs": [
        {
          "internalType": "uint16",
          "name": "_srcChainId",
          "type": "uint16"
        },
        {
          "internalType": "bytes32",
          "name": "_blockHash",
          "type": "bytes32"
        },
        {
          "internalType": "uint256",
          "name": "_confirmations",
          "type": "uint256"
        },
        {
          "internalType": "bytes32",
          "name": "_data",
          "type": "bytes32"
        }
      ],
      "name": "updateHash",
      "outputs": [],
      "stateMutability": "nonpayable",
      "type": "function"
    },
    {
      "inputs": [
        {
          "internalType": "address payable",
          "name": "_to",
          "type": "address"
        },
        {
          "internalType": "uint256",
          "name": "_amount",
          "type": "uint256"
        }
      ],
      "name": "withdraw",
      "outputs": [],
      "stateMutability": "nonpayable",
      "type": "function"
    },
    {
      "inputs": [
        {
          "internalType": "address",
          "name": "_remoteUlnAddress",
          "type": "address"
        },
        {
          "internalType": "uint256",
          "name": "_amount",
          "type": "uint256"
        }
      ],
      "name": "withdrawOracleFee",
      "outputs": [],
      "stateMutability": "nonpayable",
      "type": "function"
    },
    {
      "inputs": [
        {
          "internalType": "address",
          "name": "_token",
          "type": "address"
        },
        {
          "internalType": "address",
          "name": "_to",
          "type": "address"
        },
        {
          "internalType": "uint256",
          "name": "_amount",
          "type": "uint256"
        }
      ],
      "name": "withdrawTokens",
      "outputs": [],
      "stateMutability": "nonpayable",
      "type": "function"
    },
    {
      "stateMutability": "payable",
      "type": "receive"
    }
  ],
  "bytecode": "0x60a06040523480156200001157600080fd5b5060405162001933380380620019338339810160408190526200003491620001c2565b6001805562000045600084620000f5565b620000717fa49807205ce4d355092ef5a8a18f56e8913cf4a201fbe287825b095693c2177584620000f5565b6200009d7f4ecd63424fb78229a43cc7c124d427932819e322b97e5247ca85f7361247f8b383620000f5565b604080516001600160a01b038086168252841660208201527f197efba2d063c60ad7cad8b9bd432c7ff6b97d6486a1eae5754ad915f81a49e8910160405180910390a16001600160a01b0316608052506200020c9050565b62000101828262000105565b5050565b6000828152602081815260408083206001600160a01b038516845290915290205460ff1662000101576000828152602081815260408083206001600160a01b03851684529091529020805460ff19166001179055620001613390565b6001600160a01b0316816001600160a01b0316837f2f8788117e7eff1d82e926ec794901d17c78024a50270940304540a733656f0d60405160405180910390a45050565b80516001600160a01b0381168114620001bd57600080fd5b919050565b600080600060608486031215620001d857600080fd5b620001e384620001a5565b9250620001f360208501620001a5565b91506200020360408501620001a5565b90509250925092565b6080516116fd62000236600039600081816104980152818161076401526107d401526116fd6000f3fe6080604052600436106101615760003560e01c806380620313116100bf578063bbc2986c11610079578063e024e35211610056578063e024e35214610466578063ebb0496f14610486578063f3fef3a3146104d257005b8063bbc2986c14610406578063d547741f14610426578063da3e33971461044657005b806391d14854116100a757806391d148541461038d57806392f08532146103d1578063a217fddf146103f157005b806380620313146103405780638be3b12d1461036057005b806336568abe1161011b578063704316e5116100f8578063704316e5146102b8578063716db954146102d857806375b238fc1461030c57005b806336568abe1461024f5780635e35359e1461026f578063673448dd1461028f57005b8063248a9ca311610149578063248a9ca3146101df5780632cf5f2c21461020f5780632f2ff15d1461022f57005b806301ffc9a71461016a5780630b4d51071461019f57005b3661016857005b005b34801561017657600080fd5b5061018a6101853660046112f9565b6104f2565b60405190151581526020015b60405180910390f35b3480156101ab57600080fd5b506101d16101ba36600461133a565b5061ffff1660009081526002602052604090205490565b604051908152602001610196565b3480156101eb57600080fd5b506101d16101fa36600461136d565b60009081526020819052604090206001015490565b34801561021b57600080fd5b5061016861022a366004611386565b610529565b34801561023b57600080fd5b5061016861024a3660046113ff565b6105bf565b34801561025b57600080fd5b5061016861026a3660046113ff565b6105ea565b34801561027b57600080fd5b5061016861028a36600461142f565b61067b565b34801561029b57600080fd5b5061018a6102aa366004611470565b6001600160a01b0316301490565b3480156102c457600080fd5b506101686102d336600461148d565b61070b565b3480156102e457600080fd5b506101d17f4ecd63424fb78229a43cc7c124d427932819e322b97e5247ca85f7361247f8b381565b34801561031857600080fd5b506101d17fa49807205ce4d355092ef5a8a18f56e8913cf4a201fbe287825b095693c2177581565b34801561034c57600080fd5b5061016861035b366004611470565b61084b565b34801561036c57600080fd5b506101d161037b3660046114c6565b60026020526000908152604090205481565b34801561039957600080fd5b5061018a6103a83660046113ff565b6000918252602082815260408084206001600160a01b0393909316845291905290205460ff1690565b3480156103dd57600080fd5b506101686103ec366004611470565b610878565b3480156103fd57600080fd5b506101d1600081565b34801561041257600080fd5b506101686104213660046114e1565b6108a2565b34801561043257600080fd5b506101686104413660046113ff565b6108e5565b34801561045257600080fd5b5061016861046136600461142f565b61090b565b34801561047257600080fd5b5061016861048136600461150b565b6109a4565b34801561049257600080fd5b506104ba7f000000000000000000000000000000000000000000000000000000000000000081565b6040516001600160a01b039091168152602001610196565b3480156104de57600080fd5b506101686104ed36600461150b565b610a34565b60006001600160e01b03198216637965db0b60e01b148061052357506301ffc9a760e01b6001600160e01b03198316145b92915050565b7f4ecd63424fb78229a43cc7c124d427932819e322b97e5247ca85f7361247f8b36105548133610ba6565b6040805161ffff80891682528716602082015290810185905267ffffffffffffffff84166060820152608081018390524360a08201527f2773d74db0f2cc8a130abe5e81a2afa4071a1410071f1687f9bbcf0aadc03c599060c00160405180910390a1505050505050565b6000828152602081905260409020600101546105db8133610ba6565b6105e58383610c24565b505050565b6001600160a01b038116331461066d5760405162461bcd60e51b815260206004820152602f60248201527f416363657373436f6e74726f6c3a2063616e206f6e6c792072656e6f756e636560448201527f20726f6c657320666f722073656c66000000000000000000000000000000000060648201526084015b60405180910390fd5b6106778282610cc2565b5050565b7fa49807205ce4d355092ef5a8a18f56e8913cf4a201fbe287825b095693c217756106a68133610ba6565b6106ba6001600160a01b0385168484610d41565b604080516001600160a01b038087168252851660208201529081018390527f70082d08c003c5341f2401bec1c2ae1dbcdc29ae17e9cc5633fa617caa8acd4c9060600160405180910390a150505050565b7fa49807205ce4d355092ef5a8a18f56e8913cf4a201fbe287825b095693c217756107368133610ba6565b60405163704316e560e01b815261ffff861660048201526024810185905260448101849052606481018390527f00000000000000000000000000000000000000000000000000000000000000006001600160a01b03169063704316e590608401600060405180830381600087803b1580156107b057600080fd5b505af11580156107c4573d6000803e3d6000fd5b5050604080516001600160a01b037f000000000000000000000000000000000000000000000000000000000000000016815261ffff8916602082015290810187905260608101869052608081018590527fd4c6c55530bbc304f670490abc86c71c484a578b13fe92b635443d5bd19947d9925060a001905060405180910390a15050505050565b6108757f4ecd63424fb78229a43cc7c124d427932819e322b97e5247ca85f7361247f8b3826108e5565b50565b6108757f4ecd63424fb78229a43cc7c124d427932819e322b97e5247ca85f7361247f8b3826105bf565b7fa49807205ce4d355092ef5a8a18f56e8913cf4a201fbe287825b095693c217756108cd8133610ba6565b5061ffff909116600090815260026020526040902055565b6000828152602081905260409020600101546109018133610ba6565b6105e58383610cc2565b3360009081527f7d7ffb7a348e1c6a02869081a26547b49160dd3df72d1d75a570eb9b698292ec602052604090205460ff166109895760405162461bcd60e51b815260206004820152600a60248201527f41646d696e206f6e6c79000000000000000000000000000000000000000000006044820152606401610664565b8261099e6001600160a01b0382168484610db9565b50505050565b7fa49807205ce4d355092ef5a8a18f56e8913cf4a201fbe287825b095693c217756109cf8133610ba6565b60405163701271a960e11b8152336004820152602481018390526001600160a01b0384169063e024e35290604401600060405180830381600087803b158015610a1757600080fd5b505af1158015610a2b573d6000803e3d6000fd5b50505050505050565b60026001541415610a875760405162461bcd60e51b815260206004820152601f60248201527f5265656e7472616e637947756172643a207265656e7472616e742063616c6c006044820152606401610664565b60026001557fa49807205ce4d355092ef5a8a18f56e8913cf4a201fbe287825b095693c21775610ab78133610ba6565b6000836001600160a01b03168360405160006040518083038185875af1925050503d8060008114610b04576040519150601f19603f3d011682016040523d82523d6000602084013e610b09565b606091505b5050905080610b5a5760405162461bcd60e51b815260206004820181905260248201527f4f7261636c65436c69656e743a206661696c656420746f2077697468647261776044820152606401610664565b604080516001600160a01b0386168152602081018590527f884edad9ce6fa2440d8a54cc123490eb96d2768479d49ff9c7366125a9424364910160405180910390a15050600180555050565b6000828152602081815260408083206001600160a01b038516845290915290205460ff1661067757610be2816001600160a01b03166014610ed5565b610bed836020610ed5565b604051602001610bfe929190611555565b60408051601f198184030181529082905262461bcd60e51b8252610664916004016115d6565b6000828152602081815260408083206001600160a01b038516845290915290205460ff16610677576000828152602081815260408083206001600160a01b03851684529091529020805460ff19166001179055610c7e3390565b6001600160a01b0316816001600160a01b0316837f2f8788117e7eff1d82e926ec794901d17c78024a50270940304540a733656f0d60405160405180910390a45050565b6000828152602081815260408083206001600160a01b038516845290915290205460ff1615610677576000828152602081815260408083206001600160a01b0385168085529252808320805460ff1916905551339285917ff6391f5c32d9c69d2a47ea670b442974b53935d1edc7fd64eb21e047a839171b9190a45050565b6040516001600160a01b0383166024820152604481018290526105e590849063a9059cbb60e01b906064015b60408051601f198184030181529190526020810180517bffffffffffffffffffffffffffffffffffffffffffffffffffffffff166001600160e01b031990931692909217909152611085565b801580610e335750604051636eb1769f60e11b81523060048201526001600160a01b03838116602483015284169063dd62ed3e90604401602060405180830381865afa158015610e0d573d6000803e3d6000fd5b505050506040513d601f19601f82011682018060405250810190610e319190611609565b155b610ea55760405162461bcd60e51b815260206004820152603660248201527f5361666545524332303a20617070726f76652066726f6d206e6f6e2d7a65726f60448201527f20746f206e6f6e2d7a65726f20616c6c6f77616e6365000000000000000000006064820152608401610664565b6040516001600160a01b0383166024820152604481018290526105e590849063095ea7b360e01b90606401610d6d565b60606000610ee4836002611638565b610eef906002611657565b67ffffffffffffffff811115610f0757610f0761166f565b6040519080825280601f01601f191660200182016040528015610f31576020820181803683370190505b509050600360fc1b81600081518110610f4c57610f4c611685565b60200101906001600160f81b031916908160001a905350600f60fb1b81600181518110610f7b57610f7b611685565b60200101906001600160f81b031916908160001a9053506000610f9f846002611638565b610faa906001611657565b90505b600181111561102f577f303132333435363738396162636465660000000000000000000000000000000085600f1660108110610feb57610feb611685565b1a60f81b82828151811061100157611001611685565b60200101906001600160f81b031916908160001a90535060049490941c936110288161169b565b9050610fad565b50831561107e5760405162461bcd60e51b815260206004820181905260248201527f537472696e67733a20686578206c656e67746820696e73756666696369656e746044820152606401610664565b9392505050565b60006110da826040518060400160405280602081526020017f5361666545524332303a206c6f772d6c6576656c2063616c6c206661696c6564815250856001600160a01b031661116a9092919063ffffffff16565b8051909150156105e557808060200190518101906110f891906116b2565b6105e55760405162461bcd60e51b815260206004820152602a60248201527f5361666545524332303a204552433230206f7065726174696f6e20646964206e60448201527f6f742073756363656564000000000000000000000000000000000000000000006064820152608401610664565b60606111798484600085611181565b949350505050565b6060824710156111f95760405162461bcd60e51b815260206004820152602660248201527f416464726573733a20696e73756666696369656e742062616c616e636520666f60448201527f722063616c6c00000000000000000000000000000000000000000000000000006064820152608401610664565b843b6112475760405162461bcd60e51b815260206004820152601d60248201527f416464726573733a2063616c6c20746f206e6f6e2d636f6e74726163740000006044820152606401610664565b600080866001600160a01b0316858760405161126391906116d4565b60006040518083038185875af1925050503d80600081146112a0576040519150601f19603f3d011682016040523d82523d6000602084013e6112a5565b606091505b50915091506112b58282866112c0565b979650505050505050565b606083156112cf57508161107e565b8251156112df5782518084602001fd5b8160405162461bcd60e51b815260040161066491906115d6565b60006020828403121561130b57600080fd5b81356001600160e01b03198116811461107e57600080fd5b803561ffff8116811461133557600080fd5b919050565b6000806040838503121561134d57600080fd5b61135683611323565b915061136460208401611323565b90509250929050565b60006020828403121561137f57600080fd5b5035919050565b600080600080600060a0868803121561139e57600080fd5b6113a786611323565b94506113b560208701611323565b935060408601359250606086013567ffffffffffffffff811681146113d957600080fd5b949793965091946080013592915050565b6001600160a01b038116811461087557600080fd5b6000806040838503121561141257600080fd5b823591506020830135611424816113ea565b809150509250929050565b60008060006060848603121561144457600080fd5b833561144f816113ea565b9250602084013561145f816113ea565b929592945050506040919091013590565b60006020828403121561148257600080fd5b813561107e816113ea565b600080600080608085870312156114a357600080fd5b6114ac85611323565b966020860135965060408601359560600135945092505050565b6000602082840312156114d857600080fd5b61107e82611323565b600080604083850312156114f457600080fd5b6114fd83611323565b946020939093013593505050565b6000806040838503121561151e57600080fd5b82356114fd816113ea565b60005b8381101561154457818101518382015260200161152c565b8381111561099e5750506000910152565b7f416363657373436f6e74726f6c3a206163636f756e742000000000000000000081526000835161158d816017850160208801611529565b7f206973206d697373696e6720726f6c652000000000000000000000000000000060179184019182015283516115ca816028840160208801611529565b01602801949350505050565b60208152600082518060208401526115f5816040850160208701611529565b601f01601f19169190910160400192915050565b60006020828403121561161b57600080fd5b5051919050565b634e487b7160e01b600052601160045260246000fd5b600081600019048311821515161561165257611652611622565b500290565b6000821982111561166a5761166a611622565b500190565b634e487b7160e01b600052604160045260246000fd5b634e487b7160e01b600052603260045260246000fd5b6000816116aa576116aa611622565b506000190190565b6000602082840312156116c457600080fd5b8151801515811461107e57600080fd5b600082516116e6818460208701611529565b919091019291505056fea164736f6c634300080a000a",
  "linkReferences": {},
  "deployedLinkReferences": {}
}