{
  "_format": "hh-sol-artifact-1",
  "contractName": "FluxLayerZeroOracle",
  "sourceName": "contracts/FluxLayerZeroOracle.sol",
  "abi": [
    {
      "inputs": [
        {
          "internalType": "address",
          "name": "_admin",
          "type": "address"
        },
        {
          "internalType": "address",
          "name": "_layerZero",
          "type": "address"
        }
      ],
      "stateMutability": "nonpayable",
      "type": "constructor"
    },
    {
      "anonymous": false,
      "inputs": [
        {
          "indexed": false,
          "internalType": "address",
          "name": "dstNetworkAddress",
          "type": "address"
        },
        {
          "indexed": false,
          "internalType": "uint16",
          "name": "_srcChainId",
          "type": "uint16"
        },
        {
          "indexed": false,
          "internalType": "bytes",
          "name": "_blockHash",
          "type": "bytes"
        },
        {
          "indexed": false,
          "internalType": "uint256",
          "name": "_confirmations",
          "type": "uint256"
        },
        {
          "indexed": false,
          "internalType": "bytes",
          "name": "_data",
          "type": "bytes"
        }
      ],
      "name": "Notified",
      "type": "event"
    },
    {
      "anonymous": false,
      "inputs": [
        {
          "indexed": false,
          "internalType": "uint16",
          "name": "chainId",
          "type": "uint16"
        },
        {
          "indexed": false,
          "internalType": "bytes",
          "name": "layerZeroContract",
          "type": "bytes"
        },
        {
          "indexed": false,
          "internalType": "uint256",
          "name": "requiredBlockConfirmations",
          "type": "uint256"
        },
        {
          "indexed": false,
          "internalType": "bytes32",
          "name": "payloadHash",
          "type": "bytes32"
        },
        {
          "indexed": false,
          "internalType": "uint256",
          "name": "requestedAtBlock",
          "type": "uint256"
        }
      ],
      "name": "NotifyOracleOfBlock",
      "type": "event"
    },
    {
      "anonymous": false,
      "inputs": [
        {
          "indexed": true,
          "internalType": "bytes32",
          "name": "role",
          "type": "bytes32"
        },
        {
          "indexed": true,
          "internalType": "bytes32",
          "name": "previousAdminRole",
          "type": "bytes32"
        },
        {
          "indexed": true,
          "internalType": "bytes32",
          "name": "newAdminRole",
          "type": "bytes32"
        }
      ],
      "name": "RoleAdminChanged",
      "type": "event"
    },
    {
      "anonymous": false,
      "inputs": [
        {
          "indexed": true,
          "internalType": "bytes32",
          "name": "role",
          "type": "bytes32"
        },
        {
          "indexed": true,
          "internalType": "address",
          "name": "account",
          "type": "address"
        },
        {
          "indexed": true,
          "internalType": "address",
          "name": "sender",
          "type": "address"
        }
      ],
      "name": "RoleGranted",
      "type": "event"
    },
    {
      "anonymous": false,
      "inputs": [
        {
          "indexed": true,
          "internalType": "bytes32",
          "name": "role",
          "type": "bytes32"
        },
        {
          "indexed": true,
          "internalType": "address",
          "name": "account",
          "type": "address"
        },
        {
          "indexed": true,
          "internalType": "address",
          "name": "sender",
          "type": "address"
        }
      ],
      "name": "RoleRevoked",
      "type": "event"
    },
    {
      "anonymous": false,
      "inputs": [
        {
          "indexed": false,
          "internalType": "address",
          "name": "to",
          "type": "address"
        },
        {
          "indexed": false,
          "internalType": "uint256",
          "name": "amount",
          "type": "uint256"
        }
      ],
      "name": "Withdraw",
      "type": "event"
    },
    {
      "anonymous": false,
      "inputs": [
        {
          "indexed": false,
          "internalType": "address",
          "name": "token",
          "type": "address"
        },
        {
          "indexed": false,
          "internalType": "address",
          "name": "to",
          "type": "address"
        },
        {
          "indexed": false,
          "internalType": "uint256",
          "name": "amount",
          "type": "uint256"
        }
      ],
      "name": "WithdrawTokens",
      "type": "event"
    },
    {
      "stateMutability": "payable",
      "type": "fallback"
    },
    {
      "inputs": [],
      "name": "ADMIN_ROLE",
      "outputs": [
        {
          "internalType": "bytes32",
          "name": "",
          "type": "bytes32"
        }
      ],
      "stateMutability": "view",
      "type": "function"
    },
    {
      "inputs": [],
      "name": "DEFAULT_ADMIN_ROLE",
      "outputs": [
        {
          "internalType": "bytes32",
          "name": "",
          "type": "bytes32"
        }
      ],
      "stateMutability": "view",
      "type": "function"
    },
    {
      "inputs": [],
      "name": "LAYERZERO_ROLE",
      "outputs": [
        {
          "internalType": "bytes32",
          "name": "",
          "type": "bytes32"
        }
      ],
      "stateMutability": "view",
      "type": "function"
    },
    {
      "inputs": [
        {
          "internalType": "address",
          "name": "_token",
          "type": "address"
        },
        {
          "internalType": "address",
          "name": "_spender",
          "type": "address"
        },
        {
          "internalType": "uint256",
          "name": "_amount",
          "type": "uint256"
        }
      ],
      "name": "approveToken",
      "outputs": [],
      "stateMutability": "nonpayable",
      "type": "function"
    },
    {
      "inputs": [
        {
          "internalType": "uint16",
          "name": "",
          "type": "uint16"
        }
      ],
      "name": "chainPriceLookup",
      "outputs": [
        {
          "internalType": "uint256",
          "name": "",
          "type": "uint256"
        }
      ],
      "stateMutability": "view",
      "type": "function"
    },
    {
      "inputs": [
        {
          "internalType": "uint16",
          "name": "dstChainId",
          "type": "uint16"
        }
      ],
      "name": "getPrice",
      "outputs": [
        {
          "internalType": "uint256",
          "name": "priceInWei",
          "type": "uint256"
        }
      ],
      "stateMutability": "view",
      "type": "function"
    },
    {
      "inputs": [
        {
          "internalType": "bytes32",
          "name": "role",
          "type": "bytes32"
        }
      ],
      "name": "getRoleAdmin",
      "outputs": [
        {
          "internalType": "bytes32",
          "name": "",
          "type": "bytes32"
        }
      ],
      "stateMutability": "view",
      "type": "function"
    },
    {
      "inputs": [
        {
          "internalType": "bytes32",
          "name": "role",
          "type": "bytes32"
        },
        {
          "internalType": "address",
          "name": "account",
          "type": "address"
        }
      ],
      "name": "grantRole",
      "outputs": [],
      "stateMutability": "nonpayable",
      "type": "function"
    },
    {
      "inputs": [
        {
          "internalType": "bytes32",
          "name": "role",
          "type": "bytes32"
        },
        {
          "internalType": "address",
          "name": "account",
          "type": "address"
        }
      ],
      "name": "hasRole",
      "outputs": [
        {
          "internalType": "bool",
          "name": "",
          "type": "bool"
        }
      ],
      "stateMutability": "view",
      "type": "function"
    },
    {
      "inputs": [
        {
          "internalType": "address",
          "name": "oracleAddress",
          "type": "address"
        }
      ],
      "name": "isApproved",
      "outputs": [
        {
          "internalType": "bool",
          "name": "approved",
          "type": "bool"
        }
      ],
      "stateMutability": "view",
      "type": "function"
    },
    {
      "inputs": [
        {
          "internalType": "uint16",
          "name": "chainId",
          "type": "uint16"
        },
        {
          "internalType": "bytes",
          "name": "networkAddress",
          "type": "bytes"
        },
        {
          "internalType": "uint256",
          "name": "blockConfirmations",
          "type": "uint256"
        },
        {
          "internalType": "bytes32",
          "name": "payloadHash",
          "type": "bytes32"
        }
      ],
      "name": "notifyOracleOfBlock",
      "outputs": [],
      "stateMutability": "nonpayable",
      "type": "function"
    },
    {
      "inputs": [
        {
          "internalType": "address",
          "name": "dstNetworkAddress",
          "type": "address"
        },
        {
          "internalType": "uint16",
          "name": "_srcChainId",
          "type": "uint16"
        },
        {
          "internalType": "bytes",
          "name": "_blockHash",
          "type": "bytes"
        },
        {
          "internalType": "uint256",
          "name": "_confirmations",
          "type": "uint256"
        },
        {
          "internalType": "bytes",
          "name": "_data",
          "type": "bytes"
        }
      ],
      "name": "proceedUpdateBlockHeader",
      "outputs": [],
      "stateMutability": "nonpayable",
      "type": "function"
    },
    {
      "inputs": [
        {
          "internalType": "bytes32",
          "name": "role",
          "type": "bytes32"
        },
        {
          "internalType": "address",
          "name": "account",
          "type": "address"
        }
      ],
      "name": "renounceRole",
      "outputs": [],
      "stateMutability": "nonpayable",
      "type": "function"
    },
    {
      "inputs": [
        {
          "internalType": "bytes32",
          "name": "role",
          "type": "bytes32"
        },
        {
          "internalType": "address",
          "name": "account",
          "type": "address"
        }
      ],
      "name": "revokeRole",
      "outputs": [],
      "stateMutability": "nonpayable",
      "type": "function"
    },
    {
      "inputs": [
        {
          "internalType": "uint16",
          "name": "_destinationChainId",
          "type": "uint16"
        },
        {
          "internalType": "uint256",
          "name": "price",
          "type": "uint256"
        }
      ],
      "name": "setPrice",
      "outputs": [],
      "stateMutability": "nonpayable",
      "type": "function"
    },
    {
      "inputs": [
        {
          "internalType": "bytes4",
          "name": "interfaceId",
          "type": "bytes4"
        }
      ],
      "name": "supportsInterface",
      "outputs": [
        {
          "internalType": "bool",
          "name": "",
          "type": "bool"
        }
      ],
      "stateMutability": "view",
      "type": "function"
    },
    {
      "inputs": [
        {
          "internalType": "address payable",
          "name": "_to",
          "type": "address"
        },
        {
          "internalType": "uint256",
          "name": "_amount",
          "type": "uint256"
        }
      ],
      "name": "withdraw",
      "outputs": [],
      "stateMutability": "nonpayable",
      "type": "function"
    },
    {
      "inputs": [
        {
          "internalType": "address",
          "name": "_token",
          "type": "address"
        },
        {
          "internalType": "address",
          "name": "_to",
          "type": "address"
        },
        {
          "internalType": "uint256",
          "name": "_amount",
          "type": "uint256"
        }
      ],
      "name": "withdrawTokens",
      "outputs": [],
      "stateMutability": "nonpayable",
      "type": "function"
    },
    {
      "stateMutability": "payable",
      "type": "receive"
    }
  ],
  "bytecode": "0x60806040523480156200001157600080fd5b506040516200180638038062001806833981016040819052620000349162000165565b60018055620000647fa49807205ce4d355092ef5a8a18f56e8913cf4a201fbe287825b095693c217758362000098565b620000907f4ecd63424fb78229a43cc7c124d427932819e322b97e5247ca85f7361247f8b38262000098565b50506200019d565b620000a48282620000a8565b5050565b6000828152602081815260408083206001600160a01b038516845290915290205460ff16620000a4576000828152602081815260408083206001600160a01b03851684529091529020805460ff19166001179055620001043390565b6001600160a01b0316816001600160a01b0316837f2f8788117e7eff1d82e926ec794901d17c78024a50270940304540a733656f0d60405160405180910390a45050565b80516001600160a01b03811681146200016057600080fd5b919050565b600080604083850312156200017957600080fd5b620001848362000148565b9150620001946020840162000148565b90509250929050565b61165980620001ad6000396000f3fe60806040526004361061011b5760003560e01c806391d148541161009c578063bbc2986c1161006e578063da3e339711610056578063da3e33971461038e578063e0ad121a146103ae578063f3fef3a3146103df57005b8063bbc2986c1461034e578063d547741f1461036e57005b806391d14854146102b557806399f146ed146102f95780639e69b05414610319578063a217fddf1461033957005b80635e35359e116100ed578063716db954116100d5578063716db9541461022057806375b238fc146102545780638be3b12d1461028857005b80635e35359e146101d7578063673448dd146101f757005b806301ffc9a714610124578063248a9ca3146101595780632f2ff15d1461019757806336568abe146101b757005b3661012257005b005b34801561013057600080fd5b5061014461013f3660046110f1565b6103ff565b60405190151581526020015b60405180910390f35b34801561016557600080fd5b5061018961017436600461111b565b60009081526020819052604090206001015490565b604051908152602001610150565b3480156101a357600080fd5b506101226101b236600461114c565b610436565b3480156101c357600080fd5b506101226101d236600461114c565b610461565b3480156101e357600080fd5b506101226101f236600461117c565b6104f2565b34801561020357600080fd5b506101446102123660046111bd565b6001600160a01b0316301490565b34801561022c57600080fd5b506101897f4ecd63424fb78229a43cc7c124d427932819e322b97e5247ca85f7361247f8b381565b34801561026057600080fd5b506101897fa49807205ce4d355092ef5a8a18f56e8913cf4a201fbe287825b095693c2177581565b34801561029457600080fd5b506101896102a33660046111f1565b60026020526000908152604090205481565b3480156102c157600080fd5b506101446102d036600461114c565b6000918252602082815260408084206001600160a01b0393909316845291905290205460ff1690565b34801561030557600080fd5b50610122610314366004611255565b6105c1565b34801561032557600080fd5b506101226103343660046112ba565b610609565b34801561034557600080fd5b50610189600081565b34801561035a57600080fd5b50610122610369366004611357565b6106bf565b34801561037a57600080fd5b5061012261038936600461114c565b610741565b34801561039a57600080fd5b506101226103a936600461117c565b610767565b3480156103ba57600080fd5b506101896103c93660046111f1565b61ffff1660009081526002602052604090205490565b3480156103eb57600080fd5b506101226103fa366004611381565b6107ed565b60006001600160e01b03198216637965db0b60e01b148061043057506301ffc9a760e01b6001600160e01b03198316145b92915050565b600082815260208190526040902060010154610452813361099e565b61045c8383610a1c565b505050565b6001600160a01b03811633146104e45760405162461bcd60e51b815260206004820152602f60248201527f416363657373436f6e74726f6c3a2063616e206f6e6c792072656e6f756e636560448201527f20726f6c657320666f722073656c66000000000000000000000000000000000060648201526084015b60405180910390fd5b6104ee8282610aba565b5050565b3360009081527f7d7ffb7a348e1c6a02869081a26547b49160dd3df72d1d75a570eb9b698292ec602052604090205460ff1661055d5760405162461bcd60e51b815260206004820152600a60248201526941646d696e206f6e6c7960b01b60448201526064016104db565b6105716001600160a01b0384168383610b39565b604080516001600160a01b038086168252841660208201529081018290527f70082d08c003c5341f2401bec1c2ae1dbcdc29ae17e9cc5633fa617caa8acd4c9060600160405180910390a1505050565b7f8fa5a75bda7b4f4a79128d51120354823f206157b8ab1c36b8b439c2a40ea45e8585858585436040516105fa969594939291906113c8565b60405180910390a15050505050565b6040516328f4b55f60e11b81526001600160a01b038816906351e96abe9061064190899030908a908a908a908a908a90600401611404565b600060405180830381600087803b15801561065b57600080fd5b505af115801561066f573d6000803e3d6000fd5b505050507f355b2847c7ebc3c449e79e3afedbb262d7ac7c9eaeb9ea331500e94c176ab29f878787878787876040516106ae9796959493929190611458565b60405180910390a150505050505050565b3360009081527f7d7ffb7a348e1c6a02869081a26547b49160dd3df72d1d75a570eb9b698292ec602052604090205460ff1661072a5760405162461bcd60e51b815260206004820152600a60248201526941646d696e206f6e6c7960b01b60448201526064016104db565b61ffff909116600090815260026020526040902055565b60008281526020819052604090206001015461075d813361099e565b61045c8383610aba565b3360009081527f7d7ffb7a348e1c6a02869081a26547b49160dd3df72d1d75a570eb9b698292ec602052604090205460ff166107d25760405162461bcd60e51b815260206004820152600a60248201526941646d696e206f6e6c7960b01b60448201526064016104db565b826107e76001600160a01b0382168484610bb1565b50505050565b600260015414156108405760405162461bcd60e51b815260206004820152601f60248201527f5265656e7472616e637947756172643a207265656e7472616e742063616c6c0060448201526064016104db565b60026001553360009081527f7d7ffb7a348e1c6a02869081a26547b49160dd3df72d1d75a570eb9b698292ec602052604090205460ff166108b05760405162461bcd60e51b815260206004820152600a60248201526941646d696e206f6e6c7960b01b60448201526064016104db565b6000826001600160a01b03168260405160006040518083038185875af1925050503d80600081146108fd576040519150601f19603f3d011682016040523d82523d6000602084013e610902565b606091505b50509050806109535760405162461bcd60e51b815260206004820181905260248201527f4f7261636c65436c69656e743a206661696c656420746f20776974686472617760448201526064016104db565b604080516001600160a01b0385168152602081018490527f884edad9ce6fa2440d8a54cc123490eb96d2768479d49ff9c7366125a9424364910160405180910390a150506001805550565b6000828152602081815260408083206001600160a01b038516845290915290205460ff166104ee576109da816001600160a01b03166014610ccd565b6109e5836020610ccd565b6040516020016109f69291906114b1565b60408051601f198184030181529082905262461bcd60e51b82526104db91600401611532565b6000828152602081815260408083206001600160a01b038516845290915290205460ff166104ee576000828152602081815260408083206001600160a01b03851684529091529020805460ff19166001179055610a763390565b6001600160a01b0316816001600160a01b0316837f2f8788117e7eff1d82e926ec794901d17c78024a50270940304540a733656f0d60405160405180910390a45050565b6000828152602081815260408083206001600160a01b038516845290915290205460ff16156104ee576000828152602081815260408083206001600160a01b0385168085529252808320805460ff1916905551339285917ff6391f5c32d9c69d2a47ea670b442974b53935d1edc7fd64eb21e047a839171b9190a45050565b6040516001600160a01b03831660248201526044810182905261045c90849063a9059cbb60e01b906064015b60408051601f198184030181529190526020810180517bffffffffffffffffffffffffffffffffffffffffffffffffffffffff166001600160e01b031990931692909217909152610e7d565b801580610c2b5750604051636eb1769f60e11b81523060048201526001600160a01b03838116602483015284169063dd62ed3e90604401602060405180830381865afa158015610c05573d6000803e3d6000fd5b505050506040513d601f19601f82011682018060405250810190610c299190611565565b155b610c9d5760405162461bcd60e51b815260206004820152603660248201527f5361666545524332303a20617070726f76652066726f6d206e6f6e2d7a65726f60448201527f20746f206e6f6e2d7a65726f20616c6c6f77616e63650000000000000000000060648201526084016104db565b6040516001600160a01b03831660248201526044810182905261045c90849063095ea7b360e01b90606401610b65565b60606000610cdc836002611594565b610ce79060026115b3565b67ffffffffffffffff811115610cff57610cff6115cb565b6040519080825280601f01601f191660200182016040528015610d29576020820181803683370190505b509050600360fc1b81600081518110610d4457610d446115e1565b60200101906001600160f81b031916908160001a905350600f60fb1b81600181518110610d7357610d736115e1565b60200101906001600160f81b031916908160001a9053506000610d97846002611594565b610da29060016115b3565b90505b6001811115610e27577f303132333435363738396162636465660000000000000000000000000000000085600f1660108110610de357610de36115e1565b1a60f81b828281518110610df957610df96115e1565b60200101906001600160f81b031916908160001a90535060049490941c93610e20816115f7565b9050610da5565b508315610e765760405162461bcd60e51b815260206004820181905260248201527f537472696e67733a20686578206c656e67746820696e73756666696369656e7460448201526064016104db565b9392505050565b6000610ed2826040518060400160405280602081526020017f5361666545524332303a206c6f772d6c6576656c2063616c6c206661696c6564815250856001600160a01b0316610f629092919063ffffffff16565b80519091501561045c5780806020019051810190610ef0919061160e565b61045c5760405162461bcd60e51b815260206004820152602a60248201527f5361666545524332303a204552433230206f7065726174696f6e20646964206e60448201527f6f7420737563636565640000000000000000000000000000000000000000000060648201526084016104db565b6060610f718484600085610f79565b949350505050565b606082471015610ff15760405162461bcd60e51b815260206004820152602660248201527f416464726573733a20696e73756666696369656e742062616c616e636520666f60448201527f722063616c6c000000000000000000000000000000000000000000000000000060648201526084016104db565b843b61103f5760405162461bcd60e51b815260206004820152601d60248201527f416464726573733a2063616c6c20746f206e6f6e2d636f6e747261637400000060448201526064016104db565b600080866001600160a01b0316858760405161105b9190611630565b60006040518083038185875af1925050503d8060008114611098576040519150601f19603f3d011682016040523d82523d6000602084013e61109d565b606091505b50915091506110ad8282866110b8565b979650505050505050565b606083156110c7575081610e76565b8251156110d75782518084602001fd5b8160405162461bcd60e51b81526004016104db9190611532565b60006020828403121561110357600080fd5b81356001600160e01b031981168114610e7657600080fd5b60006020828403121561112d57600080fd5b5035919050565b6001600160a01b038116811461114957600080fd5b50565b6000806040838503121561115f57600080fd5b82359150602083013561117181611134565b809150509250929050565b60008060006060848603121561119157600080fd5b833561119c81611134565b925060208401356111ac81611134565b929592945050506040919091013590565b6000602082840312156111cf57600080fd5b8135610e7681611134565b803561ffff811681146111ec57600080fd5b919050565b60006020828403121561120357600080fd5b610e76826111da565b60008083601f84011261121e57600080fd5b50813567ffffffffffffffff81111561123657600080fd5b60208301915083602082850101111561124e57600080fd5b9250929050565b60008060008060006080868803121561126d57600080fd5b611276866111da565b9450602086013567ffffffffffffffff81111561129257600080fd5b61129e8882890161120c565b9699909850959660408101359660609091013595509350505050565b600080600080600080600060a0888a0312156112d557600080fd5b87356112e081611134565b96506112ee602089016111da565b9550604088013567ffffffffffffffff8082111561130b57600080fd5b6113178b838c0161120c565b909750955060608a0135945060808a013591508082111561133757600080fd5b506113448a828b0161120c565b989b979a50959850939692959293505050565b6000806040838503121561136a57600080fd5b611373836111da565b946020939093013593505050565b6000806040838503121561139457600080fd5b823561137381611134565b81835281816020850137506000828201602090810191909152601f909101601f19169091010190565b61ffff8716815260a0602082015260006113e660a08301878961139f565b60408301959095525060608101929092526080909101529392505050565b61ffff881681526001600160a01b038716602082015260a06040820152600061143160a08301878961139f565b856060840152828103608084015261144a81858761139f565b9a9950505050505050505050565b6001600160a01b038816815261ffff8716602082015260a06040820152600061143160a08301878961139f565b60005b838110156114a0578181015183820152602001611488565b838111156107e75750506000910152565b7f416363657373436f6e74726f6c3a206163636f756e74200000000000000000008152600083516114e9816017850160208801611485565b7f206973206d697373696e6720726f6c65200000000000000000000000000000006017918401918201528351611526816028840160208801611485565b01602801949350505050565b6020815260008251806020840152611551816040850160208701611485565b601f01601f19169190910160400192915050565b60006020828403121561157757600080fd5b5051919050565b634e487b7160e01b600052601160045260246000fd5b60008160001904831182151516156115ae576115ae61157e565b500290565b600082198211156115c6576115c661157e565b500190565b634e487b7160e01b600052604160045260246000fd5b634e487b7160e01b600052603260045260246000fd5b6000816116065761160661157e565b506000190190565b60006020828403121561162057600080fd5b81518015158114610e7657600080fd5b60008251611642818460208701611485565b919091019291505056fea164736f6c634300080a000a",
  "linkReferences": {},
  "deployedLinkReferences": {}
}