{
  "_format": "hh-sol-artifact-1",
  "contractName": "FluxLayerZeroOracle",
  "sourceName": "contracts/FluxLayerZeroOracle.sol",
  "abi": [
    {
      "inputs": [
        {
          "internalType": "address",
          "name": "_admin",
          "type": "address"
        },
        {
          "internalType": "address",
          "name": "_layerZero",
          "type": "address"
        }
      ],
      "stateMutability": "nonpayable",
      "type": "constructor"
    },
    {
      "anonymous": false,
      "inputs": [
        {
          "indexed": false,
          "internalType": "address",
          "name": "dstNetworkAddress",
          "type": "address"
        },
        {
          "indexed": false,
          "internalType": "uint16",
          "name": "_srcChainId",
          "type": "uint16"
        },
        {
          "indexed": false,
          "internalType": "bytes32",
          "name": "_blockHash",
          "type": "bytes32"
        },
        {
          "indexed": false,
          "internalType": "uint256",
          "name": "_confirmations",
          "type": "uint256"
        },
        {
          "indexed": false,
          "internalType": "bytes32",
          "name": "_data",
          "type": "bytes32"
        }
      ],
      "name": "NotifiedLayerZero",
      "type": "event"
    },
    {
      "anonymous": false,
      "inputs": [
        {
          "indexed": false,
          "internalType": "uint16",
          "name": "chainId",
          "type": "uint16"
        },
        {
          "indexed": false,
          "internalType": "uint16",
          "name": "outboundProofType",
          "type": "uint16"
        },
        {
          "indexed": false,
          "internalType": "bytes32",
          "name": "layerZeroContract",
          "type": "bytes32"
        },
        {
          "indexed": false,
          "internalType": "uint256",
          "name": "requiredBlockConfirmations",
          "type": "uint256"
        },
        {
          "indexed": false,
          "internalType": "bytes32",
          "name": "payloadHash",
          "type": "bytes32"
        },
        {
          "indexed": false,
          "internalType": "uint256",
          "name": "requestedAtBlock",
          "type": "uint256"
        }
      ],
      "name": "NotifiedOracle",
      "type": "event"
    },
    {
      "anonymous": false,
      "inputs": [
        {
          "indexed": true,
          "internalType": "bytes32",
          "name": "role",
          "type": "bytes32"
        },
        {
          "indexed": true,
          "internalType": "bytes32",
          "name": "previousAdminRole",
          "type": "bytes32"
        },
        {
          "indexed": true,
          "internalType": "bytes32",
          "name": "newAdminRole",
          "type": "bytes32"
        }
      ],
      "name": "RoleAdminChanged",
      "type": "event"
    },
    {
      "anonymous": false,
      "inputs": [
        {
          "indexed": true,
          "internalType": "bytes32",
          "name": "role",
          "type": "bytes32"
        },
        {
          "indexed": true,
          "internalType": "address",
          "name": "account",
          "type": "address"
        },
        {
          "indexed": true,
          "internalType": "address",
          "name": "sender",
          "type": "address"
        }
      ],
      "name": "RoleGranted",
      "type": "event"
    },
    {
      "anonymous": false,
      "inputs": [
        {
          "indexed": true,
          "internalType": "bytes32",
          "name": "role",
          "type": "bytes32"
        },
        {
          "indexed": true,
          "internalType": "address",
          "name": "account",
          "type": "address"
        },
        {
          "indexed": true,
          "internalType": "address",
          "name": "sender",
          "type": "address"
        }
      ],
      "name": "RoleRevoked",
      "type": "event"
    },
    {
      "anonymous": false,
      "inputs": [
        {
          "indexed": false,
          "internalType": "address",
          "name": "to",
          "type": "address"
        },
        {
          "indexed": false,
          "internalType": "uint256",
          "name": "amount",
          "type": "uint256"
        }
      ],
      "name": "Withdraw",
      "type": "event"
    },
    {
      "anonymous": false,
      "inputs": [
        {
          "indexed": false,
          "internalType": "address",
          "name": "token",
          "type": "address"
        },
        {
          "indexed": false,
          "internalType": "address",
          "name": "to",
          "type": "address"
        },
        {
          "indexed": false,
          "internalType": "uint256",
          "name": "amount",
          "type": "uint256"
        }
      ],
      "name": "WithdrawTokens",
      "type": "event"
    },
    {
      "anonymous": false,
      "inputs": [
        {
          "indexed": false,
          "internalType": "address",
          "name": "admin",
          "type": "address"
        },
        {
          "indexed": false,
          "internalType": "address",
          "name": "lz",
          "type": "address"
        }
      ],
      "name": "deployed",
      "type": "event"
    },
    {
      "stateMutability": "payable",
      "type": "fallback"
    },
    {
      "inputs": [],
      "name": "ADMIN_ROLE",
      "outputs": [
        {
          "internalType": "bytes32",
          "name": "",
          "type": "bytes32"
        }
      ],
      "stateMutability": "view",
      "type": "function"
    },
    {
      "inputs": [],
      "name": "DEFAULT_ADMIN_ROLE",
      "outputs": [
        {
          "internalType": "bytes32",
          "name": "",
          "type": "bytes32"
        }
      ],
      "stateMutability": "view",
      "type": "function"
    },
    {
      "inputs": [],
      "name": "LAYERZERO_ROLE",
      "outputs": [
        {
          "internalType": "bytes32",
          "name": "",
          "type": "bytes32"
        }
      ],
      "stateMutability": "view",
      "type": "function"
    },
    {
      "inputs": [
        {
          "internalType": "address",
          "name": "_token",
          "type": "address"
        },
        {
          "internalType": "address",
          "name": "_spender",
          "type": "address"
        },
        {
          "internalType": "uint256",
          "name": "_amount",
          "type": "uint256"
        }
      ],
      "name": "approveToken",
      "outputs": [],
      "stateMutability": "nonpayable",
      "type": "function"
    },
    {
      "inputs": [
        {
          "internalType": "uint16",
          "name": "",
          "type": "uint16"
        }
      ],
      "name": "chainPriceLookup",
      "outputs": [
        {
          "internalType": "uint256",
          "name": "",
          "type": "uint256"
        }
      ],
      "stateMutability": "view",
      "type": "function"
    },
    {
      "inputs": [
        {
          "internalType": "uint16",
          "name": "dstChainId",
          "type": "uint16"
        },
        {
          "internalType": "uint16",
          "name": "_outboundProofType",
          "type": "uint16"
        }
      ],
      "name": "getPrice",
      "outputs": [
        {
          "internalType": "uint256",
          "name": "priceInWei",
          "type": "uint256"
        }
      ],
      "stateMutability": "view",
      "type": "function"
    },
    {
      "inputs": [
        {
          "internalType": "bytes32",
          "name": "role",
          "type": "bytes32"
        }
      ],
      "name": "getRoleAdmin",
      "outputs": [
        {
          "internalType": "bytes32",
          "name": "",
          "type": "bytes32"
        }
      ],
      "stateMutability": "view",
      "type": "function"
    },
    {
      "inputs": [
        {
          "internalType": "bytes32",
          "name": "role",
          "type": "bytes32"
        },
        {
          "internalType": "address",
          "name": "account",
          "type": "address"
        }
      ],
      "name": "grantRole",
      "outputs": [],
      "stateMutability": "nonpayable",
      "type": "function"
    },
    {
      "inputs": [
        {
          "internalType": "bytes32",
          "name": "role",
          "type": "bytes32"
        },
        {
          "internalType": "address",
          "name": "account",
          "type": "address"
        }
      ],
      "name": "hasRole",
      "outputs": [
        {
          "internalType": "bool",
          "name": "",
          "type": "bool"
        }
      ],
      "stateMutability": "view",
      "type": "function"
    },
    {
      "inputs": [
        {
          "internalType": "address",
          "name": "oracleAddress",
          "type": "address"
        }
      ],
      "name": "isApproved",
      "outputs": [
        {
          "internalType": "bool",
          "name": "approved",
          "type": "bool"
        }
      ],
      "stateMutability": "view",
      "type": "function"
    },
    {
      "inputs": [
        {
          "internalType": "uint16",
          "name": "_dstChainId",
          "type": "uint16"
        },
        {
          "internalType": "uint16",
          "name": "_outboundProofType",
          "type": "uint16"
        },
        {
          "internalType": "bytes32",
          "name": "_remoteUlnAddress",
          "type": "bytes32"
        },
        {
          "internalType": "uint64",
          "name": "_outboundBlockConfirmations",
          "type": "uint64"
        },
        {
          "internalType": "bytes32",
          "name": "_payloadHash",
          "type": "bytes32"
        }
      ],
      "name": "notifyOracle",
      "outputs": [],
      "stateMutability": "nonpayable",
      "type": "function"
    },
    {
      "inputs": [
        {
          "internalType": "bytes32",
          "name": "role",
          "type": "bytes32"
        },
        {
          "internalType": "address",
          "name": "account",
          "type": "address"
        }
      ],
      "name": "renounceRole",
      "outputs": [],
      "stateMutability": "nonpayable",
      "type": "function"
    },
    {
      "inputs": [
        {
          "internalType": "bytes32",
          "name": "role",
          "type": "bytes32"
        },
        {
          "internalType": "address",
          "name": "account",
          "type": "address"
        }
      ],
      "name": "revokeRole",
      "outputs": [],
      "stateMutability": "nonpayable",
      "type": "function"
    },
    {
      "inputs": [
        {
          "internalType": "uint16",
          "name": "_destinationChainId",
          "type": "uint16"
        },
        {
          "internalType": "uint256",
          "name": "price",
          "type": "uint256"
        }
      ],
      "name": "setPrice",
      "outputs": [],
      "stateMutability": "nonpayable",
      "type": "function"
    },
    {
      "inputs": [
        {
          "internalType": "bytes4",
          "name": "interfaceId",
          "type": "bytes4"
        }
      ],
      "name": "supportsInterface",
      "outputs": [
        {
          "internalType": "bool",
          "name": "",
          "type": "bool"
        }
      ],
      "stateMutability": "view",
      "type": "function"
    },
    {
      "inputs": [
        {
          "internalType": "address",
          "name": "dstNetworkAddress",
          "type": "address"
        },
        {
          "internalType": "uint16",
          "name": "_srcChainId",
          "type": "uint16"
        },
        {
          "internalType": "bytes32",
          "name": "_blockHash",
          "type": "bytes32"
        },
        {
          "internalType": "uint256",
          "name": "_confirmations",
          "type": "uint256"
        },
        {
          "internalType": "bytes32",
          "name": "_data",
          "type": "bytes32"
        }
      ],
      "name": "updateHash",
      "outputs": [],
      "stateMutability": "nonpayable",
      "type": "function"
    },
    {
      "inputs": [
        {
          "internalType": "address payable",
          "name": "_to",
          "type": "address"
        },
        {
          "internalType": "uint256",
          "name": "_amount",
          "type": "uint256"
        }
      ],
      "name": "withdraw",
      "outputs": [],
      "stateMutability": "nonpayable",
      "type": "function"
    },
    {
      "inputs": [
        {
          "internalType": "address",
          "name": "_remoteUlnAddress",
          "type": "address"
        },
        {
          "internalType": "uint256",
          "name": "_amount",
          "type": "uint256"
        }
      ],
      "name": "withdrawOracleFee",
      "outputs": [],
      "stateMutability": "nonpayable",
      "type": "function"
    },
    {
      "inputs": [
        {
          "internalType": "address",
          "name": "_token",
          "type": "address"
        },
        {
          "internalType": "address",
          "name": "_to",
          "type": "address"
        },
        {
          "internalType": "uint256",
          "name": "_amount",
          "type": "uint256"
        }
      ],
      "name": "withdrawTokens",
      "outputs": [],
      "stateMutability": "nonpayable",
      "type": "function"
    },
    {
      "stateMutability": "payable",
      "type": "receive"
    }
  ],
  "bytecode": "0x60806040523480156200001157600080fd5b50604051620017ac380380620017ac8339810160408190526200003491620001a8565b60018055620000647fa49807205ce4d355092ef5a8a18f56e8913cf4a201fbe287825b095693c2177583620000db565b620000907f4ecd63424fb78229a43cc7c124d427932819e322b97e5247ca85f7361247f8b382620000db565b604080516001600160a01b038085168252831660208201527f197efba2d063c60ad7cad8b9bd432c7ff6b97d6486a1eae5754ad915f81a49e8910160405180910390a15050620001e0565b620000e78282620000eb565b5050565b6000828152602081815260408083206001600160a01b038516845290915290205460ff16620000e7576000828152602081815260408083206001600160a01b03851684529091529020805460ff19166001179055620001473390565b6001600160a01b0316816001600160a01b0316837f2f8788117e7eff1d82e926ec794901d17c78024a50270940304540a733656f0d60405160405180910390a45050565b80516001600160a01b0381168114620001a357600080fd5b919050565b60008060408385031215620001bc57600080fd5b620001c7836200018b565b9150620001d7602084016200018b565b90509250929050565b6115bc80620001f06000396000f3fe6080604052600436106101335760003560e01c806375b238fc116100b4578063bbc2986c1161006e578063da3e339711610056578063da3e3397146103d8578063e024e352146103f8578063f3fef3a31461041857005b8063bbc2986c14610398578063d547741f146103b857005b806391d148541161009c57806391d148541461031f578063a217fddf14610363578063b59126581461037857005b806375b238fc146102be5780638be3b12d146102f257005b80632f2ff15d116101055780635e35359e116100ed5780635e35359e14610241578063673448dd14610261578063716db9541461028a57005b80632f2ff15d1461020157806336568abe1461022157005b806301ffc9a71461013c5780630b4d510714610171578063248a9ca3146101b15780632cf5f2c2146101e157005b3661013a57005b005b34801561014857600080fd5b5061015c61015736600461119f565b610438565b60405190151581526020015b60405180910390f35b34801561017d57600080fd5b506101a361018c3660046111e0565b5061ffff1660009081526002602052604090205490565b604051908152602001610168565b3480156101bd57600080fd5b506101a36101cc366004611213565b60009081526020819052604090206001015490565b3480156101ed57600080fd5b5061013a6101fc36600461122c565b61046f565b34801561020d57600080fd5b5061013a61021c3660046112a8565b610506565b34801561022d57600080fd5b5061013a61023c3660046112a8565b610531565b34801561024d57600080fd5b5061013a61025c3660046112d8565b6105c2565b34801561026d57600080fd5b5061015c61027c366004611319565b6001600160a01b0316301490565b34801561029657600080fd5b506101a37f4ecd63424fb78229a43cc7c124d427932819e322b97e5247ca85f7361247f8b381565b3480156102ca57600080fd5b506101a37fa49807205ce4d355092ef5a8a18f56e8913cf4a201fbe287825b095693c2177581565b3480156102fe57600080fd5b506101a361030d366004611336565b60026020526000908152604090205481565b34801561032b57600080fd5b5061015c61033a3660046112a8565b6000918252602082815260408084206001600160a01b0393909316845291905290205460ff1690565b34801561036f57600080fd5b506101a3600081565b34801561038457600080fd5b5061013a610393366004611351565b610652565b3480156103a457600080fd5b5061013a6103b33660046113a0565b610748565b3480156103c457600080fd5b5061013a6103d33660046112a8565b61078b565b3480156103e457600080fd5b5061013a6103f33660046112d8565b6107b1565b34801561040457600080fd5b5061013a6104133660046113ca565b61084a565b34801561042457600080fd5b5061013a6104333660046113ca565b6108da565b60006001600160e01b03198216637965db0b60e01b148061046957506301ffc9a760e01b6001600160e01b03198316145b92915050565b7f4ecd63424fb78229a43cc7c124d427932819e322b97e5247ca85f7361247f8b361049a8133610a4c565b6040805161ffff80891682528716602082015290810185905267ffffffffffffffff84166060820152608081018390524360a08201527f2773d74db0f2cc8a130abe5e81a2afa4071a1410071f1687f9bbcf0aadc03c599060c0015b60405180910390a1505050505050565b6000828152602081905260409020600101546105228133610a4c565b61052c8383610aca565b505050565b6001600160a01b03811633146105b45760405162461bcd60e51b815260206004820152602f60248201527f416363657373436f6e74726f6c3a2063616e206f6e6c792072656e6f756e636560448201527f20726f6c657320666f722073656c66000000000000000000000000000000000060648201526084015b60405180910390fd5b6105be8282610b68565b5050565b7fa49807205ce4d355092ef5a8a18f56e8913cf4a201fbe287825b095693c217756105ed8133610a4c565b6106016001600160a01b0385168484610be7565b604080516001600160a01b038087168252851660208201529081018390527f70082d08c003c5341f2401bec1c2ae1dbcdc29ae17e9cc5633fa617caa8acd4c9060600160405180910390a150505050565b7fa49807205ce4d355092ef5a8a18f56e8913cf4a201fbe287825b095693c2177561067d8133610a4c565b60405163704316e560e01b815261ffff861660048201526024810185905260448101849052606481018390526001600160a01b0387169063704316e590608401600060405180830381600087803b1580156106d757600080fd5b505af11580156106eb573d6000803e3d6000fd5b5050604080516001600160a01b038a16815261ffff8916602082015290810187905260608101869052608081018590527fd4c6c55530bbc304f670490abc86c71c484a578b13fe92b635443d5bd19947d9925060a00190506104f6565b7fa49807205ce4d355092ef5a8a18f56e8913cf4a201fbe287825b095693c217756107738133610a4c565b5061ffff909116600090815260026020526040902055565b6000828152602081905260409020600101546107a78133610a4c565b61052c8383610b68565b3360009081527f7d7ffb7a348e1c6a02869081a26547b49160dd3df72d1d75a570eb9b698292ec602052604090205460ff1661082f5760405162461bcd60e51b815260206004820152600a60248201527f41646d696e206f6e6c790000000000000000000000000000000000000000000060448201526064016105ab565b826108446001600160a01b0382168484610c5f565b50505050565b7fa49807205ce4d355092ef5a8a18f56e8913cf4a201fbe287825b095693c217756108758133610a4c565b60405163701271a960e11b8152336004820152602481018390526001600160a01b0384169063e024e35290604401600060405180830381600087803b1580156108bd57600080fd5b505af11580156108d1573d6000803e3d6000fd5b50505050505050565b6002600154141561092d5760405162461bcd60e51b815260206004820152601f60248201527f5265656e7472616e637947756172643a207265656e7472616e742063616c6c0060448201526064016105ab565b60026001557fa49807205ce4d355092ef5a8a18f56e8913cf4a201fbe287825b095693c2177561095d8133610a4c565b6000836001600160a01b03168360405160006040518083038185875af1925050503d80600081146109aa576040519150601f19603f3d011682016040523d82523d6000602084013e6109af565b606091505b5050905080610a005760405162461bcd60e51b815260206004820181905260248201527f4f7261636c65436c69656e743a206661696c656420746f20776974686472617760448201526064016105ab565b604080516001600160a01b0386168152602081018590527f884edad9ce6fa2440d8a54cc123490eb96d2768479d49ff9c7366125a9424364910160405180910390a15050600180555050565b6000828152602081815260408083206001600160a01b038516845290915290205460ff166105be57610a88816001600160a01b03166014610d7b565b610a93836020610d7b565b604051602001610aa4929190611414565b60408051601f198184030181529082905262461bcd60e51b82526105ab91600401611495565b6000828152602081815260408083206001600160a01b038516845290915290205460ff166105be576000828152602081815260408083206001600160a01b03851684529091529020805460ff19166001179055610b243390565b6001600160a01b0316816001600160a01b0316837f2f8788117e7eff1d82e926ec794901d17c78024a50270940304540a733656f0d60405160405180910390a45050565b6000828152602081815260408083206001600160a01b038516845290915290205460ff16156105be576000828152602081815260408083206001600160a01b0385168085529252808320805460ff1916905551339285917ff6391f5c32d9c69d2a47ea670b442974b53935d1edc7fd64eb21e047a839171b9190a45050565b6040516001600160a01b03831660248201526044810182905261052c90849063a9059cbb60e01b906064015b60408051601f198184030181529190526020810180517bffffffffffffffffffffffffffffffffffffffffffffffffffffffff166001600160e01b031990931692909217909152610f2b565b801580610cd95750604051636eb1769f60e11b81523060048201526001600160a01b03838116602483015284169063dd62ed3e90604401602060405180830381865afa158015610cb3573d6000803e3d6000fd5b505050506040513d601f19601f82011682018060405250810190610cd791906114c8565b155b610d4b5760405162461bcd60e51b815260206004820152603660248201527f5361666545524332303a20617070726f76652066726f6d206e6f6e2d7a65726f60448201527f20746f206e6f6e2d7a65726f20616c6c6f77616e63650000000000000000000060648201526084016105ab565b6040516001600160a01b03831660248201526044810182905261052c90849063095ea7b360e01b90606401610c13565b60606000610d8a8360026114f7565b610d95906002611516565b67ffffffffffffffff811115610dad57610dad61152e565b6040519080825280601f01601f191660200182016040528015610dd7576020820181803683370190505b509050600360fc1b81600081518110610df257610df2611544565b60200101906001600160f81b031916908160001a905350600f60fb1b81600181518110610e2157610e21611544565b60200101906001600160f81b031916908160001a9053506000610e458460026114f7565b610e50906001611516565b90505b6001811115610ed5577f303132333435363738396162636465660000000000000000000000000000000085600f1660108110610e9157610e91611544565b1a60f81b828281518110610ea757610ea7611544565b60200101906001600160f81b031916908160001a90535060049490941c93610ece8161155a565b9050610e53565b508315610f245760405162461bcd60e51b815260206004820181905260248201527f537472696e67733a20686578206c656e67746820696e73756666696369656e7460448201526064016105ab565b9392505050565b6000610f80826040518060400160405280602081526020017f5361666545524332303a206c6f772d6c6576656c2063616c6c206661696c6564815250856001600160a01b03166110109092919063ffffffff16565b80519091501561052c5780806020019051810190610f9e9190611571565b61052c5760405162461bcd60e51b815260206004820152602a60248201527f5361666545524332303a204552433230206f7065726174696f6e20646964206e60448201527f6f7420737563636565640000000000000000000000000000000000000000000060648201526084016105ab565b606061101f8484600085611027565b949350505050565b60608247101561109f5760405162461bcd60e51b815260206004820152602660248201527f416464726573733a20696e73756666696369656e742062616c616e636520666f60448201527f722063616c6c000000000000000000000000000000000000000000000000000060648201526084016105ab565b843b6110ed5760405162461bcd60e51b815260206004820152601d60248201527f416464726573733a2063616c6c20746f206e6f6e2d636f6e747261637400000060448201526064016105ab565b600080866001600160a01b031685876040516111099190611593565b60006040518083038185875af1925050503d8060008114611146576040519150601f19603f3d011682016040523d82523d6000602084013e61114b565b606091505b509150915061115b828286611166565b979650505050505050565b60608315611175575081610f24565b8251156111855782518084602001fd5b8160405162461bcd60e51b81526004016105ab9190611495565b6000602082840312156111b157600080fd5b81356001600160e01b031981168114610f2457600080fd5b803561ffff811681146111db57600080fd5b919050565b600080604083850312156111f357600080fd5b6111fc836111c9565b915061120a602084016111c9565b90509250929050565b60006020828403121561122557600080fd5b5035919050565b600080600080600060a0868803121561124457600080fd5b61124d866111c9565b945061125b602087016111c9565b935060408601359250606086013567ffffffffffffffff8116811461127f57600080fd5b949793965091946080013592915050565b6001600160a01b03811681146112a557600080fd5b50565b600080604083850312156112bb57600080fd5b8235915060208301356112cd81611290565b809150509250929050565b6000806000606084860312156112ed57600080fd5b83356112f881611290565b9250602084013561130881611290565b929592945050506040919091013590565b60006020828403121561132b57600080fd5b8135610f2481611290565b60006020828403121561134857600080fd5b610f24826111c9565b600080600080600060a0868803121561136957600080fd5b853561137481611290565b9450611382602087016111c9565b94979496505050506040830135926060810135926080909101359150565b600080604083850312156113b357600080fd5b6113bc836111c9565b946020939093013593505050565b600080604083850312156113dd57600080fd5b82356113bc81611290565b60005b838110156114035781810151838201526020016113eb565b838111156108445750506000910152565b7f416363657373436f6e74726f6c3a206163636f756e742000000000000000000081526000835161144c8160178501602088016113e8565b7f206973206d697373696e6720726f6c652000000000000000000000000000000060179184019182015283516114898160288401602088016113e8565b01602801949350505050565b60208152600082518060208401526114b48160408501602087016113e8565b601f01601f19169190910160400192915050565b6000602082840312156114da57600080fd5b5051919050565b634e487b7160e01b600052601160045260246000fd5b6000816000190483118215151615611511576115116114e1565b500290565b60008219821115611529576115296114e1565b500190565b634e487b7160e01b600052604160045260246000fd5b634e487b7160e01b600052603260045260246000fd5b600081611569576115696114e1565b506000190190565b60006020828403121561158357600080fd5b81518015158114610f2457600080fd5b600082516115a58184602087016113e8565b919091019291505056fea164736f6c634300080a000a",
  "linkReferences": {},
  "deployedLinkReferences": {}
}