{
    "_format": "hh-sol-artifact-1",
    "contractName": "FluxLayerZeroOracle",
    "sourceName": "contracts/FluxLayerZeroOracle.sol",
    "abi": [
        {
            "inputs": [
                {
                    "internalType": "address",
                    "name": "_admin",
                    "type": "address"
                },
                {
                    "internalType": "address",
                    "name": "_layerZero",
                    "type": "address"
                }
            ],
            "stateMutability": "nonpayable",
            "type": "constructor"
        },
        {
            "anonymous": false,
            "inputs": [
                {
                    "indexed": false,
                    "internalType": "address",
                    "name": "dstNetworkAddress",
                    "type": "address"
                },
                {
                    "indexed": false,
                    "internalType": "uint16",
                    "name": "_srcChainId",
                    "type": "uint16"
                },
                {
                    "indexed": false,
                    "internalType": "bytes",
                    "name": "_blockHash",
                    "type": "bytes"
                },
                {
                    "indexed": false,
                    "internalType": "uint256",
                    "name": "_confirmations",
                    "type": "uint256"
                },
                {
                    "indexed": false,
                    "internalType": "bytes",
                    "name": "_data",
                    "type": "bytes"
                }
            ],
            "name": "NotifiedLayerZero",
            "type": "event"
        },
        {
            "anonymous": false,
            "inputs": [
                {
                    "indexed": false,
                    "internalType": "uint16",
                    "name": "chainId",
                    "type": "uint16"
                },
                {
                    "indexed": false,
                    "internalType": "uint16",
                    "name": "outboundProofType",
                    "type": "uint16"
                },
                {
                    "indexed": false,
                    "internalType": "bytes32",
                    "name": "layerZeroContract",
                    "type": "bytes32"
                },
                {
                    "indexed": false,
                    "internalType": "uint256",
                    "name": "requiredBlockConfirmations",
                    "type": "uint256"
                },
                {
                    "indexed": false,
                    "internalType": "bytes32",
                    "name": "payloadHash",
                    "type": "bytes32"
                },
                {
                    "indexed": false,
                    "internalType": "uint256",
                    "name": "requestedAtBlock",
                    "type": "uint256"
                }
            ],
            "name": "NotifiedOracle",
            "type": "event"
        },
        {
            "anonymous": false,
            "inputs": [
                {
                    "indexed": true,
                    "internalType": "bytes32",
                    "name": "role",
                    "type": "bytes32"
                },
                {
                    "indexed": true,
                    "internalType": "bytes32",
                    "name": "previousAdminRole",
                    "type": "bytes32"
                },
                {
                    "indexed": true,
                    "internalType": "bytes32",
                    "name": "newAdminRole",
                    "type": "bytes32"
                }
            ],
            "name": "RoleAdminChanged",
            "type": "event"
        },
        {
            "anonymous": false,
            "inputs": [
                {
                    "indexed": true,
                    "internalType": "bytes32",
                    "name": "role",
                    "type": "bytes32"
                },
                {
                    "indexed": true,
                    "internalType": "address",
                    "name": "account",
                    "type": "address"
                },
                {
                    "indexed": true,
                    "internalType": "address",
                    "name": "sender",
                    "type": "address"
                }
            ],
            "name": "RoleGranted",
            "type": "event"
        },
        {
            "anonymous": false,
            "inputs": [
                {
                    "indexed": true,
                    "internalType": "bytes32",
                    "name": "role",
                    "type": "bytes32"
                },
                {
                    "indexed": true,
                    "internalType": "address",
                    "name": "account",
                    "type": "address"
                },
                {
                    "indexed": true,
                    "internalType": "address",
                    "name": "sender",
                    "type": "address"
                }
            ],
            "name": "RoleRevoked",
            "type": "event"
        },
        {
            "anonymous": false,
            "inputs": [
                {
                    "indexed": false,
                    "internalType": "address",
                    "name": "to",
                    "type": "address"
                },
                {
                    "indexed": false,
                    "internalType": "uint256",
                    "name": "amount",
                    "type": "uint256"
                }
            ],
            "name": "Withdraw",
            "type": "event"
        },
        {
            "anonymous": false,
            "inputs": [
                {
                    "indexed": false,
                    "internalType": "address",
                    "name": "token",
                    "type": "address"
                },
                {
                    "indexed": false,
                    "internalType": "address",
                    "name": "to",
                    "type": "address"
                },
                {
                    "indexed": false,
                    "internalType": "uint256",
                    "name": "amount",
                    "type": "uint256"
                }
            ],
            "name": "WithdrawTokens",
            "type": "event"
        },
        {
            "stateMutability": "payable",
            "type": "fallback"
        },
        {
            "inputs": [],
            "name": "ADMIN_ROLE",
            "outputs": [
                {
                    "internalType": "bytes32",
                    "name": "",
                    "type": "bytes32"
                }
            ],
            "stateMutability": "view",
            "type": "function"
        },
        {
            "inputs": [],
            "name": "DEFAULT_ADMIN_ROLE",
            "outputs": [
                {
                    "internalType": "bytes32",
                    "name": "",
                    "type": "bytes32"
                }
            ],
            "stateMutability": "view",
            "type": "function"
        },
        {
            "inputs": [],
            "name": "LAYERZERO_ROLE",
            "outputs": [
                {
                    "internalType": "bytes32",
                    "name": "",
                    "type": "bytes32"
                }
            ],
            "stateMutability": "view",
            "type": "function"
        },
        {
            "inputs": [
                {
                    "internalType": "address",
                    "name": "_token",
                    "type": "address"
                },
                {
                    "internalType": "address",
                    "name": "_spender",
                    "type": "address"
                },
                {
                    "internalType": "uint256",
                    "name": "_amount",
                    "type": "uint256"
                }
            ],
            "name": "approveToken",
            "outputs": [],
            "stateMutability": "nonpayable",
            "type": "function"
        },
        {
            "inputs": [
                {
                    "internalType": "uint16",
                    "name": "",
                    "type": "uint16"
                }
            ],
            "name": "chainPriceLookup",
            "outputs": [
                {
                    "internalType": "uint256",
                    "name": "",
                    "type": "uint256"
                }
            ],
            "stateMutability": "view",
            "type": "function"
        },
        {
            "inputs": [
                {
                    "internalType": "uint16",
                    "name": "dstChainId",
                    "type": "uint16"
                }
            ],
            "name": "getPrice",
            "outputs": [
                {
                    "internalType": "uint256",
                    "name": "priceInWei",
                    "type": "uint256"
                }
            ],
            "stateMutability": "view",
            "type": "function"
        },
        {
            "inputs": [
                {
                    "internalType": "bytes32",
                    "name": "role",
                    "type": "bytes32"
                }
            ],
            "name": "getRoleAdmin",
            "outputs": [
                {
                    "internalType": "bytes32",
                    "name": "",
                    "type": "bytes32"
                }
            ],
            "stateMutability": "view",
            "type": "function"
        },
        {
            "inputs": [
                {
                    "internalType": "bytes32",
                    "name": "role",
                    "type": "bytes32"
                },
                {
                    "internalType": "address",
                    "name": "account",
                    "type": "address"
                }
            ],
            "name": "grantRole",
            "outputs": [],
            "stateMutability": "nonpayable",
            "type": "function"
        },
        {
            "inputs": [
                {
                    "internalType": "bytes32",
                    "name": "role",
                    "type": "bytes32"
                },
                {
                    "internalType": "address",
                    "name": "account",
                    "type": "address"
                }
            ],
            "name": "hasRole",
            "outputs": [
                {
                    "internalType": "bool",
                    "name": "",
                    "type": "bool"
                }
            ],
            "stateMutability": "view",
            "type": "function"
        },
        {
            "inputs": [
                {
                    "internalType": "address",
                    "name": "oracleAddress",
                    "type": "address"
                }
            ],
            "name": "isApproved",
            "outputs": [
                {
                    "internalType": "bool",
                    "name": "approved",
                    "type": "bool"
                }
            ],
            "stateMutability": "view",
            "type": "function"
        },
        {
            "inputs": [
                {
                    "internalType": "uint16",
                    "name": "_dstChainId",
                    "type": "uint16"
                },
                {
                    "internalType": "uint16",
                    "name": "_outboundProofType",
                    "type": "uint16"
                },
                {
                    "internalType": "bytes32",
                    "name": "_remoteUlnAddress",
                    "type": "bytes32"
                },
                {
                    "internalType": "uint64",
                    "name": "_outboundBlockConfirmations",
                    "type": "uint64"
                },
                {
                    "internalType": "bytes32",
                    "name": "_payloadHash",
                    "type": "bytes32"
                }
            ],
            "name": "notifyOracle",
            "outputs": [],
            "stateMutability": "nonpayable",
            "type": "function"
        },
        {
            "inputs": [
                {
                    "internalType": "bytes32",
                    "name": "role",
                    "type": "bytes32"
                },
                {
                    "internalType": "address",
                    "name": "account",
                    "type": "address"
                }
            ],
            "name": "renounceRole",
            "outputs": [],
            "stateMutability": "nonpayable",
            "type": "function"
        },
        {
            "inputs": [
                {
                    "internalType": "bytes32",
                    "name": "role",
                    "type": "bytes32"
                },
                {
                    "internalType": "address",
                    "name": "account",
                    "type": "address"
                }
            ],
            "name": "revokeRole",
            "outputs": [],
            "stateMutability": "nonpayable",
            "type": "function"
        },
        {
            "inputs": [
                {
                    "internalType": "uint16",
                    "name": "_destinationChainId",
                    "type": "uint16"
                },
                {
                    "internalType": "uint256",
                    "name": "price",
                    "type": "uint256"
                }
            ],
            "name": "setPrice",
            "outputs": [],
            "stateMutability": "nonpayable",
            "type": "function"
        },
        {
            "inputs": [
                {
                    "internalType": "bytes4",
                    "name": "interfaceId",
                    "type": "bytes4"
                }
            ],
            "name": "supportsInterface",
            "outputs": [
                {
                    "internalType": "bool",
                    "name": "",
                    "type": "bool"
                }
            ],
            "stateMutability": "view",
            "type": "function"
        },
        {
            "inputs": [
                {
                    "internalType": "address",
                    "name": "dstNetworkAddress",
                    "type": "address"
                },
                {
                    "internalType": "uint16",
                    "name": "_srcChainId",
                    "type": "uint16"
                },
                {
                    "internalType": "bytes",
                    "name": "_blockHash",
                    "type": "bytes"
                },
                {
                    "internalType": "uint256",
                    "name": "_confirmations",
                    "type": "uint256"
                },
                {
                    "internalType": "bytes",
                    "name": "_data",
                    "type": "bytes"
                }
            ],
            "name": "updateHash",
            "outputs": [],
            "stateMutability": "nonpayable",
            "type": "function"
        },
        {
            "inputs": [
                {
                    "internalType": "address payable",
                    "name": "_to",
                    "type": "address"
                },
                {
                    "internalType": "uint256",
                    "name": "_amount",
                    "type": "uint256"
                }
            ],
            "name": "withdraw",
            "outputs": [],
            "stateMutability": "nonpayable",
            "type": "function"
        },
        {
            "inputs": [
                {
                    "internalType": "address",
                    "name": "_remoteUlnAddress",
                    "type": "address"
                },
                {
                    "internalType": "uint256",
                    "name": "_amount",
                    "type": "uint256"
                }
            ],
            "name": "withdrawOracleFee",
            "outputs": [],
            "stateMutability": "nonpayable",
            "type": "function"
        },
        {
            "inputs": [
                {
                    "internalType": "address",
                    "name": "_token",
                    "type": "address"
                },
                {
                    "internalType": "address",
                    "name": "_to",
                    "type": "address"
                },
                {
                    "internalType": "uint256",
                    "name": "_amount",
                    "type": "uint256"
                }
            ],
            "name": "withdrawTokens",
            "outputs": [],
            "stateMutability": "nonpayable",
            "type": "function"
        },
        {
            "stateMutability": "payable",
            "type": "receive"
        }
    ],
    "bytecode": "0x60806040523480156200001157600080fd5b506040516200188338038062001883833981016040819052620000349162000172565b6001805562000045600083620000a5565b620000717fa49807205ce4d355092ef5a8a18f56e8913cf4a201fbe287825b095693c2177583620000a5565b6200009d7f4ecd63424fb78229a43cc7c124d427932819e322b97e5247ca85f7361247f8b382620000a5565b5050620001aa565b620000b18282620000b5565b5050565b6000828152602081815260408083206001600160a01b038516845290915290205460ff16620000b1576000828152602081815260408083206001600160a01b03851684529091529020805460ff19166001179055620001113390565b6001600160a01b0316816001600160a01b0316837f2f8788117e7eff1d82e926ec794901d17c78024a50270940304540a733656f0d60405160405180910390a45050565b80516001600160a01b03811681146200016d57600080fd5b919050565b600080604083850312156200018657600080fd5b620001918362000155565b9150620001a16020840162000155565b90509250929050565b6116c980620001ba6000396000f3fe6080604052600436106101335760003560e01c806375b238fc116100b4578063d547741f1161006e578063e024e35211610056578063e024e352146103c6578063e0ad121a146103e6578063f3fef3a31461041757005b8063d547741f14610386578063da3e3397146103a657005b806391d148541161009c57806391d148541461030d578063a217fddf14610351578063bbc2986c1461036657005b806375b238fc146102ac5780638be3b12d146102e057005b80632f2ff15d116101055780635e35359e116100ed5780635e35359e1461022f578063673448dd1461024f578063716db9541461027857005b80632f2ff15d146101ef57806336568abe1461020f57005b806301ffc9a71461013c5780632275091814610171578063248a9ca3146101915780632cf5f2c2146101cf57005b3661013a57005b005b34801561014857600080fd5b5061015c610157366004611187565b610437565b60405190151581526020015b60405180910390f35b34801561017d57600080fd5b5061013a61018c366004611229565b61046e565b34801561019d57600080fd5b506101c16101ac3660046112c6565b60009081526020819052604090206001015490565b604051908152602001610168565b3480156101db57600080fd5b5061013a6101ea3660046112df565b61054e565b3480156101fb57600080fd5b5061013a61020a366004611343565b6105e4565b34801561021b57600080fd5b5061013a61022a366004611343565b61060f565b34801561023b57600080fd5b5061013a61024a366004611373565b6106a0565b34801561025b57600080fd5b5061015c61026a3660046113b4565b6001600160a01b0316301490565b34801561028457600080fd5b506101c17f4ecd63424fb78229a43cc7c124d427932819e322b97e5247ca85f7361247f8b381565b3480156102b857600080fd5b506101c17fa49807205ce4d355092ef5a8a18f56e8913cf4a201fbe287825b095693c2177581565b3480156102ec57600080fd5b506101c16102fb3660046113d1565b60026020526000908152604090205481565b34801561031957600080fd5b5061015c610328366004611343565b6000918252602082815260408084206001600160a01b0393909316845291905290205460ff1690565b34801561035d57600080fd5b506101c1600081565b34801561037257600080fd5b5061013a6103813660046113ec565b610730565b34801561039257600080fd5b5061013a6103a1366004611343565b610773565b3480156103b257600080fd5b5061013a6103c1366004611373565b610799565b3480156103d257600080fd5b5061013a6103e1366004611416565b610832565b3480156103f257600080fd5b506101c16104013660046113d1565b61ffff1660009081526002602052604090205490565b34801561042357600080fd5b5061013a610432366004611416565b6108c2565b60006001600160e01b03198216637965db0b60e01b148061046857506301ffc9a760e01b6001600160e01b03198316145b92915050565b7fa49807205ce4d355092ef5a8a18f56e8913cf4a201fbe287825b095693c217756104998133610a34565b604051633c47c2cf60e21b81526001600160a01b0389169063f11f0b3c906104cf908a908a908a908a908a908a9060040161145d565b600060405180830381600087803b1580156104e957600080fd5b505af11580156104fd573d6000803e3d6000fd5b505050507f729b615ed93a26510e61143148a28a84d072131e18bb72074de4959b39b690e18888888888888860405161053c97969594939291906114a1565b60405180910390a15050505050505050565b7f4ecd63424fb78229a43cc7c124d427932819e322b97e5247ca85f7361247f8b36105798133610a34565b6040805161ffff80891682528716602082015290810185905267ffffffffffffffff84166060820152608081018390524360a08201527f2773d74db0f2cc8a130abe5e81a2afa4071a1410071f1687f9bbcf0aadc03c599060c00160405180910390a1505050505050565b6000828152602081905260409020600101546106008133610a34565b61060a8383610ab2565b505050565b6001600160a01b03811633146106925760405162461bcd60e51b815260206004820152602f60248201527f416363657373436f6e74726f6c3a2063616e206f6e6c792072656e6f756e636560448201527f20726f6c657320666f722073656c66000000000000000000000000000000000060648201526084015b60405180910390fd5b61069c8282610b50565b5050565b7fa49807205ce4d355092ef5a8a18f56e8913cf4a201fbe287825b095693c217756106cb8133610a34565b6106df6001600160a01b0385168484610bcf565b604080516001600160a01b038087168252851660208201529081018390527f70082d08c003c5341f2401bec1c2ae1dbcdc29ae17e9cc5633fa617caa8acd4c9060600160405180910390a150505050565b7fa49807205ce4d355092ef5a8a18f56e8913cf4a201fbe287825b095693c2177561075b8133610a34565b5061ffff909116600090815260026020526040902055565b60008281526020819052604090206001015461078f8133610a34565b61060a8383610b50565b3360009081527f7d7ffb7a348e1c6a02869081a26547b49160dd3df72d1d75a570eb9b698292ec602052604090205460ff166108175760405162461bcd60e51b815260206004820152600a60248201527f41646d696e206f6e6c79000000000000000000000000000000000000000000006044820152606401610689565b8261082c6001600160a01b0382168484610c47565b50505050565b7fa49807205ce4d355092ef5a8a18f56e8913cf4a201fbe287825b095693c2177561085d8133610a34565b60405163701271a960e11b8152336004820152602481018390526001600160a01b0384169063e024e35290604401600060405180830381600087803b1580156108a557600080fd5b505af11580156108b9573d6000803e3d6000fd5b50505050505050565b600260015414156109155760405162461bcd60e51b815260206004820152601f60248201527f5265656e7472616e637947756172643a207265656e7472616e742063616c6c006044820152606401610689565b60026001557fa49807205ce4d355092ef5a8a18f56e8913cf4a201fbe287825b095693c217756109458133610a34565b6000836001600160a01b03168360405160006040518083038185875af1925050503d8060008114610992576040519150601f19603f3d011682016040523d82523d6000602084013e610997565b606091505b50509050806109e85760405162461bcd60e51b815260206004820181905260248201527f4f7261636c65436c69656e743a206661696c656420746f2077697468647261776044820152606401610689565b604080516001600160a01b0386168152602081018590527f884edad9ce6fa2440d8a54cc123490eb96d2768479d49ff9c7366125a9424364910160405180910390a15050600180555050565b6000828152602081815260408083206001600160a01b038516845290915290205460ff1661069c57610a70816001600160a01b03166014610d63565b610a7b836020610d63565b604051602001610a8c929190611521565b60408051601f198184030181529082905262461bcd60e51b8252610689916004016115a2565b6000828152602081815260408083206001600160a01b038516845290915290205460ff1661069c576000828152602081815260408083206001600160a01b03851684529091529020805460ff19166001179055610b0c3390565b6001600160a01b0316816001600160a01b0316837f2f8788117e7eff1d82e926ec794901d17c78024a50270940304540a733656f0d60405160405180910390a45050565b6000828152602081815260408083206001600160a01b038516845290915290205460ff161561069c576000828152602081815260408083206001600160a01b0385168085529252808320805460ff1916905551339285917ff6391f5c32d9c69d2a47ea670b442974b53935d1edc7fd64eb21e047a839171b9190a45050565b6040516001600160a01b03831660248201526044810182905261060a90849063a9059cbb60e01b906064015b60408051601f198184030181529190526020810180517bffffffffffffffffffffffffffffffffffffffffffffffffffffffff166001600160e01b031990931692909217909152610f13565b801580610cc15750604051636eb1769f60e11b81523060048201526001600160a01b03838116602483015284169063dd62ed3e90604401602060405180830381865afa158015610c9b573d6000803e3d6000fd5b505050506040513d601f19601f82011682018060405250810190610cbf91906115d5565b155b610d335760405162461bcd60e51b815260206004820152603660248201527f5361666545524332303a20617070726f76652066726f6d206e6f6e2d7a65726f60448201527f20746f206e6f6e2d7a65726f20616c6c6f77616e6365000000000000000000006064820152608401610689565b6040516001600160a01b03831660248201526044810182905261060a90849063095ea7b360e01b90606401610bfb565b60606000610d72836002611604565b610d7d906002611623565b67ffffffffffffffff811115610d9557610d9561163b565b6040519080825280601f01601f191660200182016040528015610dbf576020820181803683370190505b509050600360fc1b81600081518110610dda57610dda611651565b60200101906001600160f81b031916908160001a905350600f60fb1b81600181518110610e0957610e09611651565b60200101906001600160f81b031916908160001a9053506000610e2d846002611604565b610e38906001611623565b90505b6001811115610ebd577f303132333435363738396162636465660000000000000000000000000000000085600f1660108110610e7957610e79611651565b1a60f81b828281518110610e8f57610e8f611651565b60200101906001600160f81b031916908160001a90535060049490941c93610eb681611667565b9050610e3b565b508315610f0c5760405162461bcd60e51b815260206004820181905260248201527f537472696e67733a20686578206c656e67746820696e73756666696369656e746044820152606401610689565b9392505050565b6000610f68826040518060400160405280602081526020017f5361666545524332303a206c6f772d6c6576656c2063616c6c206661696c6564815250856001600160a01b0316610ff89092919063ffffffff16565b80519091501561060a5780806020019051810190610f86919061167e565b61060a5760405162461bcd60e51b815260206004820152602a60248201527f5361666545524332303a204552433230206f7065726174696f6e20646964206e60448201527f6f742073756363656564000000000000000000000000000000000000000000006064820152608401610689565b6060611007848460008561100f565b949350505050565b6060824710156110875760405162461bcd60e51b815260206004820152602660248201527f416464726573733a20696e73756666696369656e742062616c616e636520666f60448201527f722063616c6c00000000000000000000000000000000000000000000000000006064820152608401610689565b843b6110d55760405162461bcd60e51b815260206004820152601d60248201527f416464726573733a2063616c6c20746f206e6f6e2d636f6e74726163740000006044820152606401610689565b600080866001600160a01b031685876040516110f191906116a0565b60006040518083038185875af1925050503d806000811461112e576040519150601f19603f3d011682016040523d82523d6000602084013e611133565b606091505b509150915061114382828661114e565b979650505050505050565b6060831561115d575081610f0c565b82511561116d5782518084602001fd5b8160405162461bcd60e51b815260040161068991906115a2565b60006020828403121561119957600080fd5b81356001600160e01b031981168114610f0c57600080fd5b6001600160a01b03811681146111c657600080fd5b50565b803561ffff811681146111db57600080fd5b919050565b60008083601f8401126111f257600080fd5b50813567ffffffffffffffff81111561120a57600080fd5b60208301915083602082850101111561122257600080fd5b9250929050565b600080600080600080600060a0888a03121561124457600080fd5b873561124f816111b1565b965061125d602089016111c9565b9550604088013567ffffffffffffffff8082111561127a57600080fd5b6112868b838c016111e0565b909750955060608a0135945060808a01359150808211156112a657600080fd5b506112b38a828b016111e0565b989b979a50959850939692959293505050565b6000602082840312156112d857600080fd5b5035919050565b600080600080600060a086880312156112f757600080fd5b611300866111c9565b945061130e602087016111c9565b935060408601359250606086013567ffffffffffffffff8116811461133257600080fd5b949793965091946080013592915050565b6000806040838503121561135657600080fd5b823591506020830135611368816111b1565b809150509250929050565b60008060006060848603121561138857600080fd5b8335611393816111b1565b925060208401356113a3816111b1565b929592945050506040919091013590565b6000602082840312156113c657600080fd5b8135610f0c816111b1565b6000602082840312156113e357600080fd5b610f0c826111c9565b600080604083850312156113ff57600080fd5b611408836111c9565b946020939093013593505050565b6000806040838503121561142957600080fd5b8235611408816111b1565b81835281816020850137506000828201602090810191909152601f909101601f19169091010190565b61ffff8716815260806020820152600061147b608083018789611434565b8560408401528281036060840152611494818587611434565b9998505050505050505050565b6001600160a01b038816815261ffff8716602082015260a0604082015260006114ce60a083018789611434565b85606084015282810360808401526114e7818587611434565b9a9950505050505050505050565b60005b838110156115105781810151838201526020016114f8565b8381111561082c5750506000910152565b7f416363657373436f6e74726f6c3a206163636f756e74200000000000000000008152600083516115598160178501602088016114f5565b7f206973206d697373696e6720726f6c652000000000000000000000000000000060179184019182015283516115968160288401602088016114f5565b01602801949350505050565b60208152600082518060208401526115c18160408501602087016114f5565b601f01601f19169190910160400192915050565b6000602082840312156115e757600080fd5b5051919050565b634e487b7160e01b600052601160045260246000fd5b600081600019048311821515161561161e5761161e6115ee565b500290565b60008219821115611636576116366115ee565b500190565b634e487b7160e01b600052604160045260246000fd5b634e487b7160e01b600052603260045260246000fd5b600081611676576116766115ee565b506000190190565b60006020828403121561169057600080fd5b81518015158114610f0c57600080fd5b600082516116b28184602087016114f5565b919091019291505056fea164736f6c634300080c000a",
    "linkReferences": {},
    "deployedLinkReferences": {}
}