{
  "_format": "hh-sol-artifact-1",
  "contractName": "FluxLayerZeroOracle",
  "sourceName": "contracts/FluxLayerZeroOracle.sol",
  "abi": [
    {
      "inputs": [
        {
          "internalType": "address",
          "name": "_admin",
          "type": "address"
        },
        {
          "internalType": "address",
          "name": "_layerZero",
          "type": "address"
        },
        {
          "internalType": "address",
          "name": "_ultraLightNode",
          "type": "address"
        }
      ],
      "stateMutability": "nonpayable",
      "type": "constructor"
    },
    {
      "anonymous": false,
      "inputs": [
        {
          "indexed": false,
          "internalType": "address",
          "name": "dstNetworkAddress",
          "type": "address"
        },
        {
          "indexed": false,
          "internalType": "uint16",
          "name": "_srcChainId",
          "type": "uint16"
        },
        {
          "indexed": false,
          "internalType": "bytes32",
          "name": "_blockHash",
          "type": "bytes32"
        },
        {
          "indexed": false,
          "internalType": "uint256",
          "name": "_confirmations",
          "type": "uint256"
        },
        {
          "indexed": false,
          "internalType": "bytes32",
          "name": "_data",
          "type": "bytes32"
        }
      ],
      "name": "NotifiedLayerZero",
      "type": "event"
    },
    {
      "anonymous": false,
      "inputs": [
        {
          "indexed": false,
          "internalType": "uint16",
          "name": "chainId",
          "type": "uint16"
        },
        {
          "indexed": false,
          "internalType": "uint16",
          "name": "outboundProofType",
          "type": "uint16"
        },
        {
          "indexed": false,
          "internalType": "uint256",
          "name": "requiredBlockConfirmations",
          "type": "uint256"
        },
        {
          "indexed": false,
          "internalType": "uint256",
          "name": "requestedAtBlock",
          "type": "uint256"
        }
      ],
      "name": "NotifiedOracle",
      "type": "event"
    },
    {
      "anonymous": false,
      "inputs": [
        {
          "indexed": true,
          "internalType": "bytes32",
          "name": "role",
          "type": "bytes32"
        },
        {
          "indexed": true,
          "internalType": "bytes32",
          "name": "previousAdminRole",
          "type": "bytes32"
        },
        {
          "indexed": true,
          "internalType": "bytes32",
          "name": "newAdminRole",
          "type": "bytes32"
        }
      ],
      "name": "RoleAdminChanged",
      "type": "event"
    },
    {
      "anonymous": false,
      "inputs": [
        {
          "indexed": true,
          "internalType": "bytes32",
          "name": "role",
          "type": "bytes32"
        },
        {
          "indexed": true,
          "internalType": "address",
          "name": "account",
          "type": "address"
        },
        {
          "indexed": true,
          "internalType": "address",
          "name": "sender",
          "type": "address"
        }
      ],
      "name": "RoleGranted",
      "type": "event"
    },
    {
      "anonymous": false,
      "inputs": [
        {
          "indexed": true,
          "internalType": "bytes32",
          "name": "role",
          "type": "bytes32"
        },
        {
          "indexed": true,
          "internalType": "address",
          "name": "account",
          "type": "address"
        },
        {
          "indexed": true,
          "internalType": "address",
          "name": "sender",
          "type": "address"
        }
      ],
      "name": "RoleRevoked",
      "type": "event"
    },
    {
      "anonymous": false,
      "inputs": [
        {
          "indexed": false,
          "internalType": "address",
          "name": "to",
          "type": "address"
        },
        {
          "indexed": false,
          "internalType": "uint256",
          "name": "amount",
          "type": "uint256"
        }
      ],
      "name": "Withdraw",
      "type": "event"
    },
    {
      "anonymous": false,
      "inputs": [
        {
          "indexed": false,
          "internalType": "address",
          "name": "token",
          "type": "address"
        },
        {
          "indexed": false,
          "internalType": "address",
          "name": "to",
          "type": "address"
        },
        {
          "indexed": false,
          "internalType": "uint256",
          "name": "amount",
          "type": "uint256"
        }
      ],
      "name": "WithdrawTokens",
      "type": "event"
    },
    {
      "anonymous": false,
      "inputs": [
        {
          "indexed": false,
          "internalType": "address",
          "name": "admin",
          "type": "address"
        },
        {
          "indexed": false,
          "internalType": "address",
          "name": "lz",
          "type": "address"
        }
      ],
      "name": "deployed",
      "type": "event"
    },
    {
      "stateMutability": "payable",
      "type": "fallback"
    },
    {
      "inputs": [],
      "name": "ADMIN_ROLE",
      "outputs": [
        {
          "internalType": "bytes32",
          "name": "",
          "type": "bytes32"
        }
      ],
      "stateMutability": "view",
      "type": "function"
    },
    {
      "inputs": [],
      "name": "DEFAULT_ADMIN_ROLE",
      "outputs": [
        {
          "internalType": "bytes32",
          "name": "",
          "type": "bytes32"
        }
      ],
      "stateMutability": "view",
      "type": "function"
    },
    {
      "inputs": [],
      "name": "LAYERZERO_ROLE",
      "outputs": [
        {
          "internalType": "bytes32",
          "name": "",
          "type": "bytes32"
        }
      ],
      "stateMutability": "view",
      "type": "function"
    },
    {
      "inputs": [
        {
          "internalType": "address",
          "name": "_newLayerZero",
          "type": "address"
        }
      ],
      "name": "addLayerZero",
      "outputs": [],
      "stateMutability": "nonpayable",
      "type": "function"
    },
    {
      "inputs": [
        {
          "internalType": "address",
          "name": "_token",
          "type": "address"
        },
        {
          "internalType": "address",
          "name": "_spender",
          "type": "address"
        },
        {
          "internalType": "uint256",
          "name": "_amount",
          "type": "uint256"
        }
      ],
      "name": "approveToken",
      "outputs": [],
      "stateMutability": "nonpayable",
      "type": "function"
    },
    {
      "inputs": [
        {
          "internalType": "uint16",
          "name": "",
          "type": "uint16"
        }
      ],
      "name": "chainPriceLookup",
      "outputs": [
        {
          "internalType": "uint256",
          "name": "",
          "type": "uint256"
        }
      ],
      "stateMutability": "view",
      "type": "function"
    },
    {
      "inputs": [
        {
          "internalType": "uint16",
          "name": "dstChainId",
          "type": "uint16"
        },
        {
          "internalType": "uint16",
          "name": "_outboundProofType",
          "type": "uint16"
        }
      ],
      "name": "getPrice",
      "outputs": [
        {
          "internalType": "uint256",
          "name": "priceInWei",
          "type": "uint256"
        }
      ],
      "stateMutability": "view",
      "type": "function"
    },
    {
      "inputs": [
        {
          "internalType": "bytes32",
          "name": "role",
          "type": "bytes32"
        }
      ],
      "name": "getRoleAdmin",
      "outputs": [
        {
          "internalType": "bytes32",
          "name": "",
          "type": "bytes32"
        }
      ],
      "stateMutability": "view",
      "type": "function"
    },
    {
      "inputs": [
        {
          "internalType": "bytes32",
          "name": "role",
          "type": "bytes32"
        },
        {
          "internalType": "address",
          "name": "account",
          "type": "address"
        }
      ],
      "name": "grantRole",
      "outputs": [],
      "stateMutability": "nonpayable",
      "type": "function"
    },
    {
      "inputs": [
        {
          "internalType": "bytes32",
          "name": "role",
          "type": "bytes32"
        },
        {
          "internalType": "address",
          "name": "account",
          "type": "address"
        }
      ],
      "name": "hasRole",
      "outputs": [
        {
          "internalType": "bool",
          "name": "",
          "type": "bool"
        }
      ],
      "stateMutability": "view",
      "type": "function"
    },
    {
      "inputs": [
        {
          "internalType": "address",
          "name": "oracleAddress",
          "type": "address"
        }
      ],
      "name": "isApproved",
      "outputs": [
        {
          "internalType": "bool",
          "name": "approved",
          "type": "bool"
        }
      ],
      "stateMutability": "view",
      "type": "function"
    },
    {
      "inputs": [
        {
          "internalType": "uint16",
          "name": "_dstChainId",
          "type": "uint16"
        },
        {
          "internalType": "uint16",
          "name": "_outboundProofType",
          "type": "uint16"
        },
        {
          "internalType": "uint64",
          "name": "_outboundBlockConfirmations",
          "type": "uint64"
        }
      ],
      "name": "notifyOracle",
      "outputs": [],
      "stateMutability": "nonpayable",
      "type": "function"
    },
    {
      "inputs": [
        {
          "internalType": "bytes32",
          "name": "role",
          "type": "bytes32"
        },
        {
          "internalType": "address",
          "name": "account",
          "type": "address"
        }
      ],
      "name": "renounceRole",
      "outputs": [],
      "stateMutability": "nonpayable",
      "type": "function"
    },
    {
      "inputs": [
        {
          "internalType": "address",
          "name": "_newLayerZero",
          "type": "address"
        }
      ],
      "name": "revokeLayerZero",
      "outputs": [],
      "stateMutability": "nonpayable",
      "type": "function"
    },
    {
      "inputs": [
        {
          "internalType": "bytes32",
          "name": "role",
          "type": "bytes32"
        },
        {
          "internalType": "address",
          "name": "account",
          "type": "address"
        }
      ],
      "name": "revokeRole",
      "outputs": [],
      "stateMutability": "nonpayable",
      "type": "function"
    },
    {
      "inputs": [
        {
          "internalType": "uint16",
          "name": "_destinationChainId",
          "type": "uint16"
        },
        {
          "internalType": "uint256",
          "name": "price",
          "type": "uint256"
        }
      ],
      "name": "setPrice",
      "outputs": [],
      "stateMutability": "nonpayable",
      "type": "function"
    },
    {
      "inputs": [
        {
          "internalType": "bytes4",
          "name": "interfaceId",
          "type": "bytes4"
        }
      ],
      "name": "supportsInterface",
      "outputs": [
        {
          "internalType": "bool",
          "name": "",
          "type": "bool"
        }
      ],
      "stateMutability": "view",
      "type": "function"
    },
    {
      "inputs": [],
      "name": "ultraLightNode",
      "outputs": [
        {
          "internalType": "address",
          "name": "",
          "type": "address"
        }
      ],
      "stateMutability": "view",
      "type": "function"
    },
    {
      "inputs": [
        {
          "internalType": "uint16",
          "name": "_srcChainId",
          "type": "uint16"
        },
        {
          "internalType": "bytes32",
          "name": "_blockHash",
          "type": "bytes32"
        },
        {
          "internalType": "uint256",
          "name": "_confirmations",
          "type": "uint256"
        },
        {
          "internalType": "bytes32",
          "name": "_data",
          "type": "bytes32"
        }
      ],
      "name": "updateHash",
      "outputs": [],
      "stateMutability": "nonpayable",
      "type": "function"
    },
    {
      "inputs": [
        {
          "internalType": "address payable",
          "name": "_to",
          "type": "address"
        },
        {
          "internalType": "uint256",
          "name": "_amount",
          "type": "uint256"
        }
      ],
      "name": "withdraw",
      "outputs": [],
      "stateMutability": "nonpayable",
      "type": "function"
    },
    {
      "inputs": [
        {
          "internalType": "address",
          "name": "_remoteUlnAddress",
          "type": "address"
        },
        {
          "internalType": "uint256",
          "name": "_amount",
          "type": "uint256"
        }
      ],
      "name": "withdrawOracleFee",
      "outputs": [],
      "stateMutability": "nonpayable",
      "type": "function"
    },
    {
      "inputs": [
        {
          "internalType": "address",
          "name": "_token",
          "type": "address"
        },
        {
          "internalType": "address",
          "name": "_to",
          "type": "address"
        },
        {
          "internalType": "uint256",
          "name": "_amount",
          "type": "uint256"
        }
      ],
      "name": "withdrawTokens",
      "outputs": [],
      "stateMutability": "nonpayable",
      "type": "function"
    },
    {
      "stateMutability": "payable",
      "type": "receive"
    }
  ],
  "bytecode": "0x60a06040523480156200001157600080fd5b506040516200190e3803806200190e8339810160408190526200003491620001c2565b6001805562000045600084620000f5565b620000717fa49807205ce4d355092ef5a8a18f56e8913cf4a201fbe287825b095693c2177584620000f5565b6200009d7f4ecd63424fb78229a43cc7c124d427932819e322b97e5247ca85f7361247f8b383620000f5565b604080516001600160a01b038086168252841660208201527f197efba2d063c60ad7cad8b9bd432c7ff6b97d6486a1eae5754ad915f81a49e8910160405180910390a16001600160a01b0316608052506200020c9050565b62000101828262000105565b5050565b6000828152602081815260408083206001600160a01b038516845290915290205460ff1662000101576000828152602081815260408083206001600160a01b03851684529091529020805460ff19166001179055620001613390565b6001600160a01b0316816001600160a01b0316837f2f8788117e7eff1d82e926ec794901d17c78024a50270940304540a733656f0d60405160405180910390a45050565b80516001600160a01b0381168114620001bd57600080fd5b919050565b600080600060608486031215620001d857600080fd5b620001e384620001a5565b9250620001f360208501620001a5565b91506200020360408501620001a5565b90509250925092565b6080516116d862000236600039600081816104980152818161074f01526107bf01526116d86000f3fe6080604052600436106101615760003560e01c806380620313116100bf578063bbc2986c11610079578063e024e35211610056578063e024e35214610466578063ebb0496f14610486578063f3fef3a3146104d257005b8063bbc2986c14610406578063d547741f14610426578063da3e33971461044657005b806391d14854116100a757806391d148541461038d57806392f08532146103d1578063a217fddf146103f157005b806380620313146103405780638be3b12d1461036057005b80635e35359e1161011b578063704316e5116100f8578063704316e5146102b8578063716db954146102d857806375b238fc1461030c57005b80635e35359e1461024f578063665305791461026f578063673448dd1461028f57005b8063248a9ca311610149578063248a9ca3146101df5780632f2ff15d1461020f57806336568abe1461022f57005b806301ffc9a71461016a5780630b4d51071461019f57005b3661016857005b005b34801561017657600080fd5b5061018a6101853660046112e4565b6104f2565b60405190151581526020015b60405180910390f35b3480156101ab57600080fd5b506101d16101ba366004611325565b5061ffff1660009081526002602052604090205490565b604051908152602001610196565b3480156101eb57600080fd5b506101d16101fa366004611358565b60009081526020819052604090206001015490565b34801561021b57600080fd5b5061016861022a366004611386565b610529565b34801561023b57600080fd5b5061016861024a366004611386565b610554565b34801561025b57600080fd5b5061016861026a3660046113b6565b6105e5565b34801561027b57600080fd5b5061016861028a3660046113f7565b610676565b34801561029b57600080fd5b5061018a6102aa36600461144b565b6001600160a01b0316301490565b3480156102c457600080fd5b506101686102d3366004611468565b6106f6565b3480156102e457600080fd5b506101d17f4ecd63424fb78229a43cc7c124d427932819e322b97e5247ca85f7361247f8b381565b34801561031857600080fd5b506101d17fa49807205ce4d355092ef5a8a18f56e8913cf4a201fbe287825b095693c2177581565b34801561034c57600080fd5b5061016861035b36600461144b565b610836565b34801561036c57600080fd5b506101d161037b3660046114a1565b60026020526000908152604090205481565b34801561039957600080fd5b5061018a6103a8366004611386565b6000918252602082815260408084206001600160a01b0393909316845291905290205460ff1690565b3480156103dd57600080fd5b506101686103ec36600461144b565b610863565b3480156103fd57600080fd5b506101d1600081565b34801561041257600080fd5b506101686104213660046114bc565b61088d565b34801561043257600080fd5b50610168610441366004611386565b6108d0565b34801561045257600080fd5b506101686104613660046113b6565b6108f6565b34801561047257600080fd5b506101686104813660046114e6565b61098f565b34801561049257600080fd5b506104ba7f000000000000000000000000000000000000000000000000000000000000000081565b6040516001600160a01b039091168152602001610196565b3480156104de57600080fd5b506101686104ed3660046114e6565b610a1f565b60006001600160e01b03198216637965db0b60e01b148061052357506301ffc9a760e01b6001600160e01b03198316145b92915050565b6000828152602081905260409020600101546105458133610b91565b61054f8383610c0f565b505050565b6001600160a01b03811633146105d75760405162461bcd60e51b815260206004820152602f60248201527f416363657373436f6e74726f6c3a2063616e206f6e6c792072656e6f756e636560448201527f20726f6c657320666f722073656c66000000000000000000000000000000000060648201526084015b60405180910390fd5b6105e18282610cad565b5050565b7fa49807205ce4d355092ef5a8a18f56e8913cf4a201fbe287825b095693c217756106108133610b91565b6106246001600160a01b0385168484610d2c565b604080516001600160a01b038087168252851660208201529081018390527f70082d08c003c5341f2401bec1c2ae1dbcdc29ae17e9cc5633fa617caa8acd4c906060015b60405180910390a150505050565b7f4ecd63424fb78229a43cc7c124d427932819e322b97e5247ca85f7361247f8b36106a18133610b91565b6040805161ffff80871682528516602082015267ffffffffffffffff8416918101919091524360608201527f4256706791af2c172ea45793680ce651a2c5888aab234d03b801367119cc419490608001610668565b7fa49807205ce4d355092ef5a8a18f56e8913cf4a201fbe287825b095693c217756107218133610b91565b60405163704316e560e01b815261ffff861660048201526024810185905260448101849052606481018390527f00000000000000000000000000000000000000000000000000000000000000006001600160a01b03169063704316e590608401600060405180830381600087803b15801561079b57600080fd5b505af11580156107af573d6000803e3d6000fd5b5050604080516001600160a01b037f000000000000000000000000000000000000000000000000000000000000000016815261ffff8916602082015290810187905260608101869052608081018590527fd4c6c55530bbc304f670490abc86c71c484a578b13fe92b635443d5bd19947d9925060a001905060405180910390a15050505050565b6108607f4ecd63424fb78229a43cc7c124d427932819e322b97e5247ca85f7361247f8b3826108d0565b50565b6108607f4ecd63424fb78229a43cc7c124d427932819e322b97e5247ca85f7361247f8b382610529565b7fa49807205ce4d355092ef5a8a18f56e8913cf4a201fbe287825b095693c217756108b88133610b91565b5061ffff909116600090815260026020526040902055565b6000828152602081905260409020600101546108ec8133610b91565b61054f8383610cad565b3360009081527f7d7ffb7a348e1c6a02869081a26547b49160dd3df72d1d75a570eb9b698292ec602052604090205460ff166109745760405162461bcd60e51b815260206004820152600a60248201527f41646d696e206f6e6c790000000000000000000000000000000000000000000060448201526064016105ce565b826109896001600160a01b0382168484610da4565b50505050565b7fa49807205ce4d355092ef5a8a18f56e8913cf4a201fbe287825b095693c217756109ba8133610b91565b60405163701271a960e11b8152336004820152602481018390526001600160a01b0384169063e024e35290604401600060405180830381600087803b158015610a0257600080fd5b505af1158015610a16573d6000803e3d6000fd5b50505050505050565b60026001541415610a725760405162461bcd60e51b815260206004820152601f60248201527f5265656e7472616e637947756172643a207265656e7472616e742063616c6c0060448201526064016105ce565b60026001557fa49807205ce4d355092ef5a8a18f56e8913cf4a201fbe287825b095693c21775610aa28133610b91565b6000836001600160a01b03168360405160006040518083038185875af1925050503d8060008114610aef576040519150601f19603f3d011682016040523d82523d6000602084013e610af4565b606091505b5050905080610b455760405162461bcd60e51b815260206004820181905260248201527f4f7261636c65436c69656e743a206661696c656420746f20776974686472617760448201526064016105ce565b604080516001600160a01b0386168152602081018590527f884edad9ce6fa2440d8a54cc123490eb96d2768479d49ff9c7366125a9424364910160405180910390a15050600180555050565b6000828152602081815260408083206001600160a01b038516845290915290205460ff166105e157610bcd816001600160a01b03166014610ec0565b610bd8836020610ec0565b604051602001610be9929190611530565b60408051601f198184030181529082905262461bcd60e51b82526105ce916004016115b1565b6000828152602081815260408083206001600160a01b038516845290915290205460ff166105e1576000828152602081815260408083206001600160a01b03851684529091529020805460ff19166001179055610c693390565b6001600160a01b0316816001600160a01b0316837f2f8788117e7eff1d82e926ec794901d17c78024a50270940304540a733656f0d60405160405180910390a45050565b6000828152602081815260408083206001600160a01b038516845290915290205460ff16156105e1576000828152602081815260408083206001600160a01b0385168085529252808320805460ff1916905551339285917ff6391f5c32d9c69d2a47ea670b442974b53935d1edc7fd64eb21e047a839171b9190a45050565b6040516001600160a01b03831660248201526044810182905261054f90849063a9059cbb60e01b906064015b60408051601f198184030181529190526020810180517bffffffffffffffffffffffffffffffffffffffffffffffffffffffff166001600160e01b031990931692909217909152611070565b801580610e1e5750604051636eb1769f60e11b81523060048201526001600160a01b03838116602483015284169063dd62ed3e90604401602060405180830381865afa158015610df8573d6000803e3d6000fd5b505050506040513d601f19601f82011682018060405250810190610e1c91906115e4565b155b610e905760405162461bcd60e51b815260206004820152603660248201527f5361666545524332303a20617070726f76652066726f6d206e6f6e2d7a65726f60448201527f20746f206e6f6e2d7a65726f20616c6c6f77616e63650000000000000000000060648201526084016105ce565b6040516001600160a01b03831660248201526044810182905261054f90849063095ea7b360e01b90606401610d58565b60606000610ecf836002611613565b610eda906002611632565b67ffffffffffffffff811115610ef257610ef261164a565b6040519080825280601f01601f191660200182016040528015610f1c576020820181803683370190505b509050600360fc1b81600081518110610f3757610f37611660565b60200101906001600160f81b031916908160001a905350600f60fb1b81600181518110610f6657610f66611660565b60200101906001600160f81b031916908160001a9053506000610f8a846002611613565b610f95906001611632565b90505b600181111561101a577f303132333435363738396162636465660000000000000000000000000000000085600f1660108110610fd657610fd6611660565b1a60f81b828281518110610fec57610fec611660565b60200101906001600160f81b031916908160001a90535060049490941c9361101381611676565b9050610f98565b5083156110695760405162461bcd60e51b815260206004820181905260248201527f537472696e67733a20686578206c656e67746820696e73756666696369656e7460448201526064016105ce565b9392505050565b60006110c5826040518060400160405280602081526020017f5361666545524332303a206c6f772d6c6576656c2063616c6c206661696c6564815250856001600160a01b03166111559092919063ffffffff16565b80519091501561054f57808060200190518101906110e3919061168d565b61054f5760405162461bcd60e51b815260206004820152602a60248201527f5361666545524332303a204552433230206f7065726174696f6e20646964206e60448201527f6f7420737563636565640000000000000000000000000000000000000000000060648201526084016105ce565b6060611164848460008561116c565b949350505050565b6060824710156111e45760405162461bcd60e51b815260206004820152602660248201527f416464726573733a20696e73756666696369656e742062616c616e636520666f60448201527f722063616c6c000000000000000000000000000000000000000000000000000060648201526084016105ce565b843b6112325760405162461bcd60e51b815260206004820152601d60248201527f416464726573733a2063616c6c20746f206e6f6e2d636f6e747261637400000060448201526064016105ce565b600080866001600160a01b0316858760405161124e91906116af565b60006040518083038185875af1925050503d806000811461128b576040519150601f19603f3d011682016040523d82523d6000602084013e611290565b606091505b50915091506112a08282866112ab565b979650505050505050565b606083156112ba575081611069565b8251156112ca5782518084602001fd5b8160405162461bcd60e51b81526004016105ce91906115b1565b6000602082840312156112f657600080fd5b81356001600160e01b03198116811461106957600080fd5b803561ffff8116811461132057600080fd5b919050565b6000806040838503121561133857600080fd5b6113418361130e565b915061134f6020840161130e565b90509250929050565b60006020828403121561136a57600080fd5b5035919050565b6001600160a01b038116811461086057600080fd5b6000806040838503121561139957600080fd5b8235915060208301356113ab81611371565b809150509250929050565b6000806000606084860312156113cb57600080fd5b83356113d681611371565b925060208401356113e681611371565b929592945050506040919091013590565b60008060006060848603121561140c57600080fd5b6114158461130e565b92506114236020850161130e565b9150604084013567ffffffffffffffff8116811461144057600080fd5b809150509250925092565b60006020828403121561145d57600080fd5b813561106981611371565b6000806000806080858703121561147e57600080fd5b6114878561130e565b966020860135965060408601359560600135945092505050565b6000602082840312156114b357600080fd5b6110698261130e565b600080604083850312156114cf57600080fd5b6114d88361130e565b946020939093013593505050565b600080604083850312156114f957600080fd5b82356114d881611371565b60005b8381101561151f578181015183820152602001611507565b838111156109895750506000910152565b7f416363657373436f6e74726f6c3a206163636f756e7420000000000000000000815260008351611568816017850160208801611504565b7f206973206d697373696e6720726f6c652000000000000000000000000000000060179184019182015283516115a5816028840160208801611504565b01602801949350505050565b60208152600082518060208401526115d0816040850160208701611504565b601f01601f19169190910160400192915050565b6000602082840312156115f657600080fd5b5051919050565b634e487b7160e01b600052601160045260246000fd5b600081600019048311821515161561162d5761162d6115fd565b500290565b60008219821115611645576116456115fd565b500190565b634e487b7160e01b600052604160045260246000fd5b634e487b7160e01b600052603260045260246000fd5b600081611685576116856115fd565b506000190190565b60006020828403121561169f57600080fd5b8151801515811461106957600080fd5b600082516116c1818460208701611504565b919091019291505056fea164736f6c634300080a000a",
  "linkReferences": {},
  "deployedLinkReferences": {}
}