{
  "_format": "hh-sol-artifact-1",
  "contractName": "FluxP2PFactory",
  "sourceName": "contracts/FluxP2PFactory.sol",
  "abi": [
    {
      "anonymous": false,
      "inputs": [
        {
          "indexed": false,
          "internalType": "string",
          "name": "message",
          "type": "string"
        }
      ],
      "name": "LogTransmitError",
      "type": "event"
    },
    {
      "anonymous": false,
      "inputs": [
        {
          "indexed": true,
          "internalType": "bytes32",
          "name": "id",
          "type": "bytes32"
        },
        {
          "indexed": true,
          "internalType": "address",
          "name": "oracle",
          "type": "address"
        },
        {
          "indexed": false,
          "internalType": "address[]",
          "name": "signers",
          "type": "address[]"
        }
      ],
      "name": "PriceFeedCreated",
      "type": "event"
    },
    {
      "anonymous": false,
      "inputs": [
        {
          "indexed": true,
          "internalType": "bytes32",
          "name": "id",
          "type": "bytes32"
        },
        {
          "indexed": false,
          "internalType": "address",
          "name": "signer",
          "type": "address"
        },
        {
          "indexed": false,
          "internalType": "bool",
          "name": "isAdded",
          "type": "bool"
        }
      ],
      "name": "PriceFeedSignersModified",
      "type": "event"
    },
    {
      "anonymous": false,
      "inputs": [
        {
          "indexed": true,
          "internalType": "bytes32",
          "name": "id",
          "type": "bytes32"
        },
        {
          "indexed": false,
          "internalType": "uint256",
          "name": "roundId",
          "type": "uint256"
        },
        {
          "indexed": false,
          "internalType": "int192",
          "name": "answer",
          "type": "int192"
        },
        {
          "indexed": false,
          "internalType": "uint64",
          "name": "timestamp",
          "type": "uint64"
        },
        {
          "indexed": false,
          "internalType": "uint256",
          "name": "numAnswers",
          "type": "uint256"
        }
      ],
      "name": "PriceFeedTransmitted",
      "type": "event"
    },
    {
      "inputs": [
        {
          "internalType": "bytes32",
          "name": "_id",
          "type": "bytes32"
        }
      ],
      "name": "addressOfPricePair",
      "outputs": [
        {
          "internalType": "address",
          "name": "",
          "type": "address"
        }
      ],
      "stateMutability": "view",
      "type": "function"
    },
    {
      "inputs": [
        {
          "internalType": "bytes32",
          "name": "_id",
          "type": "bytes32"
        },
        {
          "internalType": "bool",
          "name": "cancelTransmitSignature",
          "type": "bool"
        }
      ],
      "name": "cancelSignature",
      "outputs": [],
      "stateMutability": "nonpayable",
      "type": "function"
    },
    {
      "inputs": [
        {
          "internalType": "string",
          "name": "_pricePair",
          "type": "string"
        },
        {
          "internalType": "uint8",
          "name": "_decimals",
          "type": "uint8"
        },
        {
          "internalType": "address[]",
          "name": "_signers",
          "type": "address[]"
        }
      ],
      "name": "deployOracle",
      "outputs": [],
      "stateMutability": "nonpayable",
      "type": "function"
    },
    {
      "inputs": [
        {
          "internalType": "string",
          "name": "_pricePair",
          "type": "string"
        },
        {
          "internalType": "uint8",
          "name": "_decimals",
          "type": "uint8"
        },
        {
          "internalType": "address",
          "name": "_creator",
          "type": "address"
        }
      ],
      "name": "hashFeedId",
      "outputs": [
        {
          "internalType": "bytes32",
          "name": "",
          "type": "bytes32"
        }
      ],
      "stateMutability": "pure",
      "type": "function"
    },
    {
      "inputs": [
        {
          "internalType": "bytes32",
          "name": "_id",
          "type": "bytes32"
        }
      ],
      "name": "latestRoundOfPricePair",
      "outputs": [
        {
          "internalType": "uint256",
          "name": "",
          "type": "uint256"
        }
      ],
      "stateMutability": "view",
      "type": "function"
    },
    {
      "inputs": [
        {
          "internalType": "bytes32",
          "name": "_id",
          "type": "bytes32"
        }
      ],
      "name": "latestSignerModificationRound",
      "outputs": [
        {
          "internalType": "uint256",
          "name": "",
          "type": "uint256"
        }
      ],
      "stateMutability": "view",
      "type": "function"
    },
    {
      "inputs": [
        {
          "internalType": "bytes32",
          "name": "_id",
          "type": "bytes32"
        }
      ],
      "name": "minSignersOfPricePair",
      "outputs": [
        {
          "internalType": "uint256",
          "name": "",
          "type": "uint256"
        }
      ],
      "stateMutability": "view",
      "type": "function"
    },
    {
      "inputs": [
        {
          "internalType": "bytes[]",
          "name": "_signatures",
          "type": "bytes[]"
        },
        {
          "internalType": "bytes32",
          "name": "_id",
          "type": "bytes32"
        },
        {
          "internalType": "address",
          "name": "_signer",
          "type": "address"
        },
        {
          "internalType": "bool",
          "name": "_add",
          "type": "bool"
        }
      ],
      "name": "modifySigners",
      "outputs": [],
      "stateMutability": "nonpayable",
      "type": "function"
    },
    {
      "inputs": [
        {
          "internalType": "bytes[]",
          "name": "_signatures",
          "type": "bytes[]"
        },
        {
          "internalType": "bytes32",
          "name": "_id",
          "type": "bytes32"
        },
        {
          "internalType": "int192[]",
          "name": "_answers",
          "type": "int192[]"
        },
        {
          "internalType": "uint64[]",
          "name": "_timestamps",
          "type": "uint64[]"
        }
      ],
      "name": "transmit",
      "outputs": [],
      "stateMutability": "nonpayable",
      "type": "function"
    },
    {
      "inputs": [
        {
          "internalType": "bytes[][]",
          "name": "_signatures",
          "type": "bytes[][]"
        },
        {
          "internalType": "bytes32[]",
          "name": "_id",
          "type": "bytes32[]"
        },
        {
          "internalType": "int192[][]",
          "name": "_answers",
          "type": "int192[][]"
        },
        {
          "internalType": "uint64[][]",
          "name": "_timestamps",
          "type": "uint64[][]"
        }
      ],
      "name": "transmitBatch",
      "outputs": [],
      "stateMutability": "nonpayable",
      "type": "function"
    },
    {
      "inputs": [],
      "name": "typeAndVersion",
      "outputs": [
        {
          "internalType": "string",
          "name": "",
          "type": "string"
        }
      ],
      "stateMutability": "view",
      "type": "function"
    },
    {
      "inputs": [
        {
          "internalType": "bytes32",
          "name": "_id",
          "type": "bytes32"
        }
      ],
      "name": "valueFor",
      "outputs": [
        {
          "internalType": "int256",
          "name": "",
          "type": "int256"
        },
        {
          "internalType": "uint256",
          "name": "",
          "type": "uint256"
        },
        {
          "internalType": "uint256",
          "name": "",
          "type": "uint256"
        }
      ],
      "stateMutability": "view",
      "type": "function"
    }
  ],
  "bytecode": "0x608060405234801561001057600080fd5b5061426d806100206000396000f3fe60806040523480156200001157600080fd5b5060043610620000e55760003560e01c8063c77715f3116200008b578063dddc13a01162000062578063dddc13a0146200024f578063e4f627f31462000266578063f78eea83146200028c57600080fd5b8063c77715f314620001fb578063c94bfbfb1462000212578063d1d64450146200022957600080fd5b806360860d8311620000c057806360860d8314620001b4578063a5960e0d14620001cd578063c196ba7e14620001e457600080fd5b80630248009514620000ea578063181f5a77146200011457806343f8f8021462000155575b600080fd5b62000101620000fb36600462002149565b620002bf565b6040519081526020015b60405180910390f35b604080518082018252601481527f466c7578503250466163746f727920312e312e30000000000000000000000000602082015290516200010b9190620021e9565b6200018e620001663660046200223c565b60009081526020819052604090205473ffffffffffffffffffffffffffffffffffffffff1690565b60405173ffffffffffffffffffffffffffffffffffffffff90911681526020016200010b565b620001cb620001c53660046200229e565b62000386565b005b620001cb620001de36600462002380565b620004ce565b620001cb620001f5366004620023f6565b620009a0565b620001cb6200020c36600462002425565b62000b36565b62000101620002233660046200223c565b62000b50565b620001016200023a3660046200223c565b60009081526020819052604090206002015490565b620001cb6200026036600462002550565b62000bf6565b62000101620002773660046200223c565b60009081526020819052604090206001015490565b620002a36200029d3660046200223c565b62000ee0565b604080519384526020840192909252908201526060016200010b565b6000808585620002d28660ff166200100d565b6040517fffffffffffffffffffffffffffffffffffffffff000000000000000000000000606088901b166020820152603401604080517fffffffffffffffffffffffffffffffffffffffffffffffffffffffffffffffe081840301815290829052620003449493929160200162002648565b604080517fffffffffffffffffffffffffffffffffffffffffffffffffffffffffffffffe081840301815291905280516020909101209150505b949350505050565b8683811480156200039657508181145b62000402576040517f08c379a000000000000000000000000000000000000000000000000000000000815260206004820152601060248201527f4c656e67746873206d69736d617463680000000000000000000000000000000060448201526064015b60405180910390fd5b60005b81811015620004c257620004af8a8a83818110620004275762000427620026de565b90506020028101906200043b91906200270d565b8a8a85818110620004505762000450620026de565b905060200201358989868181106200046c576200046c620026de565b90506020028101906200048091906200270d565b898988818110620004955762000495620026de565b9050602002810190620004a991906200270d565b6200115a565b620004ba81620027a7565b905062000405565b50505050505050505050565b6000838152602081905260409020620004eb906003013362001b7b565b62000553576040517f08c379a000000000000000000000000000000000000000000000000000000000815260206004820152600e60248201527f496e76616c69642063616c6c65720000000000000000000000000000000000006044820152606401620003f9565b600083815260208190526040902060010154841015620005d0576040517f08c379a000000000000000000000000000000000000000000000000000000000815260206004820152600f60248201527f546f6f20666577207369676e65727300000000000000000000000000000000006044820152606401620003f9565b600083815260208190526040812060020154620005ef906001620027e2565b90506000620006cd858386866040516020016200064f9493929190938452602084019290925260601b7fffffffffffffffffffffffffffffffffffffffff000000000000000000000000166040830152151560f81b605482015260550190565b604080517fffffffffffffffffffffffffffffffffffffffffffffffffffffffffffffffe081840301815282825280516020918201207f19457468657265756d205369676e6564204d6573736167653a0a33320000000084830152603c8085019190915282518085039091018152605c909301909152815191012090565b905060005b868110156200081d57600062000712838a8a85818110620006f757620006f7620026de565b90506020028101906200070b9190620027fd565b8a62001baf565b60008881526020818152604080832073ffffffffffffffffffffffffffffffffffffffff851684526006019091529020549091508411620007d6576040517f08c379a000000000000000000000000000000000000000000000000000000000815260206004820152602760248201527f4475706c6963617465207369676e6572206f722063616e63656c6c656420736960448201527f676e6174757265000000000000000000000000000000000000000000000000006064820152608401620003f9565b60008781526020818152604080832073ffffffffffffffffffffffffffffffffffffffff909416835260069093019052208390556200081581620027a7565b9050620006d2565b5082156200084957600085815260208190526040902062000842906003018562001d09565b50620008f0565b6000858152602081905260409020600290620008689060030162001d2d565b11620008d1576040517f08c379a000000000000000000000000000000000000000000000000000000000815260206004820152600f60248201527f4e656564203e31207369676e65727300000000000000000000000000000000006044820152606401620003f9565b6000858152602081905260409020620008ee906003018562001d38565b505b60008581526020819052604090206200091790620009119060030162001d2d565b62001d5c565b6000868152602081905260408120600181019290925560029091018054916200094083620027a7565b90915550506040805173ffffffffffffffffffffffffffffffffffffffff86168152841515602082015286917fb1ab8a626d7a1fc03f9080167913ccf400f063dda8940b28aad0560688e8a9ed910160405180910390a250505050505050565b6000828152602081905260409020620009bd906003013362001b7b565b62000a25576040517f08c379a000000000000000000000000000000000000000000000000000000000815260206004820152600e60248201527f496e76616c69642063616c6c65720000000000000000000000000000000000006044820152606401620003f9565b801562000af857600082815260208181526040918290205482517f668a0f02000000000000000000000000000000000000000000000000000000008152925173ffffffffffffffffffffffffffffffffffffffff90911692839263668a0f02926004808401938290030181865afa15801562000aa5573d6000803e3d6000fd5b505050506040513d601f19601f8201168201806040525081019062000acb919062002865565b62000ad8906001620027e2565b600084815260208181526040808320338452600501909152902055505050565b60008281526020819052604090206002015462000b17906001620027e2565b6000838152602081815260408083203384526006019091529020555050565b62000b47878787878787876200115a565b50505050505050565b6000818152602081815260408083205481517f668a0f02000000000000000000000000000000000000000000000000000000008152915173ffffffffffffffffffffffffffffffffffffffff90911692839263668a0f0292600480830193928290030181865afa15801562000bc9573d6000803e3d6000fd5b505050506040513d601f19601f8201168201806040525081019062000bef919062002865565b9392505050565b600181511162000c63576040517f08c379a000000000000000000000000000000000000000000000000000000000815260206004820152600f60248201527f4d757374203e31207369676e65727300000000000000000000000000000000006044820152606401620003f9565b600062000c7385858533620002bf565b60008181526020819052604090205490915073ffffffffffffffffffffffffffffffffffffffff161562000d04576040517f08c379a000000000000000000000000000000000000000000000000000000000815260206004820152601060248201527f416c7265616479206465706c6f796564000000000000000000000000000000006044820152606401620003f9565b60003084878760405162000d1890620020ba565b62000d2794939291906200287f565b604051809103906000f08015801562000d44573d6000803e3d6000fd5b50600083815260208190526040902080547fffffffffffffffffffffffff00000000000000000000000000000000000000001673ffffffffffffffffffffffffffffffffffffffff8316179055835190915062000da19062001d5c565b6000838152602081905260408120600101919091555b835181101562000e865762000e0684828151811062000dda5762000dda620026de565b602002602001015160008086815260200190815260200160002060030162001d0990919063ffffffff16565b151560011462000e73576040517f08c379a000000000000000000000000000000000000000000000000000000000815260206004820152601060248201527f4475706c6963617465207369676e6572000000000000000000000000000000006044820152606401620003f9565b62000e7e81620027a7565b905062000db7565b508073ffffffffffffffffffffffffffffffffffffffff16827f3e12f2323f06353939ca298dd03054e4046474f58a6153afc7b9aaebe2a19dfd8560405162000ed09190620028f3565b60405180910390a3505050505050565b6000818152602081905260408120548190819073ffffffffffffffffffffffffffffffffffffffff161562000ffa57600084815260208190526040908190205481517ffeaf968c000000000000000000000000000000000000000000000000000000008152915173ffffffffffffffffffffffffffffffffffffffff9091169163feaf968c9160048083019260a09291908290030181865afa92505050801562000fc7575060408051601f3d9081017fffffffffffffffffffffffffffffffffffffffffffffffffffffffffffffffe016820190925262000fc4918101906200296a565b60015b1562000ffa5769ffffffffffffffffffff85161562000ff4575091955090935060c8925062001006915050565b50505050505b50600091508190506101945b9193909250565b6060816000036200105157505060408051808201909152600181527f3000000000000000000000000000000000000000000000000000000000000000602082015290565b8160005b81156200108157806200106881620027a7565b9150620010799050600a83620029e2565b915062001055565b60008167ffffffffffffffff8111156200109f576200109f620024d3565b6040519080825280601f01601f191660200182016040528015620010ca576020820181803683370190505b5090505b84156200037e57620010e2600183620029f9565b9150620010f1600a8662002a13565b620010fe906030620027e2565b60f81b818381518110620011165762001116620026de565b60200101907effffffffffffffffffffffffffffffffffffffffffffffffffffffffffffff1916908160001a90535062001152600a86620029e2565b9450620010ce565b600085815260208190526040902062001177906003013362001b7b565b620011df576040517f08c379a000000000000000000000000000000000000000000000000000000000815260206004820152600e60248201527f496e76616c69642063616c6c65720000000000000000000000000000000000006044820152606401620003f9565b858381148015620011ef57508181145b62001257576040517f08c379a000000000000000000000000000000000000000000000000000000000815260206004820152601060248201527f4c656e67746873206d69736d61746368000000000000000000000000000000006044820152606401620003f9565b600086815260208190526040902060010154811015620012d4576040517f08c379a000000000000000000000000000000000000000000000000000000000815260206004820152600f60248201527f546f6f20666577207369676e65727300000000000000000000000000000000006044820152606401620003f9565b6000868152602081815260408083205481517f668a0f02000000000000000000000000000000000000000000000000000000008152915173ffffffffffffffffffffffffffffffffffffffff9091169392849263668a0f0292600480830193928290030181865afa1580156200134e573d6000803e3d6000fd5b505050506040513d601f19601f8201168201806040525081019062001374919062002865565b62001381906001620027e2565b905060008273ffffffffffffffffffffffffffffffffffffffff16638205bf6a6040518163ffffffff1660e01b8152600401602060405180830381865afa158015620013d1573d6000803e3d6000fd5b505050506040513d601f19601f82011682018060405250810190620013f7919062002865565b905060005b848110156200182b576000620014b28b858c8c86818110620014225762001422620026de565b905060200201602081019062001439919062002a2a565b8b8b878181106200144e576200144e620026de565b905060200201602081019062001465919062002a4f565b60408051602081019590955284810193909352911b606083015260c01b7fffffffffffffffff0000000000000000000000000000000000000000000000001660788201526080016200064f565b90506000620014eb828f8f86818110620014d057620014d0620026de565b9050602002810190620014e49190620027fd565b8f62001baf565b905083898985818110620015035762001503620026de565b90506020020160208101906200151a919062002a4f565b67ffffffffffffffff16116200158d576040517f08c379a000000000000000000000000000000000000000000000000000000000815260206004820152600f60248201527f5374616c652074696d657374616d7000000000000000000000000000000000006044820152606401620003f9565b6200159a42603c620027e2565b898985818110620015af57620015af620026de565b9050602002016020810190620015c6919062002a4f565b67ffffffffffffffff161062001639576040517f08c379a000000000000000000000000000000000000000000000000000000000815260206004820152601060248201527f4675747572652074696d657374616d70000000000000000000000000000000006044820152606401620003f9565b62001646600188620029f9565b83101562001722578a8a6200165d856001620027e2565b8181106200166f576200166f620026de565b905060200201602081019062001686919062002a2a565b60170b8b8b858181106200169e576200169e620026de565b9050602002016020810190620016b5919062002a2a565b60170b131562001722576040517f08c379a000000000000000000000000000000000000000000000000000000000815260206004820152600a60248201527f4e6f7420736f72746564000000000000000000000000000000000000000000006044820152606401620003f9565b60008c81526020818152604080832073ffffffffffffffffffffffffffffffffffffffff851684526005019091529020548511620017e3576040517f08c379a000000000000000000000000000000000000000000000000000000000815260206004820152602760248201527f4475706c6963617465207369676e6572206f722063616e63656c6c656420736960448201527f676e6174757265000000000000000000000000000000000000000000000000006064820152608401620003f9565b60008c81526020818152604080832073ffffffffffffffffffffffffffffffffffffffff90941683526005909301905220849055506200182381620027a7565b9050620013fc565b50600184901c6000806200184160028862002a13565b6000036200194f5760028b8b85818110620018605762001860620026de565b905060200201602081019062001877919062002a2a565b8c8c62001886600188620029f9565b818110620018985762001898620026de565b9050602002016020810190620018af919062002a2a565b620018bb919062002a7b565b620018c7919062002af9565b91506002898985818110620018e057620018e0620026de565b9050602002016020810190620018f7919062002a4f565b8a8a62001906600188620029f9565b818110620019185762001918620026de565b90506020020160208101906200192f919062002a4f565b6200193b919062002b73565b62001947919062002ba2565b9050620019ac565b8a8a84818110620019645762001964620026de565b90506020020160208101906200197b919062002a2a565b9150888884818110620019925762001992620026de565b9050602002016020810190620019a9919062002a4f565b90505b6040517f2915d91f000000000000000000000000000000000000000000000000000000008152601783900b600482015267ffffffffffffffff8216602482015273ffffffffffffffffffffffffffffffffffffffff871690632915d91f90604401600060405180830381600087803b15801562001a2857600080fd5b505af192505050801562001a3a575060015b62001b155762001a4962002bcc565b806308c379a00362001b09575062001a6062002be9565b8062001a6d575062001b0b565b7fa949e8e13ee60ad98bde402bc48566d091725645696728a153b6d93edb436b678160405162001a9e9190620021e9565b60405180910390a16040517f08c379a000000000000000000000000000000000000000000000000000000000815260206004820152600f60248201527f5472616e736d6974206661696c656400000000000000000000000000000000006044820152606401620003f9565b505b3d6000803e3d6000fd5b60408051868152601784900b602082015267ffffffffffffffff8316818301526060810189905290518d917f8005ada2c7f390528900ab38d056efed559839c17538e80edc4c07f5699367ad919081900360800190a25050505050505050505050505050565b73ffffffffffffffffffffffffffffffffffffffff8116600090815260018301602052604081205415155b90505b92915050565b600080600062001bf68787878080601f01602080910402602001604051908101604052809392919081815260200183838082843760009201919091525062001d7892505050565b9092509050600081600481111562001c125762001c1262002c97565b0362001ca657600084815260208190526040902062001c35906003018362001b7b565b62001c9d576040517f08c379a000000000000000000000000000000000000000000000000000000000815260206004820152601160248201527f496e76616c6964207369676e61747572650000000000000000000000000000006044820152606401620003f9565b5090506200037e565b6040517f08c379a000000000000000000000000000000000000000000000000000000000815260206004820152601160248201527f496e76616c6964207369676e61747572650000000000000000000000000000006044820152606401620003f9565b600062001ba68373ffffffffffffffffffffffffffffffffffffffff841662001dee565b600062001ba9825490565b600062001ba68373ffffffffffffffffffffffffffffffffffffffff841662001e40565b600062001d6b600283620029e2565b62001ba9906001620027e2565b600080825160410362001db25760208301516040840151606085015160001a62001da58782858562001f44565b9450945050505062001de7565b825160400362001ddf576020830151604084015162001dd386838362002064565b93509350505062001de7565b506000905060025b9250929050565b600081815260018301602052604081205462001e375750815460018181018455600084815260208082209093018490558454848252828601909352604090209190915562001ba9565b50600062001ba9565b6000818152600183016020526040812054801562001f3957600062001e67600183620029f9565b855490915060009062001e7d90600190620029f9565b905081811462001ee957600086600001828154811062001ea15762001ea1620026de565b906000526020600020015490508087600001848154811062001ec75762001ec7620026de565b6000918252602080832090910192909255918252600188019052604090208390555b855486908062001efd5762001efd62002cc6565b60019003818190600052602060002001600090559055856001016000868152602001908152602001600020600090556001935050505062001ba9565b600091505062001ba9565b6000807f7fffffffffffffffffffffffffffffff5d576e7357a4501ddfe92f46681b20a083111562001f7d57506000905060036200205b565b8460ff16601b1415801562001f9657508460ff16601c14155b1562001fa957506000905060046200205b565b6040805160008082526020820180845289905260ff881692820192909252606081018690526080810185905260019060a0016020604051602081039080840390855afa15801562001ffe573d6000803e3d6000fd5b50506040517fffffffffffffffffffffffffffffffffffffffffffffffffffffffffffffffe0015191505073ffffffffffffffffffffffffffffffffffffffff811662002054576000600192509250506200205b565b9150600090505b94509492505050565b6000807f7fffffffffffffffffffffffffffffffffffffffffffffffffffffffffffffff8316816200209c60ff86901c601b620027e2565b9050620020ac8782888562001f44565b935093505050935093915050565b61156b8062002cf683390190565b60008083601f840112620020db57600080fd5b50813567ffffffffffffffff811115620020f457600080fd5b60208301915083602082850101111562001de757600080fd5b803560ff811681146200211f57600080fd5b919050565b803573ffffffffffffffffffffffffffffffffffffffff811681146200211f57600080fd5b600080600080606085870312156200216057600080fd5b843567ffffffffffffffff8111156200217857600080fd5b6200218687828801620020c8565b90955093506200219b9050602086016200210d565b9150620021ab6040860162002124565b905092959194509250565b60005b83811015620021d3578181015183820152602001620021b9565b83811115620021e3576000848401525b50505050565b60208152600082518060208401526200220a816040850160208701620021b6565b601f017fffffffffffffffffffffffffffffffffffffffffffffffffffffffffffffffe0169190910160400192915050565b6000602082840312156200224f57600080fd5b5035919050565b60008083601f8401126200226957600080fd5b50813567ffffffffffffffff8111156200228257600080fd5b6020830191508360208260051b850101111562001de757600080fd5b6000806000806000806000806080898b031215620022bb57600080fd5b883567ffffffffffffffff80821115620022d457600080fd5b620022e28c838d0162002256565b909a50985060208b0135915080821115620022fc57600080fd5b6200230a8c838d0162002256565b909850965060408b01359150808211156200232457600080fd5b620023328c838d0162002256565b909650945060608b01359150808211156200234c57600080fd5b506200235b8b828c0162002256565b999c989b5096995094979396929594505050565b803580151581146200211f57600080fd5b6000806000806000608086880312156200239957600080fd5b853567ffffffffffffffff811115620023b157600080fd5b620023bf8882890162002256565b90965094505060208601359250620023da6040870162002124565b9150620023ea606087016200236f565b90509295509295909350565b600080604083850312156200240a57600080fd5b823591506200241c602084016200236f565b90509250929050565b60008060008060008060006080888a0312156200244157600080fd5b873567ffffffffffffffff808211156200245a57600080fd5b620024688b838c0162002256565b909950975060208a0135965060408a01359150808211156200248957600080fd5b620024978b838c0162002256565b909650945060608a0135915080821115620024b157600080fd5b50620024c08a828b0162002256565b989b979a50959850939692959293505050565b7f4e487b7100000000000000000000000000000000000000000000000000000000600052604160045260246000fd5b7fffffffffffffffffffffffffffffffffffffffffffffffffffffffffffffffe0601f830116810181811067ffffffffffffffff82111715620025495762002549620024d3565b6040525050565b600080600080606085870312156200256757600080fd5b843567ffffffffffffffff808211156200258057600080fd5b6200258e88838901620020c8565b909650945060209150620025a48783016200210d565b9350604087013581811115620025b957600080fd5b8701601f81018913620025cb57600080fd5b803582811115620025e057620025e0620024d3565b8060051b9250604051620025f78585018262002502565b8181529282018401928481018b8511156200261157600080fd5b928501925b8484101562002638576200262a8462002124565b815292850192850162002616565b50979a9699509497505050505050565b7f50726963652d000000000000000000000000000000000000000000000000000081528385600683013760008482017f2d000000000000000000000000000000000000000000000000000000000000008060068301528551620026b3816007850160208a01620021b6565b60079201918201528351620026d0816008840160208801620021b6565b016008019695505050505050565b7f4e487b7100000000000000000000000000000000000000000000000000000000600052603260045260246000fd5b60008083357fffffffffffffffffffffffffffffffffffffffffffffffffffffffffffffffe18436030181126200274357600080fd5b83018035915067ffffffffffffffff8211156200275f57600080fd5b6020019150600581901b360382131562001de757600080fd5b7f4e487b7100000000000000000000000000000000000000000000000000000000600052601160045260246000fd5b60007fffffffffffffffffffffffffffffffffffffffffffffffffffffffffffffffff8203620027db57620027db62002778565b5060010190565b60008219821115620027f857620027f862002778565b500190565b60008083357fffffffffffffffffffffffffffffffffffffffffffffffffffffffffffffffe18436030181126200283357600080fd5b83018035915067ffffffffffffffff8211156200284f57600080fd5b60200191503681900382131562001de757600080fd5b6000602082840312156200287857600080fd5b5051919050565b73ffffffffffffffffffffffffffffffffffffffff8516815260ff8416602082015260606040820152816060820152818360808301376000818301608090810191909152601f9092017fffffffffffffffffffffffffffffffffffffffffffffffffffffffffffffffe01601019392505050565b6020808252825182820181905260009190848201906040850190845b818110156200294357835173ffffffffffffffffffffffffffffffffffffffff16835292840192918401916001016200290f565b50909695505050505050565b805169ffffffffffffffffffff811681146200211f57600080fd5b600080600080600060a086880312156200298357600080fd5b6200298e866200294f565b9450602086015193506040860151925060608601519150620023ea608087016200294f565b7f4e487b7100000000000000000000000000000000000000000000000000000000600052601260045260246000fd5b600082620029f457620029f4620029b3565b500490565b60008282101562002a0e5762002a0e62002778565b500390565b60008262002a255762002a25620029b3565b500690565b60006020828403121562002a3d57600080fd5b81358060170b811462000bef57600080fd5b60006020828403121562002a6257600080fd5b813567ffffffffffffffff8116811462000bef57600080fd5b60008160170b8360170b6000821282777fffffffffffffffffffffffffffffffffffffffffffffff0382138115161562002ab95762002ab962002778565b827fffffffffffffffff80000000000000000000000000000000000000000000000003821281161562002af05762002af062002778565b50019392505050565b60008160170b8360170b8062002b135762002b13620029b3565b7fffffffffffffffffffffffffffffffffffffffffffffffffffffffffffffffff81147fffffffffffffffff8000000000000000000000000000000000000000000000008314161562002b6a5762002b6a62002778565b90059392505050565b600067ffffffffffffffff80831681851680830382111562002b995762002b9962002778565b01949350505050565b600067ffffffffffffffff8084168062002bc05762002bc0620029b3565b92169190910492915050565b600060033d111562002be65760046000803e5060005160e01c5b90565b600060443d101562002bf85790565b6040517ffffffffffffffffffffffffffffffffffffffffffffffffffffffffffffffffc803d016004833e81513d67ffffffffffffffff816024840111818411171562002c4757505050505090565b828501915081518181111562002c605750505050505090565b843d870101602082850101111562002c7b5750505050505090565b62002c8c6020828601018762002502565b509095945050505050565b7f4e487b7100000000000000000000000000000000000000000000000000000000600052602160045260246000fd5b7f4e487b7100000000000000000000000000000000000000000000000000000000600052603160045260246000fdfe60a06040523480156200001157600080fd5b506040516200156b3803806200156b8339810160408190526200003491620001f0565b6200004160003362000093565b6200006d7f21702c8af46127c7fa207f89d0b0a8441bb32959a0ac7df790e9ab1a25c989268462000093565b60ff821660805280516200008990600390602084019062000134565b5050505062000346565b6000828152602081815260408083206001600160a01b038516845290915290205460ff1662000130576000828152602081815260408083206001600160a01b03851684529091529020805460ff19166001179055620000ef3390565b6001600160a01b0316816001600160a01b0316837f2f8788117e7eff1d82e926ec794901d17c78024a50270940304540a733656f0d60405160405180910390a45b5050565b82805462000142906200030a565b90600052602060002090601f016020900481019282620001665760008555620001b1565b82601f106200018157805160ff1916838001178555620001b1565b82800160010185558215620001b1579182015b82811115620001b157825182559160200191906001019062000194565b50620001bf929150620001c3565b5090565b5b80821115620001bf5760008155600101620001c4565b634e487b7160e01b600052604160045260246000fd5b6000806000606084860312156200020657600080fd5b83516001600160a01b03811681146200021e57600080fd5b8093505060208085015160ff811681146200023857600080fd5b60408601519093506001600160401b03808211156200025657600080fd5b818701915087601f8301126200026b57600080fd5b815181811115620002805762000280620001da565b604051601f8201601f19908116603f01168101908382118183101715620002ab57620002ab620001da565b816040528281528a86848701011115620002c457600080fd5b600093505b82841015620002e85784840186015181850187015292850192620002c9565b82841115620002fa5760008684830101525b8096505050505050509250925092565b600181811c908216806200031f57607f821691505b6020821081036200034057634e487b7160e01b600052602260045260246000fd5b50919050565b60805161120962000362600039600061024f01526112096000f3fe608060405234801561001057600080fd5b50600436106101825760003560e01c80637284e416116100d8578063b5ab58dc1161008c578063d547741f11610066578063d547741f146103f1578063e5fe457714610404578063feaf968c1461046557600080fd5b8063b5ab58dc146103a4578063b633620c146103b7578063c49baebe146103ca57600080fd5b806391d14854116100bd57806391d148541461030e5780639a6fc8f514610352578063a217fddf1461039c57600080fd5b80637284e416146102c95780638205bf6a146102d157600080fd5b8063313ce5671161013a57806354fd4d501161011457806354fd4d50146102b05780635ed63b40146102b8578063668a0f02146102c157600080fd5b8063313ce5671461024a57806336568abe1461028357806350d25bcd1461029657600080fd5b8063248a9ca31161016b578063248a9ca3146101f15780632915d91f146102225780632f2ff15d1461023757600080fd5b806301ffc9a714610187578063181f5a77146101af575b600080fd5b61019a610195366004610e47565b6104c4565b60405190151581526020015b60405180910390f35b60408051808201909152601381527f466c757850726963654665656420312e322e310000000000000000000000000060208201525b6040516101a69190610eb9565b6102146101ff366004610f0a565b60009081526020819052604090206001015490565b6040519081526020016101a6565b610235610230366004610f23565b61055d565b005b610235610245366004610f6f565b61066d565b6102717f000000000000000000000000000000000000000000000000000000000000000081565b60405160ff90911681526020016101a6565b610235610291366004610f6f565b610697565b60015460009081526002602052604090205460170b610214565b610214600181565b61021460015481565b600154610214565b6101e461074f565b6001546000908152600260205260409020547801000000000000000000000000000000000000000000000000900467ffffffffffffffff16610214565b61019a61031c366004610f6f565b60009182526020828152604080842073ffffffffffffffffffffffffffffffffffffffff93909316845291905290205460ff1690565b610365610360366004610fad565b6107e1565b6040805169ffffffffffffffffffff968716815260208101959095528401929092526060830152909116608082015260a0016101a6565b610214600081565b6102146103b2366004610f0a565b6108d9565b6102146103c5366004610f0a565b610905565b6102147f21702c8af46127c7fa207f89d0b0a8441bb32959a0ac7df790e9ab1a25c9892681565b6102356103ff366004610f6f565b610954565b600154600090815260026020526040902054601781900b907801000000000000000000000000000000000000000000000000900467ffffffffffffffff166040805160179390930b835267ffffffffffffffff9091166020830152016101a6565b610365600154600081815260026020908152604091829020825180840190935254601781900b808452780100000000000000000000000000000000000000000000000090910467ffffffffffffffff1692909101829052919281908490565b60007fffffffff0000000000000000000000000000000000000000000000000000000082167f7965db0b00000000000000000000000000000000000000000000000000000000148061055757507f01ffc9a7000000000000000000000000000000000000000000000000000000007fffffffff000000000000000000000000000000000000000000000000000000008316145b92915050565b7f21702c8af46127c7fa207f89d0b0a8441bb32959a0ac7df790e9ab1a25c9892661058781610979565b60405180604001604052808460170b81526020018367ffffffffffffffff16815250600260006001600081546105bc90611008565b91829055508152602080820192909252604090810160002083519383015177ffffffffffffffffffffffffffffffffffffffffffffffff909416780100000000000000000000000000000000000000000000000067ffffffffffffffff958616021790556001548151601788900b81523393810193909352928516908201527f124437ac9b3b1f8b3cfa2b6d2e50165f5350d8a76cd2779fe63da1a051e599dc9060600160405180910390a2505050565b60008281526020819052604090206001015461068881610979565b6106928383610986565b505050565b73ffffffffffffffffffffffffffffffffffffffff81163314610741576040517f08c379a000000000000000000000000000000000000000000000000000000000815260206004820152602f60248201527f416363657373436f6e74726f6c3a2063616e206f6e6c792072656e6f756e636560448201527f20726f6c657320666f722073656c66000000000000000000000000000000000060648201526084015b60405180910390fd5b61074b8282610a76565b5050565b60606003805461075e90611040565b80601f016020809104026020016040519081016040528092919081815260200182805461078a90611040565b80156107d75780601f106107ac576101008083540402835291602001916107d7565b820191906000526020600020905b8154815290600101906020018083116107ba57829003601f168201915b5050505050905090565b600080600080600063ffffffff8669ffffffffffffffffffff1611156040518060400160405280600f81526020017f4e6f20646174612070726573656e7400000000000000000000000000000000008152509061086b576040517f08c379a00000000000000000000000000000000000000000000000000000000081526004016107389190610eb9565b5050505069ffffffffffffffffffff8316600090815260026020908152604091829020825180840190935254601781900b808452780100000000000000000000000000000000000000000000000090910467ffffffffffffffff169290910182905293949092508291508490565b600063ffffffff8211156108ef57506000919050565b5060009081526002602052604090205460170b90565b600063ffffffff82111561091b57506000919050565b506000908152600260205260409020547801000000000000000000000000000000000000000000000000900467ffffffffffffffff1690565b60008281526020819052604090206001015461096f81610979565b6106928383610a76565b6109838133610b2d565b50565b60008281526020818152604080832073ffffffffffffffffffffffffffffffffffffffff8516845290915290205460ff1661074b5760008281526020818152604080832073ffffffffffffffffffffffffffffffffffffffff85168452909152902080547fffffffffffffffffffffffffffffffffffffffffffffffffffffffffffffff00166001179055610a183390565b73ffffffffffffffffffffffffffffffffffffffff168173ffffffffffffffffffffffffffffffffffffffff16837f2f8788117e7eff1d82e926ec794901d17c78024a50270940304540a733656f0d60405160405180910390a45050565b60008281526020818152604080832073ffffffffffffffffffffffffffffffffffffffff8516845290915290205460ff161561074b5760008281526020818152604080832073ffffffffffffffffffffffffffffffffffffffff8516808552925280832080547fffffffffffffffffffffffffffffffffffffffffffffffffffffffffffffff0016905551339285917ff6391f5c32d9c69d2a47ea670b442974b53935d1edc7fd64eb21e047a839171b9190a45050565b60008281526020818152604080832073ffffffffffffffffffffffffffffffffffffffff8516845290915290205460ff1661074b57610b838173ffffffffffffffffffffffffffffffffffffffff166014610bfd565b610b8e836020610bfd565b604051602001610b9f929190611093565b604080517fffffffffffffffffffffffffffffffffffffffffffffffffffffffffffffffe0818403018152908290527f08c379a000000000000000000000000000000000000000000000000000000000825261073891600401610eb9565b60606000610c0c836002611114565b610c17906002611151565b67ffffffffffffffff811115610c2f57610c2f611169565b6040519080825280601f01601f191660200182016040528015610c59576020820181803683370190505b5090507f300000000000000000000000000000000000000000000000000000000000000081600081518110610c9057610c90611198565b60200101907effffffffffffffffffffffffffffffffffffffffffffffffffffffffffffff1916908160001a9053507f780000000000000000000000000000000000000000000000000000000000000081600181518110610cf357610cf3611198565b60200101907effffffffffffffffffffffffffffffffffffffffffffffffffffffffffffff1916908160001a9053506000610d2f846002611114565b610d3a906001611151565b90505b6001811115610dd7577f303132333435363738396162636465660000000000000000000000000000000085600f1660108110610d7b57610d7b611198565b1a60f81b828281518110610d9157610d91611198565b60200101907effffffffffffffffffffffffffffffffffffffffffffffffffffffffffffff1916908160001a90535060049490941c93610dd0816111c7565b9050610d3d565b508315610e40576040517f08c379a000000000000000000000000000000000000000000000000000000000815260206004820181905260248201527f537472696e67733a20686578206c656e67746820696e73756666696369656e746044820152606401610738565b9392505050565b600060208284031215610e5957600080fd5b81357fffffffff0000000000000000000000000000000000000000000000000000000081168114610e4057600080fd5b60005b83811015610ea4578181015183820152602001610e8c565b83811115610eb3576000848401525b50505050565b6020815260008251806020840152610ed8816040850160208701610e89565b601f017fffffffffffffffffffffffffffffffffffffffffffffffffffffffffffffffe0169190910160400192915050565b600060208284031215610f1c57600080fd5b5035919050565b60008060408385031215610f3657600080fd5b82358060170b8114610f4757600080fd5b9150602083013567ffffffffffffffff81168114610f6457600080fd5b809150509250929050565b60008060408385031215610f8257600080fd5b82359150602083013573ffffffffffffffffffffffffffffffffffffffff81168114610f6457600080fd5b600060208284031215610fbf57600080fd5b813569ffffffffffffffffffff81168114610e4057600080fd5b7f4e487b7100000000000000000000000000000000000000000000000000000000600052601160045260246000fd5b60007fffffffffffffffffffffffffffffffffffffffffffffffffffffffffffffffff820361103957611039610fd9565b5060010190565b600181811c9082168061105457607f821691505b60208210810361108d577f4e487b7100000000000000000000000000000000000000000000000000000000600052602260045260246000fd5b50919050565b7f416363657373436f6e74726f6c3a206163636f756e74200000000000000000008152600083516110cb816017850160208801610e89565b7f206973206d697373696e6720726f6c65200000000000000000000000000000006017918401918201528351611108816028840160208801610e89565b01602801949350505050565b6000817fffffffffffffffffffffffffffffffffffffffffffffffffffffffffffffffff048311821515161561114c5761114c610fd9565b500290565b6000821982111561116457611164610fd9565b500190565b7f4e487b7100000000000000000000000000000000000000000000000000000000600052604160045260246000fd5b7f4e487b7100000000000000000000000000000000000000000000000000000000600052603260045260246000fd5b6000816111d6576111d6610fd9565b507fffffffffffffffffffffffffffffffffffffffffffffffffffffffffffffffff019056fea164736f6c634300080e000aa164736f6c634300080e000a",
  "linkReferences": {},
  "deployedLinkReferences": {}
}