{
    "_format": "hh-sol-artifact-1",
    "contractName": "FluxP2PFactory",
    "sourceName": "contracts/FluxP2PFactory.sol",
    "abi": [
        {
            "anonymous": false,
            "inputs": [
                {
                    "indexed": false,
                    "internalType": "string",
                    "name": "message",
                    "type": "string"
                }
            ],
            "name": "Log",
            "type": "event"
        },
        {
            "anonymous": false,
            "inputs": [
                {
                    "indexed": true,
                    "internalType": "bytes32",
                    "name": "id",
                    "type": "bytes32"
                },
                {
                    "indexed": true,
                    "internalType": "address",
                    "name": "oracle",
                    "type": "address"
                },
                {
                    "indexed": false,
                    "internalType": "address[]",
                    "name": "signers",
                    "type": "address[]"
                }
            ],
            "name": "PriceFeedCreated",
            "type": "event"
        },
        {
            "anonymous": false,
            "inputs": [
                {
                    "indexed": true,
                    "internalType": "bytes32",
                    "name": "id",
                    "type": "bytes32"
                },
                {
                    "indexed": false,
                    "internalType": "address",
                    "name": "signer",
                    "type": "address"
                },
                {
                    "indexed": false,
                    "internalType": "bool",
                    "name": "isAdded",
                    "type": "bool"
                }
            ],
            "name": "PriceFeedSignersModified",
            "type": "event"
        },
        {
            "anonymous": false,
            "inputs": [
                {
                    "indexed": true,
                    "internalType": "bytes32",
                    "name": "role",
                    "type": "bytes32"
                },
                {
                    "indexed": true,
                    "internalType": "bytes32",
                    "name": "previousAdminRole",
                    "type": "bytes32"
                },
                {
                    "indexed": true,
                    "internalType": "bytes32",
                    "name": "newAdminRole",
                    "type": "bytes32"
                }
            ],
            "name": "RoleAdminChanged",
            "type": "event"
        },
        {
            "anonymous": false,
            "inputs": [
                {
                    "indexed": true,
                    "internalType": "bytes32",
                    "name": "role",
                    "type": "bytes32"
                },
                {
                    "indexed": true,
                    "internalType": "address",
                    "name": "account",
                    "type": "address"
                },
                {
                    "indexed": true,
                    "internalType": "address",
                    "name": "sender",
                    "type": "address"
                }
            ],
            "name": "RoleGranted",
            "type": "event"
        },
        {
            "anonymous": false,
            "inputs": [
                {
                    "indexed": true,
                    "internalType": "bytes32",
                    "name": "role",
                    "type": "bytes32"
                },
                {
                    "indexed": true,
                    "internalType": "address",
                    "name": "account",
                    "type": "address"
                },
                {
                    "indexed": true,
                    "internalType": "address",
                    "name": "sender",
                    "type": "address"
                }
            ],
            "name": "RoleRevoked",
            "type": "event"
        },
        {
            "inputs": [],
            "name": "DEFAULT_ADMIN_ROLE",
            "outputs": [
                {
                    "internalType": "bytes32",
                    "name": "",
                    "type": "bytes32"
                }
            ],
            "stateMutability": "view",
            "type": "function"
        },
        {
            "inputs": [
                {
                    "internalType": "bytes32",
                    "name": "_id",
                    "type": "bytes32"
                }
            ],
            "name": "addressOfPricePair",
            "outputs": [
                {
                    "internalType": "address",
                    "name": "",
                    "type": "address"
                }
            ],
            "stateMutability": "view",
            "type": "function"
        },
        {
            "inputs": [
                {
                    "internalType": "string",
                    "name": "_pricePair",
                    "type": "string"
                },
                {
                    "internalType": "uint8",
                    "name": "_decimals",
                    "type": "uint8"
                },
                {
                    "internalType": "address[]",
                    "name": "_signers",
                    "type": "address[]"
                }
            ],
            "name": "deployOracle",
            "outputs": [],
            "stateMutability": "nonpayable",
            "type": "function"
        },
        {
            "inputs": [
                {
                    "internalType": "bytes32",
                    "name": "role",
                    "type": "bytes32"
                }
            ],
            "name": "getRoleAdmin",
            "outputs": [
                {
                    "internalType": "bytes32",
                    "name": "",
                    "type": "bytes32"
                }
            ],
            "stateMutability": "view",
            "type": "function"
        },
        {
            "inputs": [
                {
                    "internalType": "bytes32",
                    "name": "role",
                    "type": "bytes32"
                },
                {
                    "internalType": "address",
                    "name": "account",
                    "type": "address"
                }
            ],
            "name": "grantRole",
            "outputs": [],
            "stateMutability": "nonpayable",
            "type": "function"
        },
        {
            "inputs": [
                {
                    "internalType": "bytes32",
                    "name": "role",
                    "type": "bytes32"
                },
                {
                    "internalType": "address",
                    "name": "account",
                    "type": "address"
                }
            ],
            "name": "hasRole",
            "outputs": [
                {
                    "internalType": "bool",
                    "name": "",
                    "type": "bool"
                }
            ],
            "stateMutability": "view",
            "type": "function"
        },
        {
            "inputs": [
                {
                    "internalType": "string",
                    "name": "_pricePair",
                    "type": "string"
                },
                {
                    "internalType": "uint8",
                    "name": "_decimals",
                    "type": "uint8"
                },
                {
                    "internalType": "address",
                    "name": "_creator",
                    "type": "address"
                }
            ],
            "name": "hashFeedId",
            "outputs": [
                {
                    "internalType": "bytes32",
                    "name": "",
                    "type": "bytes32"
                }
            ],
            "stateMutability": "pure",
            "type": "function"
        },
        {
            "inputs": [
                {
                    "internalType": "bytes32",
                    "name": "_id",
                    "type": "bytes32"
                }
            ],
            "name": "latestRoundOfPricePair",
            "outputs": [
                {
                    "internalType": "uint256",
                    "name": "",
                    "type": "uint256"
                }
            ],
            "stateMutability": "view",
            "type": "function"
        },
        {
            "inputs": [
                {
                    "internalType": "bytes[]",
                    "name": "_signatures",
                    "type": "bytes[]"
                },
                {
                    "internalType": "bytes32",
                    "name": "_id",
                    "type": "bytes32"
                },
                {
                    "internalType": "address",
                    "name": "_signer",
                    "type": "address"
                },
                {
                    "internalType": "bool",
                    "name": "_add",
                    "type": "bool"
                }
            ],
            "name": "modifySigners",
            "outputs": [],
            "stateMutability": "nonpayable",
            "type": "function"
        },
        {
            "inputs": [
                {
                    "internalType": "bytes32",
                    "name": "role",
                    "type": "bytes32"
                },
                {
                    "internalType": "address",
                    "name": "account",
                    "type": "address"
                }
            ],
            "name": "renounceRole",
            "outputs": [],
            "stateMutability": "nonpayable",
            "type": "function"
        },
        {
            "inputs": [
                {
                    "internalType": "bytes32",
                    "name": "role",
                    "type": "bytes32"
                },
                {
                    "internalType": "address",
                    "name": "account",
                    "type": "address"
                }
            ],
            "name": "revokeRole",
            "outputs": [],
            "stateMutability": "nonpayable",
            "type": "function"
        },
        {
            "inputs": [
                {
                    "internalType": "bytes4",
                    "name": "interfaceId",
                    "type": "bytes4"
                }
            ],
            "name": "supportsInterface",
            "outputs": [
                {
                    "internalType": "bool",
                    "name": "",
                    "type": "bool"
                }
            ],
            "stateMutability": "view",
            "type": "function"
        },
        {
            "inputs": [
                {
                    "internalType": "bytes[]",
                    "name": "_signatures",
                    "type": "bytes[]"
                },
                {
                    "internalType": "bytes32",
                    "name": "_id",
                    "type": "bytes32"
                },
                {
                    "internalType": "int192[]",
                    "name": "_answers",
                    "type": "int192[]"
                },
                {
                    "internalType": "uint64[]",
                    "name": "_timestamps",
                    "type": "uint64[]"
                }
            ],
            "name": "transmit",
            "outputs": [],
            "stateMutability": "nonpayable",
            "type": "function"
        },
        {
            "inputs": [],
            "name": "typeAndVersion",
            "outputs": [
                {
                    "internalType": "string",
                    "name": "",
                    "type": "string"
                }
            ],
            "stateMutability": "view",
            "type": "function"
        },
        {
            "inputs": [
                {
                    "internalType": "bytes32",
                    "name": "_id",
                    "type": "bytes32"
                }
            ],
            "name": "valueFor",
            "outputs": [
                {
                    "internalType": "int256",
                    "name": "",
                    "type": "int256"
                },
                {
                    "internalType": "uint256",
                    "name": "",
                    "type": "uint256"
                },
                {
                    "internalType": "uint256",
                    "name": "",
                    "type": "uint256"
                }
            ],
            "stateMutability": "view",
            "type": "function"
        }
    ],
    "bytecode": "0x608060405234801561001057600080fd5b50615a2f806100206000396000f3fe60806040523480156200001157600080fd5b50600436106200019c5760003560e01c806391d1485411620000ed578063c94bfbfb1162000099578063eebddb7b116200006f578063eebddb7b1462000458578063f2c175e61462000478578063f78eea8314620004ae576200019c565b8063c94bfbfb14620003e2578063d547741f1462000418578063dddc13a01462000438576200019c565b8063a1ebf35d11620000cf578063a1ebf35d146200037e578063a217fddf14620003a0578063b4a906c014620003c2576200019c565b806391d14854146200032857806398b428a8146200035e576200019c565b80632f2ff15d116200014d57806336568abe116200012f57806336568abe14620002c657806343f8f80214620002e65780638129fc1c146200031c576200019c565b80632f2ff15d1462000286578063359f694914620002a6576200019c565b8063181f5a771162000183578063181f5a7714620001f75780632383c3f11462000219578063248a9ca31462000250576200019c565b806301ffc9a714620001a1578063092a608414620001d7575b600080fd5b620001bf6004803603810190620001b9919062001f47565b620004e6565b604051620001ce919062001f96565b60405180910390f35b620001f56004803603810190620001ef919062002053565b62000563565b005b6200020162000644565b6040516200021091906200213e565b60405180910390f35b62000237600480360381019062000231919062002162565b62000681565b60405162000247929190620021c0565b60405180910390f35b6200026e600480360381019062000268919062002162565b620006c5565b6040516200027d9190620021fe565b60405180910390f35b620002a460048036038101906200029e919062002053565b620006e4565b005b620002c46004803603810190620002be9190620023a5565b6200070b565b005b620002e46004803603810190620002de919062002053565b62000bb3565b005b620003046004803603810190620002fe919062002162565b62000c3d565b60405162000313919062002474565b60405180910390f35b6200032662000c82565b005b62000346600480360381019062000340919062002053565b62000d7c565b60405162000355919062001f96565b60405180910390f35b6200037c600480360381019062000376919062002053565b62000de6565b005b6200038862000eaa565b604051620003979190620021fe565b60405180910390f35b620003aa62000ece565b604051620003b99190620021fe565b60405180910390f35b620003e06004803603810190620003da9190620024c2565b62000ed5565b005b620004006004803603810190620003fa919062002162565b62000f3e565b6040516200040f919062002509565b60405180910390f35b62000436600480360381019062000430919062002053565b62000ff4565b005b62000456600480360381019062000450919062002680565b6200101b565b005b62000476600480360381019062000470919062002053565b6200132c565b005b6200049660048036038101906200049091906200271f565b6200140d565b604051620004a59190620021fe565b60405180910390f35b620004cc6004803603810190620004c6919062002162565b62001457565b604051620004dd93929190620027a4565b60405180910390f35b60007f7965db0b000000000000000000000000000000000000000000000000000000007bffffffffffffffffffffffffffffffffffffffffffffffffffffffff1916827bffffffffffffffffffffffffffffffffffffffffffffffffffffffff191614806200055c57506200055b8262001579565b5b9050919050565b6000801b6200057281620015e3565b60006002600085815260200190815260200160002060000160009054906101000a900473ffffffffffffffffffffffffffffffffffffffff1690508073ffffffffffffffffffffffffffffffffffffffff16632f2ff15d7fe2f4eaae4a9751e85a3e4a7b9587827a877f29914755229b07a7b2da98285f70856040518363ffffffff1660e01b81526004016200060a929190620027e1565b600060405180830381600087803b1580156200062557600080fd5b505af11580156200063a573d6000803e3d6000fd5b5050505050505050565b60606040518060400160405280601481526020017f466c7578503250466163746f727920312e302e30000000000000000000000000815250905090565b60026020528060005260406000206000915090508060000160009054906101000a900473ffffffffffffffffffffffffffffffffffffffff16908060010154905082565b6000806000838152602001908152602001600020600101549050919050565b620006ef82620006c5565b620006fa81620015e3565b620007068383620015fb565b505050565b60006200071a8686866200140d565b905060026000828152602001908152602001600020600101548888905010156200077b576040517f08c379a000000000000000000000000000000000000000000000000000000000815260040162000772906200285e565b60405180910390fd5b60006002600083815260200190815260200160002060000160009054906101000a900473ffffffffffffffffffffffffffffffffffffffff16905060008173ffffffffffffffffffffffffffffffffffffffff1663668a0f026040518163ffffffff1660e01b8152600401602060405180830381865afa15801562000804573d6000803e3d6000fd5b505050506040513d601f19601f820116820180604052508101906200082a919062002897565b90508463ffffffff16811462000877576040517f08c379a00000000000000000000000000000000000000000000000000000000081526004016200086e9062002919565b60405180910390fd5b6000620008b489898989896040516020016200089895949392919062002a32565b60405160208183030381529060405280519060200120620016e0565b905060005b8b8b905081101562000ab65760008062000940848f8f86818110620008e357620008e262002a86565b5b9050602002810190620008f7919062002ac4565b8080601f016020809104026020016040519081016040528093929190818152602001838380828437600081840152601f19601f8201169050808301925050505050505062001712565b91509150600060048111156200095b576200095a62002b30565b5b81600481111562000971576200097062002b30565b5b141562000a61578573ffffffffffffffffffffffffffffffffffffffff166391d148547fe2f4eaae4a9751e85a3e4a7b9587827a877f29914755229b07a7b2da98285f70846040518363ffffffff1660e01b8152600401620009d5929190620027e1565b602060405180830381865afa158015620009f3573d6000803e3d6000fd5b505050506040513d601f19601f8201168201806040525081019062000a19919062002b90565b62000a5b576040517f08c379a000000000000000000000000000000000000000000000000000000000815260040162000a529062002c12565b60405180910390fd5b62000a9e565b6040517f08c379a000000000000000000000000000000000000000000000000000000000815260040162000a959062002c84565b60405180910390fd5b5050808062000aad9062002cd5565b915050620008b9565b508273ffffffffffffffffffffffffffffffffffffffff166382b8ebc7866040518263ffffffff1660e01b815260040162000af2919062002d34565b600060405180830381600087803b15801562000b0d57600080fd5b505af192505050801562000b1f575060015b62000ba55762000b2e62002d5e565b806308c379a0141562000b93575062000b4662002d83565b8062000b53575062000b95565b7fcf34ef537ac33ee1ac626ca1587a0a7e8e51561e5514f8cb36afa1c5102b3bab8160405162000b8491906200213e565b60405180910390a15062000b9f565b505b3d6000803e3d6000fd5b62000ba6565b5b5050505050505050505050565b62000bbd6200179d565b73ffffffffffffffffffffffffffffffffffffffff168173ffffffffffffffffffffffffffffffffffffffff161462000c2d576040517f08c379a000000000000000000000000000000000000000000000000000000000815260040162000c249062002e9b565b60405180910390fd5b62000c398282620017a5565b5050565b6000806002600084815260200190815260200160002060000160009054906101000a900473ffffffffffffffffffffffffffffffffffffffff16905080915050919050565b60018054906101000a900460ff1662000cac57600160009054906101000a900460ff161562000cb7565b62000cb66200188b565b5b62000cf9576040517f08c379a000000000000000000000000000000000000000000000000000000000815260040162000cf09062002f33565b60405180910390fd5b600060018054906101000a900460ff16159050801562000d485760018060016101000a81548160ff02191690831515021790555060018060006101000a81548160ff0219169083151502179055505b62000d576000801b336200189e565b801562000d795760006001806101000a81548160ff0219169083151502179055505b50565b600080600084815260200190815260200160002060000160008373ffffffffffffffffffffffffffffffffffffffff1673ffffffffffffffffffffffffffffffffffffffff16815260200190815260200160002060009054906101000a900460ff16905092915050565b6000801b62000df581620015e3565b60006002600085815260200190815260200160002060000160009054906101000a900473ffffffffffffffffffffffffffffffffffffffff1690508073ffffffffffffffffffffffffffffffffffffffff16632f2ff15d6000801b856040518363ffffffff1660e01b815260040162000e70929190620027e1565b600060405180830381600087803b15801562000e8b57600080fd5b505af115801562000ea0573d6000803e3d6000fd5b5050505050505050565b7fe2f4eaae4a9751e85a3e4a7b9587827a877f29914755229b07a7b2da98285f7081565b6000801b81565b6000801b62000ee481620015e3565b816002600085815260200190815260200160002060010181905550827fbc4a9aa8136cdad7b704289478225a00650b4a8d2132524967ae62c9c601e6e68360405162000f31919062002509565b60405180910390a2505050565b6000806002600084815260200190815260200160002060000160009054906101000a900473ffffffffffffffffffffffffffffffffffffffff1690508073ffffffffffffffffffffffffffffffffffffffff1663668a0f026040518163ffffffff1660e01b8152600401602060405180830381865afa15801562000fc6573d6000803e3d6000fd5b505050506040513d601f19601f8201168201806040525081019062000fec919062002897565b915050919050565b62000fff82620006c5565b6200100a81620015e3565b620010168383620017a5565b505050565b6000801b6200102a81620015e3565b600182511162001071576040517f08c379a0000000000000000000000000000000000000000000000000000000008152600401620010689062002fa5565b60405180910390fd5b6000620010808686866200140d565b9050600073ffffffffffffffffffffffffffffffffffffffff166002600083815260200190815260200160002060000160009054906101000a900473ffffffffffffffffffffffffffffffffffffffff1673ffffffffffffffffffffffffffffffffffffffff16146200112a576040517f08c379a0000000000000000000000000000000000000000000000000000000008152600401620011219062003017565b60405180910390fd5b6000308588886040516200113e9062001ec8565b6200114d94939291906200307d565b604051809103906000f0801580156200116a573d6000803e3d6000fd5b50905060405180604001604052808273ffffffffffffffffffffffffffffffffffffffff16815260200160028152506002600084815260200190815260200160002060008201518160000160006101000a81548173ffffffffffffffffffffffffffffffffffffffff021916908373ffffffffffffffffffffffffffffffffffffffff1602179055506020820151816001015590505060005b8451811015620012d1578173ffffffffffffffffffffffffffffffffffffffff16632f2ff15d7fe2f4eaae4a9751e85a3e4a7b9587827a877f29914755229b07a7b2da98285f7087848151811062001260576200125f62002a86565b5b60200260200101516040518363ffffffff1660e01b815260040162001287929190620027e1565b600060405180830381600087803b158015620012a257600080fd5b505af1158015620012b7573d6000803e3d6000fd5b505050508080620012c89062002cd5565b91505062001203565b508073ffffffffffffffffffffffffffffffffffffffff16827ffe84e4fd457daef6750c89314d2e1522a44042c505c785354913015cd08c0588866040516200131b919062003191565b60405180910390a350505050505050565b6000801b6200133b81620015e3565b60006002600085815260200190815260200160002060000160009054906101000a900473ffffffffffffffffffffffffffffffffffffffff1690508073ffffffffffffffffffffffffffffffffffffffff1663d547741f7fe2f4eaae4a9751e85a3e4a7b9587827a877f29914755229b07a7b2da98285f70856040518363ffffffff1660e01b8152600401620013d3929190620027e1565b600060405180830381600087803b158015620013ee57600080fd5b505af115801562001403573d6000803e3d6000fd5b5050505050505050565b6000808484620014208560ff16620018ae565b60405160200162001434939291906200328c565b604051602081830303815290604052905080805190602001209150509392505050565b6000806000806002600086815260200190815260200160002060000160009054906101000a900473ffffffffffffffffffffffffffffffffffffffff169050600073ffffffffffffffffffffffffffffffffffffffff168173ffffffffffffffffffffffffffffffffffffffff161462001564578073ffffffffffffffffffffffffffffffffffffffff1663feaf968c6040518163ffffffff1660e01b815260040160a060405180830381865afa9250505080156200153657506040513d601f19601f8201168201806040525081019062001533919062003348565b60015b6200154e576000806101949350935093505062001572565b838260c898509850985050505050505062001572565b600080610194935093509350505b9193909250565b60007f01ffc9a7000000000000000000000000000000000000000000000000000000007bffffffffffffffffffffffffffffffffffffffffffffffffffffffff1916827bffffffffffffffffffffffffffffffffffffffffffffffffffffffff1916149050919050565b620015f881620015f26200179d565b62001a28565b50565b62001607828262000d7c565b620016dc57600160008084815260200190815260200160002060000160008373ffffffffffffffffffffffffffffffffffffffff1673ffffffffffffffffffffffffffffffffffffffff16815260200190815260200160002060006101000a81548160ff021916908315150217905550620016816200179d565b73ffffffffffffffffffffffffffffffffffffffff168173ffffffffffffffffffffffffffffffffffffffff16837f2f8788117e7eff1d82e926ec794901d17c78024a50270940304540a733656f0d60405160405180910390a45b5050565b600081604051602001620016f5919062003445565b604051602081830303815290604052805190602001209050919050565b600080604183511415620017585760008060006020860151925060408601519150606086015160001a90506200174b8782858562001ad0565b9450945050505062001796565b6040835114156200178d5760008060208501519150604085015190506200178186838362001be7565b93509350505062001796565b60006002915091505b9250929050565b600033905090565b620017b1828262000d7c565b156200188757600080600084815260200190815260200160002060000160008373ffffffffffffffffffffffffffffffffffffffff1673ffffffffffffffffffffffffffffffffffffffff16815260200190815260200160002060006101000a81548160ff0219169083151502179055506200182c6200179d565b73ffffffffffffffffffffffffffffffffffffffff168173ffffffffffffffffffffffffffffffffffffffff16837ff6391f5c32d9c69d2a47ea670b442974b53935d1edc7fd64eb21e047a839171b60405160405180910390a45b5050565b6000620018983062001c4a565b15905090565b620018aa8282620015fb565b5050565b60606000821415620018f8576040518060400160405280600181526020017f3000000000000000000000000000000000000000000000000000000000000000815250905062001a23565b600082905060005b6000821462001930578080620019169062002cd5565b915050600a826200192891906200349e565b915062001900565b60008167ffffffffffffffff8111156200194f576200194e62002526565b5b6040519080825280601f01601f191660200182016040528015620019825781602001600182028036833780820191505090505b5090505b6000851462001a1c576001826200199e9190620034d6565b9150600a85620019af919062003511565b6030620019bd919062003549565b60f81b818381518110620019d657620019d562002a86565b5b60200101907effffffffffffffffffffffffffffffffffffffffffffffffffffffffffffff1916908160001a905350600a8562001a1491906200349e565b945062001986565b8093505050505b919050565b62001a34828262000d7c565b62001acc5762001a5c8173ffffffffffffffffffffffffffffffffffffffff16601462001c6d565b62001a6c8360001c602062001c6d565b60405160200162001a7f92919062003646565b6040516020818303038152906040526040517f08c379a000000000000000000000000000000000000000000000000000000000815260040162001ac391906200213e565b60405180910390fd5b5050565b6000807f7fffffffffffffffffffffffffffffff5d576e7357a4501ddfe92f46681b20a08360001c111562001b0d57600060039150915062001bde565b601b8560ff161415801562001b265750601c8560ff1614155b1562001b3a57600060049150915062001bde565b60006001878787876040516000815260200160405260405162001b61949392919062003688565b6020604051602081039080840390855afa15801562001b84573d6000803e3d6000fd5b505050602060405103519050600073ffffffffffffffffffffffffffffffffffffffff168173ffffffffffffffffffffffffffffffffffffffff16141562001bd55760006001925092505062001bde565b80600092509250505b94509492505050565b60008060007f7fffffffffffffffffffffffffffffffffffffffffffffffffffffffffffffff60001b841690506000601b60ff8660001c901c62001c2c919062003549565b905062001c3c8782888562001ad0565b935093505050935093915050565b6000808273ffffffffffffffffffffffffffffffffffffffff163b119050919050565b60606000600283600262001c829190620036d5565b62001c8e919062003549565b67ffffffffffffffff81111562001caa5762001ca962002526565b5b6040519080825280601f01601f19166020018201604052801562001cdd5781602001600182028036833780820191505090505b5090507f30000000000000000000000000000000000000000000000000000000000000008160008151811062001d185762001d1762002a86565b5b60200101907effffffffffffffffffffffffffffffffffffffffffffffffffffffffffffff1916908160001a9053507f78000000000000000000000000000000000000000000000000000000000000008160018151811062001d7f5762001d7e62002a86565b5b60200101907effffffffffffffffffffffffffffffffffffffffffffffffffffffffffffff1916908160001a9053506000600184600262001dc19190620036d5565b62001dcd919062003549565b90505b600181111562001e77577f3031323334353637383961626364656600000000000000000000000000000000600f86166010811062001e135762001e1262002a86565b5b1a60f81b82828151811062001e2d5762001e2c62002a86565b5b60200101907effffffffffffffffffffffffffffffffffffffffffffffffffffffffffffff1916908160001a905350600485901c94508062001e6f9062003736565b905062001dd0565b506000841462001ebe576040517f08c379a000000000000000000000000000000000000000000000000000000000815260040162001eb590620037b5565b60405180910390fd5b8091505092915050565b61224b80620037d883390190565b6000604051905090565b600080fd5b600080fd5b60007fffffffff0000000000000000000000000000000000000000000000000000000082169050919050565b62001f218162001eea565b811462001f2d57600080fd5b50565b60008135905062001f418162001f16565b92915050565b60006020828403121562001f605762001f5f62001ee0565b5b600062001f708482850162001f30565b91505092915050565b60008115159050919050565b62001f908162001f79565b82525050565b600060208201905062001fad600083018462001f85565b92915050565b6000819050919050565b62001fc88162001fb3565b811462001fd457600080fd5b50565b60008135905062001fe88162001fbd565b92915050565b600073ffffffffffffffffffffffffffffffffffffffff82169050919050565b60006200201b8262001fee565b9050919050565b6200202d816200200e565b81146200203957600080fd5b50565b6000813590506200204d8162002022565b92915050565b600080604083850312156200206d576200206c62001ee0565b5b60006200207d8582860162001fd7565b925050602062002090858286016200203c565b9150509250929050565b600081519050919050565b600082825260208201905092915050565b60005b83811015620020d6578082015181840152602081019050620020b9565b83811115620020e6576000848401525b50505050565b6000601f19601f8301169050919050565b60006200210a826200209a565b620021168185620020a5565b935062002128818560208601620020b6565b6200213381620020ec565b840191505092915050565b600060208201905081810360008301526200215a8184620020fd565b905092915050565b6000602082840312156200217b576200217a62001ee0565b5b60006200218b8482850162001fd7565b91505092915050565b6200219f816200200e565b82525050565b6000819050919050565b620021ba81620021a5565b82525050565b6000604082019050620021d7600083018562002194565b620021e66020830184620021af565b9392505050565b620021f88162001fb3565b82525050565b6000602082019050620022156000830184620021ed565b92915050565b600080fd5b600080fd5b600080fd5b60008083601f8401126200224357620022426200221b565b5b8235905067ffffffffffffffff81111562002263576200226262002220565b5b60208301915083602082028301111562002282576200228162002225565b5b9250929050565b60008083601f840112620022a257620022a16200221b565b5b8235905067ffffffffffffffff811115620022c257620022c162002220565b5b602083019150836001820283011115620022e157620022e062002225565b5b9250929050565b600060ff82169050919050565b6200230081620022e8565b81146200230c57600080fd5b50565b6000813590506200232081620022f5565b92915050565b600063ffffffff82169050919050565b620023418162002326565b81146200234d57600080fd5b50565b600081359050620023618162002336565b92915050565b60008160170b9050919050565b6200237f8162002367565b81146200238b57600080fd5b50565b6000813590506200239f8162002374565b92915050565b600080600080600080600060a0888a031215620023c757620023c662001ee0565b5b600088013567ffffffffffffffff811115620023e857620023e762001ee5565b5b620023f68a828b016200222a565b9750975050602088013567ffffffffffffffff8111156200241c576200241b62001ee5565b5b6200242a8a828b0162002289565b955095505060406200243f8a828b016200230f565b9350506060620024528a828b0162002350565b9250506080620024658a828b016200238e565b91505092959891949750929550565b60006020820190506200248b600083018462002194565b92915050565b6200249c81620021a5565b8114620024a857600080fd5b50565b600081359050620024bc8162002491565b92915050565b60008060408385031215620024dc57620024db62001ee0565b5b6000620024ec8582860162001fd7565b9250506020620024ff85828601620024ab565b9150509250929050565b6000602082019050620025206000830184620021af565b92915050565b7f4e487b7100000000000000000000000000000000000000000000000000000000600052604160045260246000fd5b6200256082620020ec565b810181811067ffffffffffffffff8211171562002582576200258162002526565b5b80604052505050565b60006200259762001ed6565b9050620025a5828262002555565b919050565b600067ffffffffffffffff821115620025c857620025c762002526565b5b602082029050602081019050919050565b6000620025f0620025ea84620025aa565b6200258b565b9050808382526020820190506020840283018581111562002616576200261562002225565b5b835b818110156200264357806200262e88826200203c565b84526020840193505060208101905062002618565b5050509392505050565b600082601f8301126200266557620026646200221b565b5b813562002677848260208601620025d9565b91505092915050565b600080600080606085870312156200269d576200269c62001ee0565b5b600085013567ffffffffffffffff811115620026be57620026bd62001ee5565b5b620026cc8782880162002289565b94509450506020620026e1878288016200230f565b925050604085013567ffffffffffffffff81111562002705576200270462001ee5565b5b62002713878288016200264d565b91505092959194509250565b6000806000604084860312156200273b576200273a62001ee0565b5b600084013567ffffffffffffffff8111156200275c576200275b62001ee5565b5b6200276a8682870162002289565b935093505060206200277f868287016200230f565b9150509250925092565b6000819050919050565b6200279e8162002789565b82525050565b6000606082019050620027bb600083018662002793565b620027ca6020830185620021af565b620027d96040830184620021af565b949350505050565b6000604082019050620027f86000830185620021ed565b62002807602083018462002194565b9392505050565b7f4e6f7420656e6f756768207369676e6174757265730000000000000000000000600082015250565b600062002846601583620020a5565b915062002853826200280e565b602082019050919050565b60006020820190508181036000830152620028798162002837565b9050919050565b600081519050620028918162002491565b92915050565b600060208284031215620028b057620028af62001ee0565b5b6000620028c08482850162002880565b91505092915050565b7f57726f6e6720726f756e64496400000000000000000000000000000000000000600082015250565b600062002901600d83620020a5565b91506200290e82620028c9565b602082019050919050565b600060208201905081810360008301526200293481620028f2565b9050919050565b600081905092915050565b82818337600083830152505050565b60006200296383856200293b565b93506200297283858462002946565b82840190509392505050565b60008160f81b9050919050565b600062002998826200297e565b9050919050565b620029b4620029ae82620022e8565b6200298b565b82525050565b60008160e01b9050919050565b6000620029d482620029ba565b9050919050565b620029f0620029ea8262002326565b620029c7565b82525050565b60008160401b9050919050565b600062002a1082620029f6565b9050919050565b62002a2c62002a268262002367565b62002a03565b82525050565b600062002a4182878962002955565b915062002a4f82866200299f565b60018201915062002a618285620029db565b60048201915062002a73828462002a17565b6018820191508190509695505050505050565b7f4e487b7100000000000000000000000000000000000000000000000000000000600052603260045260246000fd5b600080fd5b600080fd5b600080fd5b6000808335600160200384360303811262002ae45762002ae362002ab5565b5b80840192508235915067ffffffffffffffff82111562002b095762002b0862002aba565b5b60208301925060018202360383131562002b285762002b2762002abf565b5b509250929050565b7f4e487b7100000000000000000000000000000000000000000000000000000000600052602160045260246000fd5b62002b6a8162001f79565b811462002b7657600080fd5b50565b60008151905062002b8a8162002b5f565b92915050565b60006020828403121562002ba95762002ba862001ee0565b5b600062002bb98482850162002b79565b91505092915050565b7f496e76616c6964207369676e6564206d65737361676500000000000000000000600082015250565b600062002bfa601683620020a5565b915062002c078262002bc2565b602082019050919050565b6000602082019050818103600083015262002c2d8162002beb565b9050919050565b7f436f756c646e2774207265636f766572207369676e6572000000000000000000600082015250565b600062002c6c601783620020a5565b915062002c798262002c34565b602082019050919050565b6000602082019050818103600083015262002c9f8162002c5d565b9050919050565b7f4e487b7100000000000000000000000000000000000000000000000000000000600052601160045260246000fd5b600062002ce282620021a5565b91507fffffffffffffffffffffffffffffffffffffffffffffffffffffffffffffffff82141562002d185762002d1762002ca6565b5b600182019050919050565b62002d2e8162002367565b82525050565b600060208201905062002d4b600083018462002d23565b92915050565b60008160e01c9050919050565b600060033d111562002d805760046000803e62002d7d60005162002d51565b90505b90565b600060443d101562002d955762002e22565b62002d9f62001ed6565b60043d036004823e80513d602482011167ffffffffffffffff8211171562002dc957505062002e22565b808201805167ffffffffffffffff81111562002de9575050505062002e22565b80602083010160043d03850181111562002e0857505050505062002e22565b62002e198260200185018662002555565b82955050505050505b90565b7f416363657373436f6e74726f6c3a2063616e206f6e6c792072656e6f756e636560008201527f20726f6c657320666f722073656c660000000000000000000000000000000000602082015250565b600062002e83602f83620020a5565b915062002e908262002e25565b604082019050919050565b6000602082019050818103600083015262002eb68162002e74565b9050919050565b7f496e697469616c697a61626c653a20636f6e747261637420697320616c72656160008201527f647920696e697469616c697a6564000000000000000000000000000000000000602082015250565b600062002f1b602e83620020a5565b915062002f288262002ebd565b604082019050919050565b6000602082019050818103600083015262002f4e8162002f0c565b9050919050565b7f4e656564206174206c656173742032207369676e657273000000000000000000600082015250565b600062002f8d601783620020a5565b915062002f9a8262002f55565b602082019050919050565b6000602082019050818103600083015262002fc08162002f7e565b9050919050565b7f4f7261636c6520616c7265616479206465706c6f796564000000000000000000600082015250565b600062002fff601783620020a5565b91506200300c8262002fc7565b602082019050919050565b60006020820190508181036000830152620030328162002ff0565b9050919050565b6200304481620022e8565b82525050565b6000620030588385620020a5565b93506200306783858462002946565b6200307283620020ec565b840190509392505050565b600060608201905062003094600083018762002194565b620030a3602083018662003039565b8181036040830152620030b88184866200304a565b905095945050505050565b600081519050919050565b600082825260208201905092915050565b6000819050602082019050919050565b620030fa816200200e565b82525050565b60006200310e8383620030ef565b60208301905092915050565b6000602082019050919050565b60006200313482620030c3565b620031408185620030ce565b93506200314d83620030df565b8060005b838110156200318457815162003168888262003100565b975062003175836200311a565b92505060018101905062003151565b5085935050505092915050565b60006020820190508181036000830152620031ad818462003127565b905092915050565b7f50726963652d0000000000000000000000000000000000000000000000000000600082015250565b6000620031ed6006836200293b565b9150620031fa82620031b5565b600682019050919050565b7f2d00000000000000000000000000000000000000000000000000000000000000600082015250565b60006200323d6001836200293b565b91506200324a8262003205565b600182019050919050565b600062003262826200209a565b6200326e81856200293b565b935062003280818560208601620020b6565b80840191505092915050565b60006200329982620031de565b9150620032a882858762002955565b9150620032b5826200322e565b9150620032c3828462003255565b9150819050949350505050565b600069ffffffffffffffffffff82169050919050565b620032f181620032d0565b8114620032fd57600080fd5b50565b6000815190506200331181620032e6565b92915050565b620033228162002789565b81146200332e57600080fd5b50565b600081519050620033428162003317565b92915050565b600080600080600060a0868803121562003367576200336662001ee0565b5b6000620033778882890162003300565b95505060206200338a8882890162003331565b94505060406200339d8882890162002880565b9350506060620033b08882890162002880565b9250506080620033c38882890162003300565b9150509295509295909350565b7f19457468657265756d205369676e6564204d6573736167653a0a333200000000600082015250565b600062003408601c836200293b565b91506200341582620033d0565b601c82019050919050565b6000819050919050565b6200343f620034398262001fb3565b62003420565b82525050565b60006200345282620033f9565b91506200346082846200342a565b60208201915081905092915050565b7f4e487b7100000000000000000000000000000000000000000000000000000000600052601260045260246000fd5b6000620034ab82620021a5565b9150620034b883620021a5565b925082620034cb57620034ca6200346f565b5b828204905092915050565b6000620034e382620021a5565b9150620034f083620021a5565b92508282101562003506576200350562002ca6565b5b828203905092915050565b60006200351e82620021a5565b91506200352b83620021a5565b9250826200353e576200353d6200346f565b5b828206905092915050565b60006200355682620021a5565b91506200356383620021a5565b9250827fffffffffffffffffffffffffffffffffffffffffffffffffffffffffffffffff038211156200359b576200359a62002ca6565b5b828201905092915050565b7f416363657373436f6e74726f6c3a206163636f756e7420000000000000000000600082015250565b6000620035de6017836200293b565b9150620035eb82620035a6565b601782019050919050565b7f206973206d697373696e6720726f6c6520000000000000000000000000000000600082015250565b60006200362e6011836200293b565b91506200363b82620035f6565b601182019050919050565b60006200365382620035cf565b915062003661828562003255565b91506200366e826200361f565b91506200367c828462003255565b91508190509392505050565b60006080820190506200369f6000830187620021ed565b620036ae602083018662003039565b620036bd6040830185620021ed565b620036cc6060830184620021ed565b95945050505050565b6000620036e282620021a5565b9150620036ef83620021a5565b9250817fffffffffffffffffffffffffffffffffffffffffffffffffffffffffffffffff04831182151516156200372b576200372a62002ca6565b5b828202905092915050565b60006200374382620021a5565b915060008214156200375a576200375962002ca6565b5b600182039050919050565b7f537472696e67733a20686578206c656e67746820696e73756666696369656e74600082015250565b60006200379d602083620020a5565b9150620037aa8262003765565b602082019050919050565b60006020820190508181036000830152620037d0816200378e565b905091905056fe60a06040523480156200001157600080fd5b506040516200224b3803806200224b833981810160405281019062000037919062000517565b6200004c6000801b33620000ae60201b60201c565b6200007e7f21702c8af46127c7fa207f89d0b0a8441bb32959a0ac7df790e9ab1a25c9892684620000ae60201b60201c565b8160ff1660808160ff16815250508060039080519060200190620000a492919062000227565b50505050620005f7565b620000c08282620000c460201b60201c565b5050565b620000d68282620001b560201b60201c565b620001b157600160008084815260200190815260200160002060000160008373ffffffffffffffffffffffffffffffffffffffff1673ffffffffffffffffffffffffffffffffffffffff16815260200190815260200160002060006101000a81548160ff021916908315150217905550620001566200021f60201b60201c565b73ffffffffffffffffffffffffffffffffffffffff168173ffffffffffffffffffffffffffffffffffffffff16837f2f8788117e7eff1d82e926ec794901d17c78024a50270940304540a733656f0d60405160405180910390a45b5050565b600080600084815260200190815260200160002060000160008373ffffffffffffffffffffffffffffffffffffffff1673ffffffffffffffffffffffffffffffffffffffff16815260200190815260200160002060009054906101000a900460ff16905092915050565b600033905090565b8280546200023590620005c1565b90600052602060002090601f016020900481019282620002595760008555620002a5565b82601f106200027457805160ff1916838001178555620002a5565b82800160010185558215620002a5579182015b82811115620002a457825182559160200191906001019062000287565b5b509050620002b49190620002b8565b5090565b5b80821115620002d3576000816000905550600101620002b9565b5090565b6000604051905090565b600080fd5b600080fd5b600073ffffffffffffffffffffffffffffffffffffffff82169050919050565b60006200031882620002eb565b9050919050565b6200032a816200030b565b81146200033657600080fd5b50565b6000815190506200034a816200031f565b92915050565b600060ff82169050919050565b620003688162000350565b81146200037457600080fd5b50565b60008151905062000388816200035d565b92915050565b600080fd5b600080fd5b6000601f19601f8301169050919050565b7f4e487b7100000000000000000000000000000000000000000000000000000000600052604160045260246000fd5b620003e38262000398565b810181811067ffffffffffffffff82111715620004055762000404620003a9565b5b80604052505050565b60006200041a620002d7565b9050620004288282620003d8565b919050565b600067ffffffffffffffff8211156200044b576200044a620003a9565b5b620004568262000398565b9050602081019050919050565b60005b838110156200048357808201518184015260208101905062000466565b8381111562000493576000848401525b50505050565b6000620004b0620004aa846200042d565b6200040e565b905082815260208101848484011115620004cf57620004ce62000393565b5b620004dc84828562000463565b509392505050565b600082601f830112620004fc57620004fb6200038e565b5b81516200050e84826020860162000499565b91505092915050565b600080600060608486031215620005335762000532620002e1565b5b6000620005438682870162000339565b9350506020620005568682870162000377565b925050604084015167ffffffffffffffff8111156200057a5762000579620002e6565b5b6200058886828701620004e4565b9150509250925092565b7f4e487b7100000000000000000000000000000000000000000000000000000000600052602260045260246000fd5b60006002820490506001821680620005da57607f821691505b60208210811415620005f157620005f062000592565b5b50919050565b608051611c386200061360003960006105810152611c386000f3fe608060405234801561001057600080fd5b50600436106101825760003560e01c80638205bf6a116100d8578063b5ab58dc1161008c578063d547741f11610066578063d547741f1461042b578063e5fe457714610447578063feaf968c1461046657610182565b8063b5ab58dc146103ad578063b633620c146103dd578063c49baebe1461040d57610182565b806391d14854116100bd57806391d148541461032b5780639a6fc8f51461035b578063a217fddf1461038f57610182565b80638205bf6a146102f157806382b8ebc71461030f57610182565b806336568abe1161013a5780635ed63b40116101145780635ed63b4014610297578063668a0f02146102b55780637284e416146102d357610182565b806336568abe1461023f57806350d25bcd1461025b57806354fd4d501461027957610182565b8063248a9ca31161016b578063248a9ca3146101d55780632f2ff15d14610205578063313ce5671461022157610182565b806301ffc9a714610187578063181f5a77146101b7575b600080fd5b6101a1600480360381019061019c91906112e5565b610488565b6040516101ae919061132d565b60405180910390f35b6101bf610502565b6040516101cc91906113e1565b60405180910390f35b6101ef60048036038101906101ea9190611439565b61053f565b6040516101fc9190611475565b60405180910390f35b61021f600480360381019061021a91906114ee565b61055e565b005b61022961057f565b604051610236919061154a565b60405180910390f35b610259600480360381019061025491906114ee565b6105a3565b005b610263610626565b604051610270919061157e565b60405180910390f35b610281610672565b60405161028e91906115b2565b60405180910390f35b61029f610677565b6040516102ac91906115ec565b60405180910390f35b6102bd61068d565b6040516102ca91906115b2565b60405180910390f35b6102db6106ad565b6040516102e891906113e1565b60405180910390f35b6102f961073f565b60405161030691906115b2565b60405180910390f35b61032960048036038101906103249190611640565b610799565b005b610345600480360381019061034091906114ee565b610931565b604051610352919061132d565b60405180910390f35b610375600480360381019061037091906116af565b61099b565b6040516103869594939291906116eb565b60405180910390f35b610397610af1565b6040516103a49190611475565b60405180910390f35b6103c760048036038101906103c2919061176a565b610af8565b6040516103d4919061157e565b60405180910390f35b6103f760048036038101906103f2919061176a565b610b4a565b60405161040491906115b2565b60405180910390f35b610415610baa565b6040516104229190611475565b60405180910390f35b610445600480360381019061044091906114ee565b610bce565b005b61044f610bef565b60405161045d9291906117c9565b60405180910390f35b61046e610c85565b60405161047f9594939291906116eb565b60405180910390f35b60007f7965db0b000000000000000000000000000000000000000000000000000000007bffffffffffffffffffffffffffffffffffffffffffffffffffffffff1916827bffffffffffffffffffffffffffffffffffffffffffffffffffffffff191614806104fb57506104fa82610d68565b5b9050919050565b60606040518060400160405280601381526020017f466c757850726963654665656420312e322e3000000000000000000000000000815250905090565b6000806000838152602001908152602001600020600101549050919050565b6105678261053f565b61057081610dd2565b61057a8383610de6565b505050565b7f000000000000000000000000000000000000000000000000000000000000000081565b6105ab610ec6565b73ffffffffffffffffffffffffffffffffffffffff168173ffffffffffffffffffffffffffffffffffffffff1614610618576040517f08c379a000000000000000000000000000000000000000000000000000000000815260040161060f90611864565b60405180910390fd5b6106228282610ece565b5050565b600060026000600160009054906101000a900463ffffffff1663ffffffff1663ffffffff16815260200190815260200160002060000160009054906101000a900460170b60170b905090565b600181565b600160009054906101000a900463ffffffff1681565b6000600160009054906101000a900463ffffffff1663ffffffff16905090565b6060600380546106bc906118b3565b80601f01602080910402602001604051908101604052809291908181526020018280546106e8906118b3565b80156107355780601f1061070a57610100808354040283529160200191610735565b820191906000526020600020905b81548152906001019060200180831161071857829003601f168201915b5050505050905090565b600060026000600160009054906101000a900463ffffffff1663ffffffff1663ffffffff16815260200190815260200160002060000160189054906101000a900467ffffffffffffffff1667ffffffffffffffff16905090565b7f21702c8af46127c7fa207f89d0b0a8441bb32959a0ac7df790e9ab1a25c989266107c381610dd2565b6001600081819054906101000a900463ffffffff16809291906107e590611914565b91906101000a81548163ffffffff021916908363ffffffff1602179055505060405180604001604052808360170b81526020014267ffffffffffffffff1681525060026000600160009054906101000a900463ffffffff1663ffffffff1663ffffffff16815260200190815260200160002060008201518160000160006101000a81548177ffffffffffffffffffffffffffffffffffffffffffffffff021916908360170b77ffffffffffffffffffffffffffffffffffffffffffffffff16021790555060208201518160000160186101000a81548167ffffffffffffffff021916908367ffffffffffffffff160217905550905050600160009054906101000a900463ffffffff1663ffffffff167f17eabd0a66fa631f7537cefdd5df6aa25d5ac904cf7596e958d43a75a00d0d688333604051610925929190611950565b60405180910390a25050565b600080600084815260200190815260200160002060000160008373ffffffffffffffffffffffffffffffffffffffff1673ffffffffffffffffffffffffffffffffffffffff16815260200190815260200160002060009054906101000a900460ff16905092915050565b600080600080600063ffffffff8669ffffffffffffffffffff1611156040518060400160405280600f81526020017f4e6f20646174612070726573656e74000000000000000000000000000000000081525090610a2e576040517f08c379a0000000000000000000000000000000000000000000000000000000008152600401610a2591906113e1565b60405180910390fd5b506000600260008863ffffffff1663ffffffff1681526020019081526020016000206040518060400160405290816000820160009054906101000a900460170b60170b60170b81526020016000820160189054906101000a900467ffffffffffffffff1667ffffffffffffffff1667ffffffffffffffff16815250509050868160000151826020015183602001518a8360170b93508267ffffffffffffffff1692508167ffffffffffffffff169150955095509550955095505091939590929450565b6000801b81565b600063ffffffff821115610b0f5760009050610b45565b600260008363ffffffff1663ffffffff16815260200190815260200160002060000160009054906101000a900460170b60170b90505b919050565b600063ffffffff821115610b615760009050610ba5565b600260008363ffffffff1663ffffffff16815260200190815260200160002060000160189054906101000a900467ffffffffffffffff1667ffffffffffffffff1690505b919050565b7f21702c8af46127c7fa207f89d0b0a8441bb32959a0ac7df790e9ab1a25c9892681565b610bd78261053f565b610be081610dd2565b610bea8383610ece565b505050565b60008060026000600160009054906101000a900463ffffffff1663ffffffff1663ffffffff16815260200190815260200160002060000160009054906101000a900460170b60026000600160009054906101000a900463ffffffff1663ffffffff1663ffffffff16815260200190815260200160002060000160189054906101000a900467ffffffffffffffff16915091509091565b6000806000806000600160009054906101000a900463ffffffff1663ffffffff1694506000600260008763ffffffff1663ffffffff1681526020019081526020016000206040518060400160405290816000820160009054906101000a900460170b60170b60170b81526020016000820160189054906101000a900467ffffffffffffffff1667ffffffffffffffff1667ffffffffffffffff1681525050905085816000015182602001518360200151898360170b93508267ffffffffffffffff1692508167ffffffffffffffff16915095509550955095509550509091929394565b60007f01ffc9a7000000000000000000000000000000000000000000000000000000007bffffffffffffffffffffffffffffffffffffffffffffffffffffffff1916827bffffffffffffffffffffffffffffffffffffffffffffffffffffffff1916149050919050565b610de381610dde610ec6565b610faf565b50565b610df08282610931565b610ec257600160008084815260200190815260200160002060000160008373ffffffffffffffffffffffffffffffffffffffff1673ffffffffffffffffffffffffffffffffffffffff16815260200190815260200160002060006101000a81548160ff021916908315150217905550610e67610ec6565b73ffffffffffffffffffffffffffffffffffffffff168173ffffffffffffffffffffffffffffffffffffffff16837f2f8788117e7eff1d82e926ec794901d17c78024a50270940304540a733656f0d60405160405180910390a45b5050565b600033905090565b610ed88282610931565b15610fab57600080600084815260200190815260200160002060000160008373ffffffffffffffffffffffffffffffffffffffff1673ffffffffffffffffffffffffffffffffffffffff16815260200190815260200160002060006101000a81548160ff021916908315150217905550610f50610ec6565b73ffffffffffffffffffffffffffffffffffffffff168173ffffffffffffffffffffffffffffffffffffffff16837ff6391f5c32d9c69d2a47ea670b442974b53935d1edc7fd64eb21e047a839171b60405160405180910390a45b5050565b610fb98282610931565b61104857610fde8173ffffffffffffffffffffffffffffffffffffffff16601461104c565b610fec8360001c602061104c565b604051602001610ffd929190611a4d565b6040516020818303038152906040526040517f08c379a000000000000000000000000000000000000000000000000000000000815260040161103f91906113e1565b60405180910390fd5b5050565b60606000600283600261105f9190611a87565b6110699190611ae1565b67ffffffffffffffff81111561108257611081611b37565b5b6040519080825280601f01601f1916602001820160405280156110b45781602001600182028036833780820191505090505b5090507f3000000000000000000000000000000000000000000000000000000000000000816000815181106110ec576110eb611b66565b5b60200101907effffffffffffffffffffffffffffffffffffffffffffffffffffffffffffff1916908160001a9053507f7800000000000000000000000000000000000000000000000000000000000000816001815181106111505761114f611b66565b5b60200101907effffffffffffffffffffffffffffffffffffffffffffffffffffffffffffff1916908160001a905350600060018460026111909190611a87565b61119a9190611ae1565b90505b600181111561123a577f3031323334353637383961626364656600000000000000000000000000000000600f8616601081106111dc576111db611b66565b5b1a60f81b8282815181106111f3576111f2611b66565b5b60200101907effffffffffffffffffffffffffffffffffffffffffffffffffffffffffffff1916908160001a905350600485901c94508061123390611b95565b905061119d565b506000841461127e576040517f08c379a000000000000000000000000000000000000000000000000000000000815260040161127590611c0b565b60405180910390fd5b8091505092915050565b600080fd5b60007fffffffff0000000000000000000000000000000000000000000000000000000082169050919050565b6112c28161128d565b81146112cd57600080fd5b50565b6000813590506112df816112b9565b92915050565b6000602082840312156112fb576112fa611288565b5b6000611309848285016112d0565b91505092915050565b60008115159050919050565b61132781611312565b82525050565b6000602082019050611342600083018461131e565b92915050565b600081519050919050565b600082825260208201905092915050565b60005b83811015611382578082015181840152602081019050611367565b83811115611391576000848401525b50505050565b6000601f19601f8301169050919050565b60006113b382611348565b6113bd8185611353565b93506113cd818560208601611364565b6113d681611397565b840191505092915050565b600060208201905081810360008301526113fb81846113a8565b905092915050565b6000819050919050565b61141681611403565b811461142157600080fd5b50565b6000813590506114338161140d565b92915050565b60006020828403121561144f5761144e611288565b5b600061145d84828501611424565b91505092915050565b61146f81611403565b82525050565b600060208201905061148a6000830184611466565b92915050565b600073ffffffffffffffffffffffffffffffffffffffff82169050919050565b60006114bb82611490565b9050919050565b6114cb816114b0565b81146114d657600080fd5b50565b6000813590506114e8816114c2565b92915050565b6000806040838503121561150557611504611288565b5b600061151385828601611424565b9250506020611524858286016114d9565b9150509250929050565b600060ff82169050919050565b6115448161152e565b82525050565b600060208201905061155f600083018461153b565b92915050565b6000819050919050565b61157881611565565b82525050565b6000602082019050611593600083018461156f565b92915050565b6000819050919050565b6115ac81611599565b82525050565b60006020820190506115c760008301846115a3565b92915050565b600063ffffffff82169050919050565b6115e6816115cd565b82525050565b600060208201905061160160008301846115dd565b92915050565b60008160170b9050919050565b61161d81611607565b811461162857600080fd5b50565b60008135905061163a81611614565b92915050565b60006020828403121561165657611655611288565b5b60006116648482850161162b565b91505092915050565b600069ffffffffffffffffffff82169050919050565b61168c8161166d565b811461169757600080fd5b50565b6000813590506116a981611683565b92915050565b6000602082840312156116c5576116c4611288565b5b60006116d38482850161169a565b91505092915050565b6116e58161166d565b82525050565b600060a08201905061170060008301886116dc565b61170d602083018761156f565b61171a60408301866115a3565b61172760608301856115a3565b61173460808301846116dc565b9695505050505050565b61174781611599565b811461175257600080fd5b50565b6000813590506117648161173e565b92915050565b6000602082840312156117805761177f611288565b5b600061178e84828501611755565b91505092915050565b6117a081611607565b82525050565b600067ffffffffffffffff82169050919050565b6117c3816117a6565b82525050565b60006040820190506117de6000830185611797565b6117eb60208301846117ba565b9392505050565b7f416363657373436f6e74726f6c3a2063616e206f6e6c792072656e6f756e636560008201527f20726f6c657320666f722073656c660000000000000000000000000000000000602082015250565b600061184e602f83611353565b9150611859826117f2565b604082019050919050565b6000602082019050818103600083015261187d81611841565b9050919050565b7f4e487b7100000000000000000000000000000000000000000000000000000000600052602260045260246000fd5b600060028204905060018216806118cb57607f821691505b602082108114156118df576118de611884565b5b50919050565b7f4e487b7100000000000000000000000000000000000000000000000000000000600052601160045260246000fd5b600061191f826115cd565b915063ffffffff821415611936576119356118e5565b5b600182019050919050565b61194a816114b0565b82525050565b60006040820190506119656000830185611797565b6119726020830184611941565b9392505050565b600081905092915050565b7f416363657373436f6e74726f6c3a206163636f756e7420000000000000000000600082015250565b60006119ba601783611979565b91506119c582611984565b601782019050919050565b60006119db82611348565b6119e58185611979565b93506119f5818560208601611364565b80840191505092915050565b7f206973206d697373696e6720726f6c6520000000000000000000000000000000600082015250565b6000611a37601183611979565b9150611a4282611a01565b601182019050919050565b6000611a58826119ad565b9150611a6482856119d0565b9150611a6f82611a2a565b9150611a7b82846119d0565b91508190509392505050565b6000611a9282611599565b9150611a9d83611599565b9250817fffffffffffffffffffffffffffffffffffffffffffffffffffffffffffffffff0483118215151615611ad657611ad56118e5565b5b828202905092915050565b6000611aec82611599565b9150611af783611599565b9250827fffffffffffffffffffffffffffffffffffffffffffffffffffffffffffffffff03821115611b2c57611b2b6118e5565b5b828201905092915050565b7f4e487b7100000000000000000000000000000000000000000000000000000000600052604160045260246000fd5b7f4e487b7100000000000000000000000000000000000000000000000000000000600052603260045260246000fd5b6000611ba082611599565b91506000821415611bb457611bb36118e5565b5b600182039050919050565b7f537472696e67733a20686578206c656e67746820696e73756666696369656e74600082015250565b6000611bf5602083611353565b9150611c0082611bbf565b602082019050919050565b60006020820190508181036000830152611c2481611be8565b905091905056fea164736f6c634300080c000aa164736f6c634300080c000a",
    "linkReferences": {},
    "deployedLinkReferences": {}
}