{
  "_format": "hh-sol-artifact-1",
  "contractName": "FluxPriceFeedFactory",
  "sourceName": "contracts/FluxPriceFeedFactory.sol",
  "abi": [
    {
      "anonymous": false,
      "inputs": [
        {
          "indexed": true,
          "internalType": "bytes32",
          "name": "id",
          "type": "bytes32"
        },
        {
          "indexed": true,
          "internalType": "address",
          "name": "oracle",
          "type": "address"
        }
      ],
      "name": "FluxPriceFeedCreated",
      "type": "event"
    },
    {
      "anonymous": false,
      "inputs": [
        {
          "indexed": false,
          "internalType": "string",
          "name": "message",
          "type": "string"
        }
      ],
      "name": "Log",
      "type": "event"
    },
    {
      "inputs": [],
      "name": "VALIDATOR_ROLE",
      "outputs": [
        {
          "internalType": "bytes32",
          "name": "",
          "type": "bytes32"
        }
      ],
      "stateMutability": "view",
      "type": "function"
    },
    {
      "inputs": [
        {
          "internalType": "string",
          "name": "_pricePair",
          "type": "string"
        },
        {
          "internalType": "uint8",
          "name": "_decimals",
          "type": "uint8"
        },
        {
          "internalType": "address",
          "name": "_provider",
          "type": "address"
        }
      ],
      "name": "addressOfPricePair",
      "outputs": [
        {
          "internalType": "address",
          "name": "",
          "type": "address"
        }
      ],
      "stateMutability": "view",
      "type": "function"
    },
    {
      "inputs": [
        {
          "internalType": "bytes32",
          "name": "_id",
          "type": "bytes32"
        }
      ],
      "name": "addressOfPricePairId",
      "outputs": [
        {
          "internalType": "address",
          "name": "",
          "type": "address"
        }
      ],
      "stateMutability": "view",
      "type": "function"
    },
    {
      "inputs": [
        {
          "internalType": "bytes32",
          "name": "",
          "type": "bytes32"
        }
      ],
      "name": "fluxPriceFeeds",
      "outputs": [
        {
          "internalType": "contract FluxPriceFeed",
          "name": "",
          "type": "address"
        }
      ],
      "stateMutability": "view",
      "type": "function"
    },
    {
      "inputs": [
        {
          "internalType": "string",
          "name": "_pricePair",
          "type": "string"
        },
        {
          "internalType": "uint8",
          "name": "_decimals",
          "type": "uint8"
        },
        {
          "internalType": "address",
          "name": "_provider",
          "type": "address"
        }
      ],
      "name": "getId",
      "outputs": [
        {
          "internalType": "bytes32",
          "name": "",
          "type": "bytes32"
        }
      ],
      "stateMutability": "pure",
      "type": "function"
    },
    {
      "inputs": [
        {
          "internalType": "string[]",
          "name": "_pricePairs",
          "type": "string[]"
        },
        {
          "internalType": "uint8[]",
          "name": "_decimals",
          "type": "uint8[]"
        },
        {
          "internalType": "int192[]",
          "name": "_answers",
          "type": "int192[]"
        },
        {
          "internalType": "address",
          "name": "_provider",
          "type": "address"
        }
      ],
      "name": "transmit",
      "outputs": [],
      "stateMutability": "nonpayable",
      "type": "function"
    },
    {
      "inputs": [],
      "name": "typeAndVersion",
      "outputs": [
        {
          "internalType": "string",
          "name": "",
          "type": "string"
        }
      ],
      "stateMutability": "pure",
      "type": "function"
    },
    {
      "inputs": [
        {
          "internalType": "bytes32",
          "name": "_id",
          "type": "bytes32"
        }
      ],
      "name": "valueFor",
      "outputs": [
        {
          "internalType": "int256",
          "name": "",
          "type": "int256"
        },
        {
          "internalType": "uint256",
          "name": "",
          "type": "uint256"
        },
        {
          "internalType": "uint256",
          "name": "",
          "type": "uint256"
        }
      ],
      "stateMutability": "view",
      "type": "function"
    }
  ],
  "bytecode": "0x608060405234801561001057600080fd5b5061238b806100206000396000f3fe60806040523480156200001157600080fd5b5060043610620000935760003560e01c806390509fad116200006257806390509fad146200016c578063ab8be6891462000192578063c49baebe14620001a9578063f78eea8314620001d157600080fd5b80630d38339a1462000098578063181f5a7714620000b15780632383c3f114620000fb5780632f8cc3b51462000140575b600080fd5b620000af620000a936600462000b73565b62000204565b005b604080518082018252601a81527f466c7578507269636546656564466163746f727920322e302e3000000000000060208201529051620000f2919062000c5d565b60405180910390f35b620001276200010c36600462000c92565b6000602081905290815260409020546001600160a01b031681565b6040516001600160a01b039091168152602001620000f2565b620001276200015136600462000c92565b6000908152602081905260409020546001600160a01b031690565b620001836200017d36600462000cbe565b62000673565b604051908152602001620000f2565b62000127620001a336600462000cbe565b620006be565b620001837f21702c8af46127c7fa207f89d0b0a8441bb32959a0ac7df790e9ab1a25c9892681565b620001e8620001e236600462000c92565b62000754565b60408051938452602084019290925290820152606001620000f2565b85841480156200021357508582145b620002655760405162461bcd60e51b815260206004820181905260248201527f5472616e736d697474656420617272617973206d75737420626520657175616c60448201526064015b60405180910390fd5b60006001600160a01b038216156200027e578162000280565b335b905060005b8781101562000668576000898983818110620002a557620002a562000d59565b9050602002810190620002b9919062000d6f565b620002f28a8a86818110620002d257620002d262000d59565b9050602002016020810190620002e9919062000db9565b60ff1662000827565b8560405160200162000308949392919062000dde565b60408051601f19818403018152918152815160208084019190912060008181529182905291902054919250906001600160a01b0316158015620003535750336001600160a01b038516145b15620003b957620003b9818c8c8681811062000373576200037362000d59565b905060200281019062000387919062000d6f565b8c8c888181106200039c576200039c62000d59565b9050602002016020810190620003b3919062000db9565b6200095d565b6000818152602081905260409020546001600160a01b03166200041f5760405162461bcd60e51b815260206004820152601660248201527f50726f766964657220646f65736e27742065786973740000000000000000000060448201526064016200025c565b336001600160a01b03851614620005205760008181526020819052604090819020549051632474521560e21b81527f21702c8af46127c7fa207f89d0b0a8441bb32959a0ac7df790e9ab1a25c9892660048201523360248201526001600160a01b03909116906391d1485490604401602060405180830381865afa158015620004ac573d6000803e3d6000fd5b505050506040513d601f19601f82011682018060405250810190620004d2919062000e5f565b620005205760405162461bcd60e51b815260206004820152601c60248201527f4f6e6c792076616c696461746f72732063616e207472616e736d69740000000060448201526064016200025c565b6000818152602081905260409020546001600160a01b03166382b8ebc788888681811062000552576200055262000d59565b905060200201602081019062000569919062000e83565b6040517fffffffff0000000000000000000000000000000000000000000000000000000060e084901b16815260179190910b6004820152602401600060405180830381600087803b158015620005be57600080fd5b505af1925050508015620005d0575060015b6200065057620005df62000ea8565b806308c379a01415620006445750620005f762000f17565b8062000604575062000646565b7fcf34ef537ac33ee1ac626ca1587a0a7e8e51561e5514f8cb36afa1c5102b3bab8160405162000635919062000c5d565b60405180910390a15062000650565b505b3d6000803e3d6000fd5b505080806200065f9062000fbd565b91505062000285565b505050505050505050565b6000808585620006868660ff1662000827565b856040516020016200069c949392919062000dde565b60408051808303601f1901815291905280516020909101209695505050505050565b6040516390509fad60e01b8152600090819030906390509fad90620006ee90899089908990899060040162001004565b602060405180830381865afa1580156200070c573d6000803e3d6000fd5b505050506040513d601f19601f820116820180604052508101906200073291906200103d565b6000908152602081905260409020546001600160a01b03169695505050505050565b600081815260208190526040812054819081906001600160a01b031615620008145760008481526020819052604090819020548151633fabe5a360e21b815291516001600160a01b039091169163feaf968c9160048083019260a09291908290030181865afa925050508015620007ea575060408051601f3d908101601f19168201909252620007e79181019062001072565b60015b6200080057506000915081905061019462000820565b5091955090935060c8925062000820915050565b50600091508190506101945b9193909250565b6060816200084c5750506040805180820190915260018152600360fc1b602082015290565b8160005b81156200087c5780620008638162000fbd565b9150620008749050600a83620010dd565b915062000850565b60008167ffffffffffffffff8111156200089a576200089a62000ec5565b6040519080825280601f01601f191660200182016040528015620008c5576020820181803683370190505b5090505b84156200095557620008dd600183620010f4565b9150620008ec600a866200110e565b620008f990603062001125565b60f81b81838151811062000911576200091162000d59565b60200101907effffffffffffffffffffffffffffffffffffffffffffffffffffffffffffff1916908160001a9053506200094d600a86620010dd565b9450620008c9565b949350505050565b600030828585604051620009719062000af9565b62000980949392919062001140565b604051809103906000f0801580156200099d573d6000803e3d6000fd5b5060008681526020819052604080822080547fffffffffffffffffffffffff0000000000000000000000000000000000000000166001600160a01b0385169081179091559051632f2ff15d60e01b81526004810192909252336024830152919250632f2ff15d90604401600060405180830381600087803b15801562000a2257600080fd5b505af115801562000a37573d6000803e3d6000fd5b5050604051632f2ff15d60e01b81527f21702c8af46127c7fa207f89d0b0a8441bb32959a0ac7df790e9ab1a25c9892660048201523360248201526001600160a01b0384169250632f2ff15d9150604401600060405180830381600087803b15801562000aa357600080fd5b505af115801562000ab8573d6000803e3d6000fd5b50506040516001600160a01b03841692508791507f5d69a870251b4a642b49099b0af2fb83c0a520f170f251792be62ea45aa53b6b90600090a35050505050565b611206806200117983390190565b60008083601f84011262000b1a57600080fd5b50813567ffffffffffffffff81111562000b3357600080fd5b6020830191508360208260051b850101111562000b4f57600080fd5b9250929050565b80356001600160a01b038116811462000b6e57600080fd5b919050565b60008060008060008060006080888a03121562000b8f57600080fd5b873567ffffffffffffffff8082111562000ba857600080fd5b62000bb68b838c0162000b07565b909950975060208a013591508082111562000bd057600080fd5b62000bde8b838c0162000b07565b909750955060408a013591508082111562000bf857600080fd5b5062000c078a828b0162000b07565b909450925062000c1c90506060890162000b56565b905092959891949750929550565b60005b8381101562000c4757818101518382015260200162000c2d565b8381111562000c57576000848401525b50505050565b602081526000825180602084015262000c7e81604085016020870162000c2a565b601f01601f19169190910160400192915050565b60006020828403121562000ca557600080fd5b5035919050565b803560ff8116811462000b6e57600080fd5b6000806000806060858703121562000cd557600080fd5b843567ffffffffffffffff8082111562000cee57600080fd5b818701915087601f83011262000d0357600080fd5b81358181111562000d1357600080fd5b88602082850101111562000d2657600080fd5b60209283019650945062000d3e918701905062000cac565b915062000d4e6040860162000b56565b905092959194509250565b634e487b7160e01b600052603260045260246000fd5b6000808335601e1984360301811262000d8757600080fd5b83018035915067ffffffffffffffff82111562000da357600080fd5b60200191503681900382131562000b4f57600080fd5b60006020828403121562000dcc57600080fd5b62000dd78262000cac565b9392505050565b7f50726963652d0000000000000000000000000000000000000000000000000000815283856006830137602d60f81b84820160068101829052845160009262000e2f826007850160208a0162000c2a565b6007929091019182015260609390931b6bffffffffffffffffffffffff191660088401525050601c019392505050565b60006020828403121562000e7257600080fd5b8151801515811462000dd757600080fd5b60006020828403121562000e9657600080fd5b81358060170b811462000dd757600080fd5b600060033d111562000ec25760046000803e5060005160e01c5b90565b634e487b7160e01b600052604160045260246000fd5b601f8201601f1916810167ffffffffffffffff8111828210171562000f1057634e487b7160e01b600052604160045260246000fd5b6040525050565b600060443d101562000f265790565b6040516003193d81016004833e81513d67ffffffffffffffff816024840111818411171562000f5757505050505090565b828501915081518181111562000f705750505050505090565b843d870101602082850101111562000f8b5750505050505090565b62000f9c6020828601018762000edb565b509095945050505050565b634e487b7160e01b600052601160045260246000fd5b600060001982141562000fd45762000fd462000fa7565b5060010190565b81835281816020850137506000828201602090810191909152601f909101601f19169091010190565b6060815260006200101a60608301868862000fdb565b905060ff841660208301526001600160a01b038316604083015295945050505050565b6000602082840312156200105057600080fd5b5051919050565b805169ffffffffffffffffffff8116811462000b6e57600080fd5b600080600080600060a086880312156200108b57600080fd5b620010968662001057565b9450602086015193506040860151925060608601519150620010bb6080870162001057565b90509295509295909350565b634e487b7160e01b600052601260045260246000fd5b600082620010ef57620010ef620010c7565b500490565b60008282101562001109576200110962000fa7565b500390565b600082620011205762001120620010c7565b500690565b600082198211156200113b576200113b62000fa7565b500190565b6001600160a01b038516815260ff841660208201526060604082015260006200116e60608301848662000fdb565b969550505050505056fe60a06040523480156200001157600080fd5b5060405162001206380380620012068339810160408190526200003491620001ff565b6200004160003362000093565b6200006d7f21702c8af46127c7fa207f89d0b0a8441bb32959a0ac7df790e9ab1a25c989268462000093565b60ff821660805280516200008990600390602084019062000143565b5050505062000356565b6200009f8282620000a3565b5050565b6000828152602081815260408083206001600160a01b038516845290915290205460ff166200009f576000828152602081815260408083206001600160a01b03851684529091529020805460ff19166001179055620000ff3390565b6001600160a01b0316816001600160a01b0316837f2f8788117e7eff1d82e926ec794901d17c78024a50270940304540a733656f0d60405160405180910390a45050565b828054620001519062000319565b90600052602060002090601f016020900481019282620001755760008555620001c0565b82601f106200019057805160ff1916838001178555620001c0565b82800160010185558215620001c0579182015b82811115620001c0578251825591602001919060010190620001a3565b50620001ce929150620001d2565b5090565b5b80821115620001ce5760008155600101620001d3565b634e487b7160e01b600052604160045260246000fd5b6000806000606084860312156200021557600080fd5b83516001600160a01b03811681146200022d57600080fd5b8093505060208085015160ff811681146200024757600080fd5b60408601519093506001600160401b03808211156200026557600080fd5b818701915087601f8301126200027a57600080fd5b8151818111156200028f576200028f620001e9565b604051601f8201601f19908116603f01168101908382118183101715620002ba57620002ba620001e9565b816040528281528a86848701011115620002d357600080fd5b600093505b82841015620002f75784840186015181850187015292850192620002d8565b82841115620003095760008684830101525b8096505050505050509250925092565b600181811c908216806200032e57607f821691505b602082108114156200035057634e487b7160e01b600052602260045260246000fd5b50919050565b608051610e9462000372600039600061023c0152610e946000f3fe608060405234801561001057600080fd5b50600436106101825760003560e01c80638205bf6a116100d8578063b5ab58dc1161008c578063d547741f11610066578063d547741f146103fd578063e5fe457714610410578063feaf968c1461046257600080fd5b8063b5ab58dc146103b0578063b633620c146103c3578063c49baebe146103d657600080fd5b806391d14854116100bd57806391d14854146103275780639a6fc8f51461035e578063a217fddf146103a857600080fd5b80638205bf6a146102e657806382b8ebc71461031457600080fd5b806336568abe1161013a5780635ed63b40116101145780635ed63b40146102ab578063668a0f02146102d05780637284e416146102de57600080fd5b806336568abe1461027057806350d25bcd1461028357806354fd4d50146102a357600080fd5b8063248a9ca31161016b578063248a9ca3146101f15780632f2ff15d14610222578063313ce5671461023757600080fd5b806301ffc9a714610187578063181f5a77146101af575b600080fd5b61019a610195366004610be6565b6104b2565b60405190151581526020015b60405180910390f35b60408051808201909152601381527f466c757850726963654665656420312e322e300000000000000000000000000060208201525b6040516101a69190610c40565b6102146101ff366004610c73565b60009081526020819052604090206001015490565b6040519081526020016101a6565b610235610230366004610c8c565b6104e9565b005b61025e7f000000000000000000000000000000000000000000000000000000000000000081565b60405160ff90911681526020016101a6565b61023561027e366004610c8c565b610514565b60015463ffffffff1660009081526002602052604090205460170b610214565b610214600181565b6001546102bb9063ffffffff1681565b60405163ffffffff90911681526020016101a6565b60015463ffffffff16610214565b6101e46105a5565b60015463ffffffff16600090815260026020526040902054600160c01b900467ffffffffffffffff16610214565b610235610322366004610cc8565b610637565b61019a610335366004610c8c565b6000918252602082815260408084206001600160a01b0393909316845291905290205460ff1690565b61037161036c366004610ceb565b610740565b6040805169ffffffffffffffffffff968716815260208101959095528401929092526060830152909116608082015260a0016101a6565b610214600081565b6102146103be366004610c73565b610803565b6102146103d1366004610c73565b610835565b6102147f21702c8af46127c7fa207f89d0b0a8441bb32959a0ac7df790e9ab1a25c9892681565b61023561040b366004610c8c565b610875565b60015463ffffffff16600090815260026020526040902054601781900b90600160c01b900467ffffffffffffffff166040805160179390930b835267ffffffffffffffff9091166020830152016101a6565b61037160015463ffffffff16600081815260026020908152604091829020825180840190935254601781900b808452600160c01b90910467ffffffffffffffff1692909101829052919281908490565b60006001600160e01b03198216637965db0b60e01b14806104e357506301ffc9a760e01b6001600160e01b03198316145b92915050565b600082815260208190526040902060010154610505813361089b565b61050f8383610919565b505050565b6001600160a01b03811633146105975760405162461bcd60e51b815260206004820152602f60248201527f416363657373436f6e74726f6c3a2063616e206f6e6c792072656e6f756e636560448201527f20726f6c657320666f722073656c66000000000000000000000000000000000060648201526084015b60405180910390fd5b6105a182826109b7565b5050565b6060600380546105b490610d17565b80601f01602080910402602001604051908101604052809291908181526020018280546105e090610d17565b801561062d5780601f106106025761010080835404028352916020019161062d565b820191906000526020600020905b81548152906001019060200180831161061057829003601f168201915b5050505050905090565b7f21702c8af46127c7fa207f89d0b0a8441bb32959a0ac7df790e9ab1a25c98926610662813361089b565b6001805463ffffffff1690600061067883610d68565b825463ffffffff9182166101009390930a928302928202191691909117909155604080518082018252601786900b80825267ffffffffffffffff428116602080850191825260018054881660009081526002835287902095519251909316600160c01b0277ffffffffffffffffffffffffffffffffffffffffffffffff909216919091179093555483519182523392820192909252921692507f17eabd0a66fa631f7537cefdd5df6aa25d5ac904cf7596e958d43a75a00d0d68910160405180910390a25050565b600080600080600063ffffffff8669ffffffffffffffffffff1611156040518060400160405280600f81526020017f4e6f20646174612070726573656e740000000000000000000000000000000000815250906107b05760405162461bcd60e51b815260040161058e9190610c40565b5050505063ffffffff8316600090815260026020908152604091829020825180840190935254601781900b808452600160c01b90910467ffffffffffffffff169290910182905293949092508291508490565b600063ffffffff82111561081957506000919050565b5063ffffffff1660009081526002602052604090205460170b90565b600063ffffffff82111561084b57506000919050565b5063ffffffff16600090815260026020526040902054600160c01b900467ffffffffffffffff1690565b600082815260208190526040902060010154610891813361089b565b61050f83836109b7565b6000828152602081815260408083206001600160a01b038516845290915290205460ff166105a1576108d7816001600160a01b03166014610a36565b6108e2836020610a36565b6040516020016108f3929190610d8c565b60408051601f198184030181529082905262461bcd60e51b825261058e91600401610c40565b6000828152602081815260408083206001600160a01b038516845290915290205460ff166105a1576000828152602081815260408083206001600160a01b03851684529091529020805460ff191660011790556109733390565b6001600160a01b0316816001600160a01b0316837f2f8788117e7eff1d82e926ec794901d17c78024a50270940304540a733656f0d60405160405180910390a45050565b6000828152602081815260408083206001600160a01b038516845290915290205460ff16156105a1576000828152602081815260408083206001600160a01b0385168085529252808320805460ff1916905551339285917ff6391f5c32d9c69d2a47ea670b442974b53935d1edc7fd64eb21e047a839171b9190a45050565b60606000610a45836002610e0d565b610a50906002610e2c565b67ffffffffffffffff811115610a6857610a68610e44565b6040519080825280601f01601f191660200182016040528015610a92576020820181803683370190505b509050600360fc1b81600081518110610aad57610aad610e5a565b60200101906001600160f81b031916908160001a905350600f60fb1b81600181518110610adc57610adc610e5a565b60200101906001600160f81b031916908160001a9053506000610b00846002610e0d565b610b0b906001610e2c565b90505b6001811115610b90577f303132333435363738396162636465660000000000000000000000000000000085600f1660108110610b4c57610b4c610e5a565b1a60f81b828281518110610b6257610b62610e5a565b60200101906001600160f81b031916908160001a90535060049490941c93610b8981610e70565b9050610b0e565b508315610bdf5760405162461bcd60e51b815260206004820181905260248201527f537472696e67733a20686578206c656e67746820696e73756666696369656e74604482015260640161058e565b9392505050565b600060208284031215610bf857600080fd5b81356001600160e01b031981168114610bdf57600080fd5b60005b83811015610c2b578181015183820152602001610c13565b83811115610c3a576000848401525b50505050565b6020815260008251806020840152610c5f816040850160208701610c10565b601f01601f19169190910160400192915050565b600060208284031215610c8557600080fd5b5035919050565b60008060408385031215610c9f57600080fd5b8235915060208301356001600160a01b0381168114610cbd57600080fd5b809150509250929050565b600060208284031215610cda57600080fd5b81358060170b8114610bdf57600080fd5b600060208284031215610cfd57600080fd5b813569ffffffffffffffffffff81168114610bdf57600080fd5b600181811c90821680610d2b57607f821691505b60208210811415610d4c57634e487b7160e01b600052602260045260246000fd5b50919050565b634e487b7160e01b600052601160045260246000fd5b600063ffffffff80831681811415610d8257610d82610d52565b6001019392505050565b7f416363657373436f6e74726f6c3a206163636f756e7420000000000000000000815260008351610dc4816017850160208801610c10565b7f206973206d697373696e6720726f6c65200000000000000000000000000000006017918401918201528351610e01816028840160208801610c10565b01602801949350505050565b6000816000190483118215151615610e2757610e27610d52565b500290565b60008219821115610e3f57610e3f610d52565b500190565b634e487b7160e01b600052604160045260246000fd5b634e487b7160e01b600052603260045260246000fd5b600081610e7f57610e7f610d52565b50600019019056fea164736f6c634300080c000aa164736f6c634300080c000a",
  "linkReferences": {},
  "deployedLinkReferences": {}
}