{
    "_format": "hh-sol-artifact-1",
    "contractName": "FluxPriceFeedFactory",
    "sourceName": "contracts/FluxPriceFeedFactory.sol",
    "abi": [
        {
            "inputs": [
                {
                    "internalType": "address",
                    "name": "_validator",
                    "type": "address"
                }
            ],
            "stateMutability": "nonpayable",
            "type": "constructor"
        },
        {
            "anonymous": false,
            "inputs": [
                {
                    "indexed": true,
                    "internalType": "bytes32",
                    "name": "id",
                    "type": "bytes32"
                },
                {
                    "indexed": true,
                    "internalType": "address",
                    "name": "oracle",
                    "type": "address"
                }
            ],
            "name": "FluxPriceFeedCreated",
            "type": "event"
        },
        {
            "anonymous": false,
            "inputs": [
                {
                    "indexed": false,
                    "internalType": "string",
                    "name": "message",
                    "type": "string"
                }
            ],
            "name": "Log",
            "type": "event"
        },
        {
            "anonymous": false,
            "inputs": [
                {
                    "indexed": true,
                    "internalType": "bytes32",
                    "name": "role",
                    "type": "bytes32"
                },
                {
                    "indexed": true,
                    "internalType": "bytes32",
                    "name": "previousAdminRole",
                    "type": "bytes32"
                },
                {
                    "indexed": true,
                    "internalType": "bytes32",
                    "name": "newAdminRole",
                    "type": "bytes32"
                }
            ],
            "name": "RoleAdminChanged",
            "type": "event"
        },
        {
            "anonymous": false,
            "inputs": [
                {
                    "indexed": true,
                    "internalType": "bytes32",
                    "name": "role",
                    "type": "bytes32"
                },
                {
                    "indexed": true,
                    "internalType": "address",
                    "name": "account",
                    "type": "address"
                },
                {
                    "indexed": true,
                    "internalType": "address",
                    "name": "sender",
                    "type": "address"
                }
            ],
            "name": "RoleGranted",
            "type": "event"
        },
        {
            "anonymous": false,
            "inputs": [
                {
                    "indexed": true,
                    "internalType": "bytes32",
                    "name": "role",
                    "type": "bytes32"
                },
                {
                    "indexed": true,
                    "internalType": "address",
                    "name": "account",
                    "type": "address"
                },
                {
                    "indexed": true,
                    "internalType": "address",
                    "name": "sender",
                    "type": "address"
                }
            ],
            "name": "RoleRevoked",
            "type": "event"
        },
        {
            "inputs": [],
            "name": "DEFAULT_ADMIN_ROLE",
            "outputs": [
                {
                    "internalType": "bytes32",
                    "name": "",
                    "type": "bytes32"
                }
            ],
            "stateMutability": "view",
            "type": "function"
        },
        {
            "inputs": [],
            "name": "VALIDATOR_ROLE",
            "outputs": [
                {
                    "internalType": "bytes32",
                    "name": "",
                    "type": "bytes32"
                }
            ],
            "stateMutability": "view",
            "type": "function"
        },
        {
            "inputs": [
                {
                    "internalType": "bytes32",
                    "name": "_id",
                    "type": "bytes32"
                }
            ],
            "name": "addressOfPricePair",
            "outputs": [
                {
                    "internalType": "address",
                    "name": "",
                    "type": "address"
                }
            ],
            "stateMutability": "view",
            "type": "function"
        },
        {
            "inputs": [
                {
                    "internalType": "bytes32",
                    "name": "",
                    "type": "bytes32"
                }
            ],
            "name": "fluxPriceFeeds",
            "outputs": [
                {
                    "internalType": "contract FluxPriceFeed",
                    "name": "",
                    "type": "address"
                }
            ],
            "stateMutability": "view",
            "type": "function"
        },
        {
            "inputs": [
                {
                    "internalType": "bytes32",
                    "name": "role",
                    "type": "bytes32"
                }
            ],
            "name": "getRoleAdmin",
            "outputs": [
                {
                    "internalType": "bytes32",
                    "name": "",
                    "type": "bytes32"
                }
            ],
            "stateMutability": "view",
            "type": "function"
        },
        {
            "inputs": [
                {
                    "internalType": "bytes32",
                    "name": "role",
                    "type": "bytes32"
                },
                {
                    "internalType": "address",
                    "name": "account",
                    "type": "address"
                }
            ],
            "name": "grantRole",
            "outputs": [],
            "stateMutability": "nonpayable",
            "type": "function"
        },
        {
            "inputs": [
                {
                    "internalType": "bytes32",
                    "name": "role",
                    "type": "bytes32"
                },
                {
                    "internalType": "address",
                    "name": "account",
                    "type": "address"
                }
            ],
            "name": "hasRole",
            "outputs": [
                {
                    "internalType": "bool",
                    "name": "",
                    "type": "bool"
                }
            ],
            "stateMutability": "view",
            "type": "function"
        },
        {
            "inputs": [
                {
                    "internalType": "bytes32",
                    "name": "role",
                    "type": "bytes32"
                },
                {
                    "internalType": "address",
                    "name": "account",
                    "type": "address"
                }
            ],
            "name": "renounceRole",
            "outputs": [],
            "stateMutability": "nonpayable",
            "type": "function"
        },
        {
            "inputs": [
                {
                    "internalType": "bytes32",
                    "name": "role",
                    "type": "bytes32"
                },
                {
                    "internalType": "address",
                    "name": "account",
                    "type": "address"
                }
            ],
            "name": "revokeRole",
            "outputs": [],
            "stateMutability": "nonpayable",
            "type": "function"
        },
        {
            "inputs": [
                {
                    "internalType": "bytes4",
                    "name": "interfaceId",
                    "type": "bytes4"
                }
            ],
            "name": "supportsInterface",
            "outputs": [
                {
                    "internalType": "bool",
                    "name": "",
                    "type": "bool"
                }
            ],
            "stateMutability": "view",
            "type": "function"
        },
        {
            "inputs": [
                {
                    "internalType": "string[]",
                    "name": "_pricePairs",
                    "type": "string[]"
                },
                {
                    "internalType": "uint8[]",
                    "name": "_decimals",
                    "type": "uint8[]"
                },
                {
                    "internalType": "int192[]",
                    "name": "_answers",
                    "type": "int192[]"
                }
            ],
            "name": "transmit",
            "outputs": [],
            "stateMutability": "nonpayable",
            "type": "function"
        },
        {
            "inputs": [
                {
                    "internalType": "bytes32",
                    "name": "_id",
                    "type": "bytes32"
                }
            ],
            "name": "valueFor",
            "outputs": [
                {
                    "internalType": "int256",
                    "name": "",
                    "type": "int256"
                },
                {
                    "internalType": "uint256",
                    "name": "",
                    "type": "uint256"
                },
                {
                    "internalType": "uint256",
                    "name": "",
                    "type": "uint256"
                }
            ],
            "stateMutability": "view",
            "type": "function"
        }
    ],
    "bytecode": "0x60806040523480156200001157600080fd5b506040516200280438038062002804833981016040819052620000349162000124565b6200004160003362000074565b6200006d7f21702c8af46127c7fa207f89d0b0a8441bb32959a0ac7df790e9ab1a25c989268262000074565b5062000156565b62000080828262000084565b5050565b6000828152602081815260408083206001600160a01b038516845290915290205460ff1662000080576000828152602081815260408083206001600160a01b03851684529091529020805460ff19166001179055620000e03390565b6001600160a01b0316816001600160a01b0316837f2f8788117e7eff1d82e926ec794901d17c78024a50270940304540a733656f0d60405160405180910390a45050565b6000602082840312156200013757600080fd5b81516001600160a01b03811681146200014f57600080fd5b9392505050565b61269e80620001666000396000f3fe60806040523480156200001157600080fd5b5060043610620000e55760003560e01c806391d14854116200008b578063d547741f1162000062578063d547741f1462000257578063eb1e7135146200026e578063f78eea83146200028557600080fd5b806391d1485414620001ec578063a217fddf1462000226578063c49baebe146200022f57600080fd5b80632f2ff15d11620000c05780632f2ff15d146200019057806336568abe14620001a957806343f8f80214620001c057600080fd5b806301ffc9a714620000ea5780632383c3f11462000116578063248a9ca3146200015b575b600080fd5b62000101620000fb36600462000e16565b620002b8565b60405190151581526020015b60405180910390f35b620001426200012736600462000e42565b6001602052600090815260409020546001600160a01b031681565b6040516001600160a01b0390911681526020016200010d565b620001816200016c36600462000e42565b60009081526020819052604090206001015490565b6040519081526020016200010d565b620001a7620001a136600462000e5c565b620002f0565b005b620001a7620001ba36600462000e5c565b6200031f565b62000142620001d136600462000e42565b6000908152600160205260409020546001600160a01b031690565b62000101620001fd36600462000e5c565b6000918252602082815260408084206001600160a01b0393909316845291905290205460ff1690565b62000181600081565b620001817f21702c8af46127c7fa207f89d0b0a8441bb32959a0ac7df790e9ab1a25c9892681565b620001a76200026836600462000e5c565b620003b3565b620001a76200027f36600462000ee9565b620003dd565b6200029c6200029636600462000e42565b62000767565b604080519384526020840192909252908201526060016200010d565b60006001600160e01b03198216637965db0b60e01b1480620002ea57506301ffc9a760e01b6001600160e01b03198316145b92915050565b6000828152602081905260409020600101546200030e81336200083a565b6200031a8383620008c1565b505050565b6001600160a01b0381163314620003a35760405162461bcd60e51b815260206004820152602f60248201527f416363657373436f6e74726f6c3a2063616e206f6e6c792072656e6f756e636560448201527f20726f6c657320666f722073656c66000000000000000000000000000000000060648201526084015b60405180910390fd5b620003af828262000961565b5050565b600082815260208190526040902060010154620003d181336200083a565b6200031a838362000961565b7f21702c8af46127c7fa207f89d0b0a8441bb32959a0ac7df790e9ab1a25c989266200040a81336200083a565b85841480156200041957508582145b620004675760405162461bcd60e51b815260206004820181905260248201527f5472616e736d697474656420617272617973206d75737420626520657175616c60448201526064016200039a565b60005b868110156200075d5760008888838181106200048a576200048a62000f8d565b90506020028101906200049e919062000fa3565b620004d7898986818110620004b757620004b762000f8d565b9050602002016020810190620004ce919062000fed565b60ff16620009e1565b604051602001620004eb9392919062001045565b60408051601f1981840301815291815281516020808401919091206000818152600190925291902054919250906001600160a01b03161562000645576000818152600160205260409020546001600160a01b03166382b8ebc787878681811062000559576200055962000f8d565b9050602002016020810190620005709190620010a6565b6040516001600160e01b031960e084901b16815260179190910b6004820152602401600060405180830381600087803b158015620005ad57600080fd5b505af1925050508015620005bf575060015b6200063f57620005ce620010cb565b806308c379a01415620006335750620005e66200113a565b80620005f3575062000635565b7fcf34ef537ac33ee1ac626ca1587a0a7e8e51561e5514f8cb36afa1c5102b3bab81604051620006249190620011ca565b60405180910390a15062000745565b505b3d6000803e3d6000fd5b62000745565b620006a5818b8b868181106200065f576200065f62000f8d565b905060200281019062000673919062000fa3565b8b8b8881811062000688576200068862000f8d565b90506020020160208101906200069f919062000fed565b62000aff565b6000818152600160205260409020546001600160a01b03166382b8ebc7878786818110620006d757620006d762000f8d565b9050602002016020810190620006ee9190620010a6565b6040516001600160e01b031960e084901b16815260179190910b6004820152602401600060405180830381600087803b1580156200072b57600080fd5b505af115801562000740573d6000803e3d6000fd5b505050505b50508080620007549062001215565b9150506200046a565b5050505050505050565b600081815260016020526040812054819081906001600160a01b031615620008275760008481526001602052604090819020548151633fabe5a360e21b815291516001600160a01b039091169163feaf968c9160048083019260a09291908290030181865afa925050508015620007fd575060408051601f3d908101601f19168201909252620007fa9181019062001253565b60015b6200081357506000915081905061019462000833565b5091955090935060c8925062000833915050565b50600091508190506101945b9193909250565b6000828152602081815260408083206001600160a01b038516845290915290205460ff16620003af5762000879816001600160a01b0316601462000c3a565b6200088683602062000c3a565b60405160200162000899929190620012a8565b60408051601f198184030181529082905262461bcd60e51b82526200039a91600401620011ca565b6000828152602081815260408083206001600160a01b038516845290915290205460ff16620003af576000828152602081815260408083206001600160a01b03851684529091529020805460ff191660011790556200091d3390565b6001600160a01b0316816001600160a01b0316837f2f8788117e7eff1d82e926ec794901d17c78024a50270940304540a733656f0d60405160405180910390a45050565b6000828152602081815260408083206001600160a01b038516845290915290205460ff1615620003af576000828152602081815260408083206001600160a01b0385168085529252808320805460ff1916905551339285917ff6391f5c32d9c69d2a47ea670b442974b53935d1edc7fd64eb21e047a839171b9190a45050565b60608162000a065750506040805180820190915260018152600360fc1b602082015290565b8160005b811562000a36578062000a1d8162001215565b915062000a2e9050600a8362001343565b915062000a0a565b60008167ffffffffffffffff81111562000a545762000a54620010e8565b6040519080825280601f01601f19166020018201604052801562000a7f576020820181803683370190505b5090505b841562000af75762000a976001836200135a565b915062000aa6600a8662001374565b62000ab39060306200138b565b60f81b81838151811062000acb5762000acb62000f8d565b60200101906001600160f81b031916908160001a90535062000aef600a8662001343565b945062000a83565b949350505050565b60003082858560405162000b139062000e08565b62000b229493929190620013a6565b604051809103906000f08015801562000b3f573d6000803e3d6000fd5b506000868152600160205260409081902080547fffffffffffffffffffffffff0000000000000000000000000000000000000000166001600160a01b0384169081179091559051632f2ff15d60e01b81527f21702c8af46127c7fa207f89d0b0a8441bb32959a0ac7df790e9ab1a25c98926600482015233602482015291925090632f2ff15d90604401600060405180830381600087803b15801562000be457600080fd5b505af115801562000bf9573d6000803e3d6000fd5b50506040516001600160a01b03841692508791507f5d69a870251b4a642b49099b0af2fb83c0a520f170f251792be62ea45aa53b6b90600090a35050505050565b6060600062000c4b836002620013ef565b62000c589060026200138b565b67ffffffffffffffff81111562000c735762000c73620010e8565b6040519080825280601f01601f19166020018201604052801562000c9e576020820181803683370190505b509050600360fc1b8160008151811062000cbc5762000cbc62000f8d565b60200101906001600160f81b031916908160001a905350600f60fb1b8160018151811062000cee5762000cee62000f8d565b60200101906001600160f81b031916908160001a905350600062000d14846002620013ef565b62000d219060016200138b565b90505b600181111562000db0577f303132333435363738396162636465660000000000000000000000000000000085600f166010811062000d665762000d6662000f8d565b1a60f81b82828151811062000d7f5762000d7f62000f8d565b60200101906001600160f81b031916908160001a90535060049490941c9362000da88162001411565b905062000d24565b50831562000e015760405162461bcd60e51b815260206004820181905260248201527f537472696e67733a20686578206c656e67746820696e73756666696369656e7460448201526064016200039a565b9392505050565b611266806200142c83390190565b60006020828403121562000e2957600080fd5b81356001600160e01b03198116811462000e0157600080fd5b60006020828403121562000e5557600080fd5b5035919050565b6000806040838503121562000e7057600080fd5b8235915060208301356001600160a01b038116811462000e8f57600080fd5b809150509250929050565b60008083601f84011262000ead57600080fd5b50813567ffffffffffffffff81111562000ec657600080fd5b6020830191508360208260051b850101111562000ee257600080fd5b9250929050565b6000806000806000806060878903121562000f0357600080fd5b863567ffffffffffffffff8082111562000f1c57600080fd5b62000f2a8a838b0162000e9a565b9098509650602089013591508082111562000f4457600080fd5b62000f528a838b0162000e9a565b9096509450604089013591508082111562000f6c57600080fd5b5062000f7b89828a0162000e9a565b979a9699509497509295939492505050565b634e487b7160e01b600052603260045260246000fd5b6000808335601e1984360301811262000fbb57600080fd5b83018035915067ffffffffffffffff82111562000fd757600080fd5b60200191503681900382131562000ee257600080fd5b6000602082840312156200100057600080fd5b813560ff8116811462000e0157600080fd5b60005b838110156200102f57818101518382015260200162001015565b838111156200103f576000848401525b50505050565b7f50726963652d000000000000000000000000000000000000000000000000000081528284600683013760008382016006810160008152602d60f81b81525083516200109981600784016020880162001012565b0160070195945050505050565b600060208284031215620010b957600080fd5b81358060170b811462000e0157600080fd5b600060033d1115620010e55760046000803e5060005160e01c5b90565b634e487b7160e01b600052604160045260246000fd5b601f8201601f1916810167ffffffffffffffff811182821017156200113357634e487b7160e01b600052604160045260246000fd5b6040525050565b600060443d1015620011495790565b6040516003193d81016004833e81513d67ffffffffffffffff81602484011181841117156200117a57505050505090565b8285019150815181811115620011935750505050505090565b843d8701016020828501011115620011ae5750505050505090565b620011bf60208286010187620010fe565b509095945050505050565b6020815260008251806020840152620011eb81604085016020870162001012565b601f01601f19169190910160400192915050565b634e487b7160e01b600052601160045260246000fd5b60006000198214156200122c576200122c620011ff565b5060010190565b805169ffffffffffffffffffff811681146200124e57600080fd5b919050565b600080600080600060a086880312156200126c57600080fd5b620012778662001233565b94506020860151935060408601519250606086015191506200129c6080870162001233565b90509295509295909350565b7f416363657373436f6e74726f6c3a206163636f756e7420000000000000000000815260008351620012e281601785016020880162001012565b7f206973206d697373696e6720726f6c652000000000000000000000000000000060179184019182015283516200132181602884016020880162001012565b01602801949350505050565b634e487b7160e01b600052601260045260246000fd5b6000826200135557620013556200132d565b500490565b6000828210156200136f576200136f620011ff565b500390565b6000826200138657620013866200132d565b500690565b60008219821115620013a157620013a1620011ff565b500190565b6001600160a01b038516815260ff8416602082015260606040820152816060820152818360808301376000818301608090810191909152601f909201601f191601019392505050565b60008160001904831182151516156200140c576200140c620011ff565b500290565b600081620014235762001423620011ff565b50600019019056fe60a06040523480156200001157600080fd5b5060405162001266380380620012668339810160408190526200003491620001ff565b6200004160003362000093565b6200006d7f21702c8af46127c7fa207f89d0b0a8441bb32959a0ac7df790e9ab1a25c989268462000093565b60ff821660805280516200008990600390602084019062000143565b5050505062000356565b6200009f8282620000a3565b5050565b6000828152602081815260408083206001600160a01b038516845290915290205460ff166200009f576000828152602081815260408083206001600160a01b03851684529091529020805460ff19166001179055620000ff3390565b6001600160a01b0316816001600160a01b0316837f2f8788117e7eff1d82e926ec794901d17c78024a50270940304540a733656f0d60405160405180910390a45050565b828054620001519062000319565b90600052602060002090601f016020900481019282620001755760008555620001c0565b82601f106200019057805160ff1916838001178555620001c0565b82800160010185558215620001c0579182015b82811115620001c0578251825591602001919060010190620001a3565b50620001ce929150620001d2565b5090565b5b80821115620001ce5760008155600101620001d3565b634e487b7160e01b600052604160045260246000fd5b6000806000606084860312156200021557600080fd5b83516001600160a01b03811681146200022d57600080fd5b8093505060208085015160ff811681146200024757600080fd5b60408601519093506001600160401b03808211156200026557600080fd5b818701915087601f8301126200027a57600080fd5b8151818111156200028f576200028f620001e9565b604051601f8201601f19908116603f01168101908382118183101715620002ba57620002ba620001e9565b816040528281528a86848701011115620002d357600080fd5b600093505b82841015620002f75784840186015181850187015292850192620002d8565b82841115620003095760008684830101525b8096505050505050509250925092565b600181811c908216806200032e57607f821691505b602082108114156200035057634e487b7160e01b600052602260045260246000fd5b50919050565b608051610ef462000372600039600061023c0152610ef46000f3fe608060405234801561001057600080fd5b50600436106101825760003560e01c80638205bf6a116100d8578063b5ab58dc1161008c578063d547741f11610066578063d547741f146103fd578063e5fe457714610410578063feaf968c1461043b57600080fd5b8063b5ab58dc146103b0578063b633620c146103c3578063c49baebe146103d657600080fd5b806391d14854116100bd57806391d14854146103275780639a6fc8f51461035e578063a217fddf146103a857600080fd5b80638205bf6a146102e657806382b8ebc71461031457600080fd5b806336568abe1161013a5780635ed63b40116101145780635ed63b40146102ab578063668a0f02146102d05780637284e416146102de57600080fd5b806336568abe1461027057806350d25bcd1461028357806354fd4d50146102a357600080fd5b8063248a9ca31161016b578063248a9ca3146101f15780632f2ff15d14610222578063313ce5671461023757600080fd5b806301ffc9a714610187578063181f5a77146101af575b600080fd5b61019a610195366004610c46565b61048b565b60405190151581526020015b60405180910390f35b60408051808201909152601381527f466c757850726963654665656420312e322e300000000000000000000000000060208201525b6040516101a69190610ca0565b6102146101ff366004610cd3565b60009081526020819052604090206001015490565b6040519081526020016101a6565b610235610230366004610cec565b6104c2565b005b61025e7f000000000000000000000000000000000000000000000000000000000000000081565b60405160ff90911681526020016101a6565b61023561027e366004610cec565b6104ed565b60015463ffffffff1660009081526002602052604090205460170b610214565b610214600181565b6001546102bb9063ffffffff1681565b60405163ffffffff90911681526020016101a6565b60015463ffffffff16610214565b6101e461057e565b60015463ffffffff16600090815260026020526040902054600160c01b900467ffffffffffffffff16610214565b610235610322366004610d28565b610610565b61019a610335366004610cec565b6000918252602082815260408084206001600160a01b0393909316845291905290205460ff1690565b61037161036c366004610d4b565b610719565b6040805169ffffffffffffffffffff968716815260208101959095528401929092526060830152909116608082015260a0016101a6565b610214600081565b6102146103be366004610cd3565b6107dc565b6102146103d1366004610cd3565b61080e565b6102147f21702c8af46127c7fa207f89d0b0a8441bb32959a0ac7df790e9ab1a25c9892681565b61023561040b366004610cec565b61084e565b610418610874565b6040805160179390930b835267ffffffffffffffff9091166020830152016101a6565b61037160015463ffffffff16600081815260026020908152604091829020825180840190935254601781900b808452600160c01b90910467ffffffffffffffff1692909101829052919281908490565b60006001600160e01b03198216637965db0b60e01b14806104bc57506301ffc9a760e01b6001600160e01b03198316145b92915050565b6000828152602081905260409020600101546104de81336108fb565b6104e88383610979565b505050565b6001600160a01b03811633146105705760405162461bcd60e51b815260206004820152602f60248201527f416363657373436f6e74726f6c3a2063616e206f6e6c792072656e6f756e636560448201527f20726f6c657320666f722073656c66000000000000000000000000000000000060648201526084015b60405180910390fd5b61057a8282610a17565b5050565b60606003805461058d90610d77565b80601f01602080910402602001604051908101604052809291908181526020018280546105b990610d77565b80156106065780601f106105db57610100808354040283529160200191610606565b820191906000526020600020905b8154815290600101906020018083116105e957829003601f168201915b5050505050905090565b7f21702c8af46127c7fa207f89d0b0a8441bb32959a0ac7df790e9ab1a25c9892661063b81336108fb565b6001805463ffffffff1690600061065183610dc8565b825463ffffffff9182166101009390930a928302928202191691909117909155604080518082018252601786900b80825267ffffffffffffffff428116602080850191825260018054881660009081526002835287902095519251909316600160c01b0277ffffffffffffffffffffffffffffffffffffffffffffffff909216919091179093555483519182523392820192909252921692507f17eabd0a66fa631f7537cefdd5df6aa25d5ac904cf7596e958d43a75a00d0d68910160405180910390a25050565b600080600080600063ffffffff8669ffffffffffffffffffff1611156040518060400160405280600f81526020017f4e6f20646174612070726573656e740000000000000000000000000000000000815250906107895760405162461bcd60e51b81526004016105679190610ca0565b5050505063ffffffff8316600090815260026020908152604091829020825180840190935254601781900b808452600160c01b90910467ffffffffffffffff169290910182905293949092508291508490565b600063ffffffff8211156107f257506000919050565b5063ffffffff1660009081526002602052604090205460170b90565b600063ffffffff82111561082457506000919050565b5063ffffffff16600090815260026020526040902054600160c01b900467ffffffffffffffff1690565b60008281526020819052604090206001015461086a81336108fb565b6104e88383610a17565b6000803332146108c65760405162461bcd60e51b815260206004820152601460248201527f4f6e6c792063616c6c61626c6520627920454f410000000000000000000000006044820152606401610567565b505060015463ffffffff16600090815260026020526040902054601781900b91600160c01b90910467ffffffffffffffff1690565b6000828152602081815260408083206001600160a01b038516845290915290205460ff1661057a57610937816001600160a01b03166014610a96565b610942836020610a96565b604051602001610953929190610dec565b60408051601f198184030181529082905262461bcd60e51b825261056791600401610ca0565b6000828152602081815260408083206001600160a01b038516845290915290205460ff1661057a576000828152602081815260408083206001600160a01b03851684529091529020805460ff191660011790556109d33390565b6001600160a01b0316816001600160a01b0316837f2f8788117e7eff1d82e926ec794901d17c78024a50270940304540a733656f0d60405160405180910390a45050565b6000828152602081815260408083206001600160a01b038516845290915290205460ff161561057a576000828152602081815260408083206001600160a01b0385168085529252808320805460ff1916905551339285917ff6391f5c32d9c69d2a47ea670b442974b53935d1edc7fd64eb21e047a839171b9190a45050565b60606000610aa5836002610e6d565b610ab0906002610e8c565b67ffffffffffffffff811115610ac857610ac8610ea4565b6040519080825280601f01601f191660200182016040528015610af2576020820181803683370190505b509050600360fc1b81600081518110610b0d57610b0d610eba565b60200101906001600160f81b031916908160001a905350600f60fb1b81600181518110610b3c57610b3c610eba565b60200101906001600160f81b031916908160001a9053506000610b60846002610e6d565b610b6b906001610e8c565b90505b6001811115610bf0577f303132333435363738396162636465660000000000000000000000000000000085600f1660108110610bac57610bac610eba565b1a60f81b828281518110610bc257610bc2610eba565b60200101906001600160f81b031916908160001a90535060049490941c93610be981610ed0565b9050610b6e565b508315610c3f5760405162461bcd60e51b815260206004820181905260248201527f537472696e67733a20686578206c656e67746820696e73756666696369656e746044820152606401610567565b9392505050565b600060208284031215610c5857600080fd5b81356001600160e01b031981168114610c3f57600080fd5b60005b83811015610c8b578181015183820152602001610c73565b83811115610c9a576000848401525b50505050565b6020815260008251806020840152610cbf816040850160208701610c70565b601f01601f19169190910160400192915050565b600060208284031215610ce557600080fd5b5035919050565b60008060408385031215610cff57600080fd5b8235915060208301356001600160a01b0381168114610d1d57600080fd5b809150509250929050565b600060208284031215610d3a57600080fd5b81358060170b8114610c3f57600080fd5b600060208284031215610d5d57600080fd5b813569ffffffffffffffffffff81168114610c3f57600080fd5b600181811c90821680610d8b57607f821691505b60208210811415610dac57634e487b7160e01b600052602260045260246000fd5b50919050565b634e487b7160e01b600052601160045260246000fd5b600063ffffffff80831681811415610de257610de2610db2565b6001019392505050565b7f416363657373436f6e74726f6c3a206163636f756e7420000000000000000000815260008351610e24816017850160208801610c70565b7f206973206d697373696e6720726f6c65200000000000000000000000000000006017918401918201528351610e61816028840160208801610c70565b01602801949350505050565b6000816000190483118215151615610e8757610e87610db2565b500290565b60008219821115610e9f57610e9f610db2565b500190565b634e487b7160e01b600052604160045260246000fd5b634e487b7160e01b600052603260045260246000fd5b600081610edf57610edf610db2565b50600019019056fea164736f6c634300080c000aa164736f6c634300080c000a",
    "linkReferences": {},
    "deployedLinkReferences": {}
}